:100000000C94BF030C94DC030C94DC030C94DC0311
:100010000C94DC030C94DC030C94DC030C94DC03E4
:100020000C94DC030C94DC030C94DF290C94B32AAD
:100030000C9425240C94DC030C94DC030C94DC035A
:100040000C94DC030C94DC030C94DC030C94DC03B4
:100050000C94DC030C94AC240C94DC030C94DC03B3
:100060000C94DC030C94DC030C94DC030C94DC0394
:100070000C94DC030C94DC030C94DC030C94DC0384
:100080000C94DC030C94DC030C94DC030C94DC0374
:100090000C94DC030C94DC030C94DC030C94DC0364
:1000A0000C94DC030C94DC030C94DC0329421E004A
:1000B0001F00200021002200230024002B00140038
:1000C0001A000800150017001C0018003900040071
:1000D0001600070009000A000B000D00E1001D00DA
:1000E0001B0006001900050011001000E000E300ED
:1000F000E2002C4100000000000000002500260066
:1001000027002D002E002A004B0000000C001200DA
:1001100013002F00300031004E0000000E000F00D1
:1001200033003400280000004A0000003600370089
:100130003800E5005200000000000000E600E70083
:10014000E4005000510000004F00000001003A00A0
:100150003B003C003D003E003F004000010001002C
:100160000100010001000100010001000100010087
:100170000100010001000100010001000100010077
:100180000100010001000100010001000100010067
:1001900001000100000000000000000041004200DA
:1001A000430044004500010001000000010001007F
:1001B0000100010001000100010000000100010038
:1001C0000100010001000000010000000100010029
:1001D000010001004B0000000000000001000100D0
:1001E00001004A004E0000004D0000000100010027
:1001F00001000100010001000100010001000100F7
:1002000001000100A75D01000100010001000100E3
:1002100001000100010001000100010001000100D6
:10022000010001000100005C01000100010001006B
:1002300001000100000000000000000001000100BA
:1002400001000100010001000100000001000100A7
:100250000100010001000100010000000100010097
:100260000100010001000000010000000100010088
:100270000100010001000000000000000100010079
:10028000010001000100000001000000000000006A
:10029000000000000000000000000000000000005E
:1002A000000000000000000000000000000000004E
:1002B000000000000000000000000000000000003E
:1002C000000000000000000000000000000000002E
:1002D000000000000000000000000000000000001E
:1002E000000000000000000000000000000000000E
:1002F00000000000000000000000000000000000FE
:1003000000000000000000000000000000000000ED
:1003100000000000000000000000000000000000DD
:1003200000000000000000000000000000000000CD
:10033000000000002A2B2800000000000000000040
:100340000000000000000029000000002C1E3420E6
:10035000212224342627252E362D3738271E1F200C
:100360002122232425263333362E37381F04050651
:100370000708090A0B0C0D0E0F1011121314151695
:100380001718191A1B1C1D2F3130232D3504050693
:100390000708090A0B0C0D0E0F1011121314151675
:1003A0001718191A1B1C1D2F3130354C0000000086
:1003B000000000000000000000000000000000003D
:1003C000000000000000000000000000000000002D
:1003D0007E0F00D4FFFFFFC70000007800047F3FBE
:1003E0001F643214643214783C1E1E140A05222342
:1003F000252628292A2C2D2F3032333536383A3B02
:100400003D3E4042434547494A4C4E505153555753
:10041000595A5C5E6062646668696B6D6F71737572
:1004200077797B7D7F81838587898A8C8E90929472
:1004300096989A9C9E9FA1A3A5A7A8AAACAEAFB17F
:10044000B3B4B6B8B9BBBCBEBFC1C2C3C5C6C7C9C9
:10045000CACBCCCDCED0D1D2D2D3D4D5D6D7D7D883
:10046000D9D9DADADBDBDBDCDCDCDCDCDDDDDDDDD5
:10047000DCDCDCDCDCDBDBDBDADAD9D9D8D7D7D6DD
:10048000D5D4D3D2D2D1D0CECDCCCBCAC9C7C6C594
:10049000C3C2C1BFBEBCBBB9B8B6B4B3B1AFAEACDA
:1004A000AAA8A7A5A3A19F9E9C9A98969492908E85
:1004B0008C8A89878583817F7D7B79777573716F5E
:1004C0006D6B6968666462605E5C5A59575553513A
:1004D000504E4C4A4947454342403E3D3B3A3836F0
:1004E000353332302F2D2C2A292826252322FFAA06
:1004F0007F554000010101010101010101020202D9
:1005000002020202020203030303030303030404BF
:100510000404040404050505050506060606060789
:100520000707070708080808090909090A0A0A0B42
:100530000B0B0C0C0C0D0D0D0E0E0E0F0F0F1010E3
:10054000111111121213131414151516161717186A
:100550001819191A1A1B1B1C1D1D1E1E1F202021D5
:100560002222232424252626272829292A2B2C2D1C
:100570002D2E2F30313232333435363738393A3B3D
:100580003C3D3E3F404142434445464748494A4C32
:100590004D4E4F50515354555658595A5B5D5E5FFE
:1005A000616264656668696B6C6D6F707273757794
:1005B000787A7B7D7E8082838587888A8C8E8F91F6
:1005C000939596989A9C9EA0A2A3A5A7A9ABADAF20
:1005D000B1B3B5B7BABCBEC0C2C4C6C9CBCDCFD10A
:1005E000D4D6D8DBDDDFE2E4E7E9EBEEF0F3F5F8B3
:1005F000FAFDFF1A034D0061006C006900630041C1
:100600000063006900640041003600350000001EF0
:10061000034E0069006E007400680053006B00799F
:1006200000530074007500640069006F000000044E
:1006300003090409025B00030100A0C809040000CB
:1006400001030101000921110100012240000705F9
:1006500081030800010904010002030000000921D0
:100660001101000122220007058203200001070575
:100670000303200001090402000103000000092116
:1006800011010001227B00070584032000011201F3
:10069000000200000008BA7C50A60100010200011F
:1006A0000660FF0961A1010962150026FF0095207F
:1006B000750881020963150026FF009520750891D1
:1006C00002C005010902A10185020901A100050975
:1006D00019012908150025019508750181020501F8
:1006E000093009311581257F950275088106093881
:1006F0001581257F950175088106050C0A380215BC
:1007000081257F950175088106C0C005010980A17A
:1007100001850319012AB700150126B70095017557
:10072000108100C0050C0901A101850419012AA04E
:1007300002150126A002950175108100C00501096E
:1007400006A101050719E029E7150025019508759F
:100750000181029501750881010507190029FF151E
:100760000026FF0095067508810005081901290576
:10077000950575019102950175039101C000112441
:100780001FBECFEFDAE0DEBFCDBF11E0A0E0B1E0E9
:10079000E0E8FBE502C005900D92A23DB107D9F754
:1007A00023E0A2EDB1E001C01D92A63AB207E1F745
:1007B0000E94EC130C94952D0C940000B0E0A0E086
:1007C000E4EEF3E00C94FB2CA2E3B1E02CE331E087
:1007D000ED0161E070E08991E82FE295EF70F0E0C3
:1007E00011A18F70AB0101C0440F8A95EAF7942FD5
:1007F0009095912391A382A1842B82A32C173D076E
:1008000051F7CAE2D1E042E351E0BE0101E010E05D
:10081000FB018191BF01E82FE295EF70F0E0D1A0DC
:100820008F70780101C0EE0C8A95EAF79E2D9095A5
:100830009D2191A382A18E2982A34617570741F7D4
:1008400061E070E08991E82FE295EF70F0E0F1A0AF
:100850008F708B0102C0000F111F8A95E2F7902F55
:1008600090959F2191A382A1802B82A34C175D07B5
:1008700049F7C1E0D0E08D91E82FE295EF70F0E00C
:1008800061A18F70AE0101C0440F8A95EAF7942FE1
:100890009095962391A382A1842B82A32A173B07CC
:1008A00051F7CDB7DEB7E7E00C94172DA4E0B0E028
:1008B000ECE5F4E00C94F12C8C010B5F1F4FF2E39C
:1008C000EF2EF1E0FF2E9A838983712C8824839484
:1008D000912CA981BA813D90BA83A9831E92BC83D1
:1008E000AB83F70121917F01E22FE295EF70F0E0F9
:1008F00031A12F70540101C0AA0C2A95EAF7232FC9
:100900002A2921A322A16A2C6094262122A320EA6D
:100910002A95F1F74AE251E06A0130E020E0D60181
:100920005D906D01652D62956F7070E0DB019096B2
:100930006C91AB81BC814C9070E0B52DBF7002C052
:1009400075956795BA95E2F760FD96C0682D022E01
:1009500001C0660F0A94EAF7462AAB81BC814C922B
:100960002F5F3F4F28303105D1F621A1622261A2CD
:1009700022A1A22AA2A221E03C91331101C020E0D1
:10098000722AE981FA810E171F0709F0A2CF70E0E1
:1009900060E044244394512C0A96DA012D91AD0174
:1009A000E22FE295EF70F0E0A1A12F70720102C07A
:1009B000EE0CFF1C2A95E2F797013A2F322B31A358
:1009C00032A12095232322A320EA2A95F1F7620180
:1009D000062E01C0CC0C0A94EAF78C2CC094F801C6
:1009E00032E3E32E31E0F32ED12C9190D7016D90BC
:1009F0007D01A62CA2942FE0A222B12CD5019096C5
:100A00002C9130E0B62DBF7002C035952795BA9570
:100A1000E2F7DF0111975D0120FD30C0282D292963
:100A20002C93D5012C91921611F0DD24D3948E17BE
:100A30009F07D9F6FA0131972081E22FE295EF70F6
:100A4000F0E0F1A02F70520102C0AA0CBB1C2A9545
:100A5000E2F73A2D30953F2131A322A12A2922A382
:100A60007D286F5F7F4F6830710509F096CF872D25
:100A70002496E1E10C940D2D60E06ECF2C2D292100
:100A8000CFCF81E0089581E008950E944305089545
:100A900008950E9448050895A5E0B0E0E2E5F5E07C
:100AA0000C94FF2C49835A833091D50189819A8116
:100AB000311119C0662399F0222389F00E94EE0BB0
:100AC000182F682F89819A810E94CB0B69817A81C6
:100AD000812F0E948E212596E3E00C941B2D0E940D
:100AE000DC0B182FF3CF0E94EE0B69817A81F1CFD6
:100AF000FC01262F408151816281738184810E9493
:100B00004C05089581E00895CF93DF93EC0160E0F8
:100B10000E947805BE010E944905DF91CF9108959A
:100B2000E1E0F0E0DF0102C0AA0FBB1F6A95E2F727
:100B3000BD01DF0102C0AA0FBB1F4A95E2F76A2B75
:100B400001C0EE0F2A95EAF7962F9823961302C05C
:100B50008E2B0895E0958E230895242F462F682F1D
:100B60008091F4010E9490050E942B0B08950E9431
:100B7000751308950E947913089508950E94C80A74
:100B80000E94BD052FEF84E39CE0215080409040FF
:100B9000E1F700C0000008950E94BE050E94D02425
:100BA00008950E94BE050E94E12408950F931F93AB
:100BB000CF93DF938C0161E00E947805EC01B801CE
:100BC0000E94341E811106C080E0DF91CF911F91F9
:100BD0000F910895B801CE010E9445058823A1F325
:100BE000B801CE010E94D322882371F3B801CE014F
:100BF0000E94801F882341F3B801CE010E94452244
:100C0000882311F3B801CE010E94DB1C8823E1F296
:100C1000F8018281882361F0CA35FDE5DF0701F123
:100C200058F4C115ECE5DE0791F0CE3DDC4591F0BE
:100C3000C8010E944105C9CFCC358DE5D80769F0C0
:100C400090F0C73ADD45A1F70E94D105BDCF0E94C3
:100C5000CC05BACF0E94A710F7CF0E94E10FE8CFD2
:100C60000E94EB0FE5CF0E94EF0FE2CF0E9402241B
:100C70000E941A0708950E941E070E9407240895E3
:100C8000B0E0A0E0E6E4F6E00C94FB2CE82FF0E006
:100C9000E45DFC4FD490282F26952695269530E0CC
:100CA000F901E453FC4F0491877010E0082E02C054
:100CB000159507950A94E2F701701127F901E4549C
:100CC000FC4FE490F12C082E02C0F594E7940A94AE
:100CD000E2F791E0E922FF24F901E455FC4FC491C9
:100CE000D0E002C0D595C7958A95E2F7C170DD279F
:100CF0000115110519F081EE0E946907E114F10454
:100D000019F086EE0E9469078D2D0E946B08E11490
:100D1000F10419F086EE0E94FA070115110519F089
:100D200081EE0E94FA07CD2B19F08CE20E946B082D
:100D3000CDB7DEB7E7E00C94172DEF92FF920F933B
:100D40001F93CF93DF93EC01162F0AE0888188234D
:100D500009F454C0813009F04EC08981813099F482
:100D60007E0122E0E20EF11C8A810E946B08E701FD
:100D70002196812F815050F3EFE9FFE03197F1F791
:100D800000C00000F7CF823041F47E0182E0E80E1F
:100D9000F11C8A810E946907EACF833041F47E0109
:100DA000E2E0EE0EF11C8A810E94FA07E0CF843067
:100DB00011F02196DDCF2A81229690E080E0AE01ED
:100DC0004F5F5F4F2053330B2A30310548F00197B6
:100DD00078F2EFE9FFE03197F1F700C00000F7CFBC
:100DE000089FB001099F700D1124C901860F971F3C
:100DF0002981EA01E4CF0E944006BACFCDB7DEB721
:100E0000E6E00C94182D60E00E949D060895089578
:100E10000E940707089581E008950E940B07089536
:100E20000895CF93C82F0E9408078C2F0E940D07AA
:100E3000CF91089580E00E94110708950E942F230A
:100E40000E94110708950E942F239091D4019817B2
:100E500021F08093D4010E9411070895ABE0B0E027
:100E6000E4E3F7E00C94002D4F83588769877A8775
:100E70008B8761110E942C0F1E821D8285E0FE016E
:100E80003796DE01119601900D928A95E1F78C81DB
:100E90009D81892B61F449815A816B817C818D818F
:100EA0009E810E94550E2B96E2E00C941C2D8981A8
:100EB0009A8189238F3F79F3CE0101960E948205A2
:100EC0008111E9CFF0CFFC01808191810E941B0C40
:100ED0000895CF93C82F8823C9F08238C9F40E949F
:100EE0002F2381FD13C089E30E94E40E0E944D0F61
:100EF0002FEF81EE94E0215080409040E1F700C058
:100F0000000089E30E94EC0E0E944D0FCF910895DE
:100F10008338A1F40E942F2380FDF8CF83E50E943F
:100F2000E40E0E944D0F2FEF81EE94E0215080409F
:100F30009040E1F700C0000083E5E4CF8438A1F4DD
:100F40000E942F2382FDE2CF87E40E94E40E0E94DC
:100F50004D0F2FEF81EE94E0215080409040E1F75B
:100F600000C0000087E4CECF8CEF8C0F813A90F464
:100F70006C2F80910001909101010E94932388239E
:100F800029F08C2F0E94EC0E0E944D0F8C2F0E9496
:100F9000E40EBACF80E28C0F883048F4C77081E04D
:100FA00001C0880FCA95EAF70E940F0FADCFEBE59D
:100FB000EC0FE33040F4F0E0E659FE4F808190E022
:100FC0000E945523A3CFE8E5EC0FE73150F4F0E0A1
:100FD000EE0FFF1FE45CFE4F808191810E946B2326
:100FE00095CFC03F08F492CF8C2F0E9470140E94BE
:100FF00043158CCF882309F455C0823879F40E94B8
:101000002F2381FF4FC089E30E94E40E0E944D0F01
:1010100089E30E94EC0E0E944D0F0895833859F425
:101020000E942F2380FF3EC083E50E94E40E0E94B1
:101030004D0F83E5EECF843859F40E942F2382FFB1
:1010400031C087E40E94E40E0E944D0F87E4E1CF97
:101050009CEF980F913AE8F290E2980F983050F494
:10106000877091E001C0990F8A95EAF7892F0E9455
:10107000150FD1CF9BE5980F933028F490E080E0D6
:101080000E945523089598E5980F973128F490E031
:1010900080E00E946B230895803F20F00E94CA14D4
:1010A0000E94431508951F93CF93DF93182FEB01F0
:1010B0000E946907209739F4812F0E94FA07DF9177
:1010C000CF911F9108958FE99FE00197F1F700C03C
:1010D00000002197EFCF70E060E0893311F460E504
:1010E00070E00E9453080895882321F00E940F0F9A
:1010F0000E944D0F0895882321F00E94150F0E9431
:101100004D0F0895B0E0A0E0E8E8F8E00C94F92C69
:101110006C01D62FC72FFC011281F580F2949FE05D
:10112000F9220E94050FE82E8823B9F0E12E112341
:10113000A1F08C2F807F803421F080E28D0F8830E9
:10114000D0F080918B0282FF16C082E00E94B00F27
:101150000E94050F91E0E82EE926BC2EB2948FE0A4
:10116000B822FBE0FB1508F468C0EB2DF0E0E9566F
:10117000F24D0C94B22CE12CF0CF0C2F0F70C07FED
:1011800011F00295007F112399F0002359F080E2BD
:101190008D0F883010F0D11107C0802F0E940F0FE3
:1011A0000E944D0F8D2F41C0802F0E941F0FF8CF3E
:1011B0008D2F0E94FA07002309F43FC080E28D0FB3
:1011C000883010F0D11104C0802F0E94150F03C089
:1011D000802F0E94250F0E944D0F2FC00C2F0F70E3
:1011E000C07FC03211F00295007FDD2381F0D13045
:1011F00009F463C0112309F46DC0FF2009F463C032
:10120000F601858180FFCECF8F7085835CC0809191
:101210008B0282FD33C0112359F0002329F0802F67
:101220000E940F0F0E944D0F80E00E94690705C0C9
:1012300080E00E94FA070111C7CFEB2DE850FF0BA9
:10124000349720F40E942F230E941107EE2089F08A
:101250000E94010F80FD0DC0F60112820E94FB0E5C
:101260000E943F0BC6010E94880A0E94FB0E0E944A
:101270004B0BCDB7DEB7E9E00C94152D112389F0A7
:10128000F11006C00E942F0F802B0E947408D5CF4A
:1012900021E0F212F7CF0E942F0F802B0E94360F11
:1012A000CCCFF11006C00E94430F802F0E947B0814
:1012B000C4CF31E0F31609F2F6CF112331F085E007
:1012C0008F1508F4BACF802FE0CF94E09F1508F473
:1012D000B4CFEBCFFF2049F3D93349F4FFEF27EE2A
:1012E00033E0F15020403040E1F700C000008D2F86
:1012F0000E94FA07A2CF8C2F86958695837069F09D
:10130000813009F09ACF8D2F9C2F9370111102C05C
:1013100090E080E00E946B2390CF8D2F9C2F9370E4
:10132000111102C090E080E00E94552386CF8D2FDE
:10133000112329F00E9470140E9443157ECF0E9451
:10134000CA14FACF8C2F837079F5111176CF4D2FF7
:10135000429546954770440F440F8D2F8F70042E91
:1013600001C0880F0A94EAF72D2F2071D4FF07C01F
:101370002FE030E001C0220F4A95EAF72095C6958C
:10138000C695C370822BC23049F058F4C13019F0B1
:101390000E94190B52CF0E94130B4FCF0E941F0BBC
:1013A0004CCF0E94100B49CF8695112311F08C2F42
:1013B0008170882309F441CF4D2F4295469547709F
:1013C000440F440F8D2F8F70042E01C0880F0A9494
:1013D000EAF72D2F2071D4FF07C02FE030E001C0C5
:1013E000220F4A95EAF72095C695C695C370822BC1
:1013F000C23049F058F4C13019F00E946A0B1DCF79
:101400000E94640B1ACF0E94700B17CF0E942B0B07
:1014100014CFCF70112329F08C2F0E943F0B8D2FFA
:1014200034CF8D2F0E947B088C2F0E944B0B05CF51
:10143000D23F51F160F4D03FB9F0D13F81F0112398
:1014400009F449C0F110AECE8C2F8F7121C0D33F6B
:1014500011F1D43FA1F780918B0282FD26C08C2F21
:101460008F71112311F314C0112349F084E08F15FB
:1014700008F4E3CE8C2F8F710E94580BDECE95E0DE
:101480009F1508F4DACEF6CF8C2F8F711111CDCFC6
:101490000E943F0BD2CE112329F08C2F8F710E9416
:1014A000360BCBCE0E94320BC8CE112349F0CF7140
:1014B0008C2F0E943F0B63E08C2F0E94920FBDCEB9
:1014C00081E00E94B00FE1E0EF1508F0B6CE82E0B7
:1014D0000E94B00FB2CEF110FFCE8C2F8F71A5CF2E
:1014E0000F931F93CF93DF93EC01688179818A81F9
:1014F0000E94260C8C010E94760B0E940F0BB801F3
:10150000CE010E948208DF91CF911F910F91089523
:10151000CF93DF93EC018B819C81892B29F088810B
:10152000998189238F3F51F4DF91CF910895CE01A6
:101530000E94700ACE010E948405F6CFCE010E945F
:10154000D6058111F4CF0E94050F882369F38A81A3
:10155000882351F380918B0282FFE6CF82E00E94C4
:10156000B00FE2CF90E080E00E94552390E080E051
:101570000E946B230E942C0F0E944D0F0E945F154A
:101580000E94431508950E94F40E0E94B20A089525
:101590000E941C0F0E94C30A089592959F70963076
:1015A00091F058F4925F9F70923058F4803F19F098
:1015B00030F4883E30F481E008959A5FF4CF843FA0
:1015C000D1F380E00895883EB0F3813FD1F7F3CFA7
:1015D000FC01808191810E941B0C0E94CD0A08951C
:1015E000A5E0B0E0E6EFFAE00C94002D2596E2E0ED
:1015F0000C941C2DA6E0B0E0E0E0FBE00C94002D84
:101600002696E2E00C941C2D08950E94040B089588
:101610000E94050B8093F5010E94B20A0895089577
:101620000E94080B08959091F501892B0E94080BE8
:1016300008959091F50189230E94080B08959091D7
:10164000F50189270E94080B08950E94040B089554
:101650000E94250B08950E94280B8093F4010E949C
:10166000B20A089580E00E942B0B089591E001C01A
:10167000990F8A95EAF7892F0E942B0B089521E094
:1016800030E001C0220F8A95EAF78091F401822BA5
:101690000E942B0B089521E030E001C0220F8A95B3
:1016A000EAF720958091F40182230E942B0B089584
:1016B00021E030E001C0220F8A95EAF78091F40121
:1016C00082270E942B0B08959091F401892B0E9490
:1016D0002B0B08959091F40189230E942B0B089500
:1016E0009091F40189270E942B0B08950895262FCD
:1016F000277091E001C0990F2A95EAF723E07695CB
:1017000067952A95E1F7FB01EE0FFF1FE60FF71F24
:10171000E40FF51F50E040E0682F70E08191DF0199
:1017200011979B01042E02C0369527950A94E2F783
:10173000217021952827292328272C934F5F5F4F5D
:101740004330510559F70895A82FA77023E09695C7
:1017500087952A95E1F7FC01EE0FFF1FE80FF91FAF
:10176000E60FF71F50E040E080E0219130E00A2EC4
:1017700002C0369527950A94E2F721703327042E8C
:1017800001C0220F0A94EAF7822B4F5F5F4F43306C
:10179000510559F70895262F9A3068F4883058F487
:1017A00038E0939FB0011124680F711D46ED51E0A0
:1017B000822F0E94770B08959A3070F4883060F47D
:1017C00048E0949F9001112466ED71E0820F932F01
:1017D000911D0E94A40B089580E00895CF92DF929E
:1017E000FF920F931F93CF93DF936C010091F4014D
:1017F0008091F501082BC7E0D0E010E0FC2EC80175
:101800000C2E02C0959587950A94E2F780FD0CC0D6
:101810002197A0F7F12C8F2DDF91CF911F910F9180
:10182000FF90DF90CF900895B6018C2F0E945E123A
:10183000019771F3F0CFCF93DF93EC010E94EE0B91
:10184000BE010E945E12DF91CF9108951F93CF9346
:10185000DF93EB019091D501992339F0CB010E94E0
:101860001B0CDF91CF911F910895882369F0CB0164
:101870000E94EE0B182F682FCE010E94CB0BBE01E9
:10188000812F0E945E12EDCFCB010E94DC0B182F3E
:10189000F6CF1F93CF93DF93C091F60116E08091AE
:1018A000F7018C1304C0DF91CF911F910895D0E010
:1018B0001C9FF0011D9FF00D1124E850FE4F408148
:1018C000518162817381848195810E94FA0A2196F7
:1018D000C770E5CF409128025091290260912A02F9
:1018E00070912B0280912C0290912D020E94FA0A95
:1018F00008951F93CF93DF9380912D02807F09F08D
:1019000049C080912A02882309F444C08091F601DD
:10191000C091F7016091280270912902A0912B02D9
:10192000B0912C02D62FD72316E0C81799F190E07A
:10193000109711F0DF3F19F401968770F6CF189FCA
:101940009001199F300D1124F901E850FE4F41819B
:101950004713F2CF40814613EFCF42814111ECCFC4
:10196000438154814A1B5B0B483C510528F7809109
:101970002D028F70806180932D02F901E350FE4F9C
:1019800080818F708061808388E292E00E94880A63
:101990000E94490CDF91CF911F910895A1E1B0E021
:1019A000E4EDFCE00C94F82C8C0185E0F801DE01FC
:1019B0001D9601900D928A95E1F7F801E28088E288
:1019C000C82E82E0D82E60912B0270912C026115F6
:1019D000710509F44EC19091280220912902892FA6
:1019E00082238F3F09F445C140815181A380B48097
:1019F000F0902A02F501E61BF70BFF2009F4EAC07C
:101A000080912D02382F307FE83CF10508F0A3C00B
:101A100031116DC0FE2C251316C0941314C0E110B3
:101A200012C08F70806180932D020E946A0CC601E3
:101A30000E94880A80912D02F80185838F2D61967E
:101A4000EAE00C94142DA114B10429F0842F85230D
:101A50008F3F09F027C180E0F82FF170DF2E80FF63
:101A60003CC08091F6012091F70136E0821315C049
:101A70004D875E878D859E850E941B0C292F2295A0
:101A80002F702230F0F0243018F59F70F1F0F8013B
:101A90009581907FD1F4D12C1EC090E0389FF00149
:101AA000399FF00D1124E850FE4F6181651306C087
:101AB0006081641303C06281E6120FC001968770D3
:101AC000D5CF9F7011F0882331F3805E883018F3F2
:101AD000C8010E94880AFD2CB1CFEE2009F4AECFD8
:101AE00080912D02816080932D02F12CA7CF2513C8
:101AF00006C0941304C0F801EE2009F487C0C801A1
:101B00000E94E80A882319F1EE2009F180912D0244
:101B1000803270F0209128023091290238872F837B
:101B20001986BB86AA868C87CE0107960E94880AF2
:101B300086E0F801A8E2B2E001900D928A95E1F703
:101B40000E94790C0E946A0CFF24F39477CFC8019D
:101B50000E94880AF9CF311113C07A2DB98AA88A58
:101B60006E2D89890E94F00A88E292E00E94880A1C
:101B700086E0F60111928A95E9F70E946A0CB5CFCA
:101B800025130FC094130DC0E1100BC0F80185831D
:101B9000C8010E94880A86E0F60111928A95E9F749
:101BA0004DCFC8010E94E80A882389F2EE2079F21D
:101BB00080912D02803208F4BBCF20912802309111
:101BC00029023A8329831B82BD82AC828E83CE0197
:101BD0000196ACCFE83CF10508F03EC0FE2CEE20AB
:101BE00009F4B5CF25132AC0941328C080912D0283
:101BF00080FD1BC0982F907FC1F0F8018583903F36
:101C000031F0982F907F905F8F70892B8583C8016A
:101C10000E94880A86E0F801A8E2B2E001900D92E5
:101C20008A95E1F70E946A0C09CF86E0F801A8E2E4
:101C3000B2E001900D928A95E1F700CFC8010E94B1
:101C4000E80A811175CF80912D02816080932D0269
:101C5000C8010E94880AF2CE7A2DB98AA88A6E2D10
:101C600089890E94F00A86E0F60111928A95E9F7C7
:101C7000D9CFEE2009F46BCFC8010E94E80AF82EF4
:101C8000882309F464CF86E0F801A8E2B2E001906D
:101C90000D928A95E1F788E292E00E9463070E9424
:101CA000790CC0CF81E08E25D7CEACE0B0E0EBE57B
:101CB000FEE00C94FF2C4F83588769877A878B87C7
:101CC0009C87CE0107960E94CE0C882369F08A85F6
:101CD0009B85892B39F04F815885842F85238F3F31
:101CE00009F06BC016E05FC086E0FE013796DE01AA
:101CF000119601900D928A95E1F78A859B85892B33
:101D000089F38F81988589238F3F61F32091F701B3
:101D100030E0C9010196877099274091F601481774
:101D2000190671F40E94C80A1092F7011092F60188
:101D300086E0E8E2F2E0DF011D928A95E9F7D2CF72
:101D400096E0929FD001939FB00D1124A850BE4FF2
:101D5000FE01319601900D929A95E1F78093F7017B
:101D60000E94490CBFCF819FC001112488509E4F13
:101D70000E94CE0C8823E9F0E091F6011E9FF0014D
:101D80001124E850FE4F408151816281738184812A
:101D900095810E94FA0A8091F60190E00196877081
:101DA00099278093F6018091F6019091F7018913AC
:101DB000DACF2C96E3E00C941B2D69857A858B8510
:101DC0009C850E94FA0A8ECF682F80910001909125
:101DD00001010E94C9230895682F8091000190910C
:101DE00001010E94CC23089580910001909101018E
:101DF0000E94CF230895809136028595859585951B
:101E000008958091360287700895909136029770F8
:101E100081E009F480E00895809141020895909155
:101E20004102892B8093410208958095909141024F
:101E30009823909341020895109241020895909141
:101E40004002892B80934002089580959091400232
:101E50009823909340020895109240020895809133
:101E60003702089508950E94320F089590918B02D1
:101E700092FF08C090913702981721F080933702A3
:101E80000E94330F089580913702882329F0109221
:101E9000370280E00E94330F0895CF93DF93E091E3
:101EA0000001F0910101809141028083E0910001E5
:101EB000F0910101808190914002892B8083909163
:101EC0003702992381F0E0910001F09101018081B6
:101ED000892B808380910001909101010E948123D0
:101EE00081110E94430FC0910001D091010148E08F
:101EF00050E06EE272E0CE010E94402D892B59F035
:101F000088E0FE01AEE2B2E001900D928A95E1F721
:101F1000CE010E943C23DF91CF91089508950E9445
:101F20008E0F089590918B0292FF11C098E0899FC7
:101F300090011124622B609336020E943F0B809126
:101F400036028595859585950E948F0F08950E948C
:101F50003F0B08951092360280E00E948F0F089583
:101F6000909136028095892380933602282F27701E
:101F700091F4282F082E000C330B9217130659F0FA
:101F800090918B0292FF07C08595859585950E945B
:101F90004B0B0E94AA0F089590918B0292FB22276F
:101FA00020F9281769F080FB92F990938B028091B9
:101FB0008A0290918B020E941E1082E00E94B00F54
:101FC000089580918B0282FB882780F991E0892710
:101FD0000E94CC0F089581E00E94CC0F089580E00C
:101FE0000E94CC0F08956FEF7FEF90E080E00E9499
:101FF0007F2D089590E080E00E945B2D883E9E4FEB
:1020000019F40E94CF1D089580E0089582E090E0C9
:102010000E944D2D089583E090E00E944D2D08957B
:10202000CF9384E090E00E944D2DC82F82E290E093
:102030000E944D2D982F8C2FCF910895CF93C92FAB
:10204000682F84E090E00E94612D6C2F82E290E086
:102050000E94612DCF910895AB01BC018FE090E00B
:102060000E94732D0895AB01BC0183E190E00E94B2
:10207000732D089560E070E0CB010E943310089545
:1020800060E070E0CB010E942C100E943A1008958D
:1020900068EE7EEF90E080E00E947F2D60E082E0BD
:1020A00090E00E94612D60E083E090E00E94612D4D
:1020B0001092F50160E084E090E00E94612D64E000
:1020C00082E290E00E94612D60E085E090E00E9455
:1020D000612D60E086E090E00E94612D6FEF87E067
:1020E00090E00E94612D40E050E0BA0188E090E06D
:1020F0000E94732D60E08DE090E00E94612D40E031
:1021000050E0BA0188E190E00E94732D60E087E121
:1021100090E00E94612D40E050E0BA018CE190E037
:102120000E94732D70E060E080E290E00E947F2DBD
:1021300040E050E0BA0188E190E00E94732D80E019
:102140000E94E81D0E94171E0E94401008950E94E0
:1021500048100895682F8EE090E00E94612D089548
:102160000E94912460935002709351028093520216
:102170009093530260934C0270934D0280934E02F1
:1021800090934F020895089508950E94C4100895F1
:1021900008950E94C81008958DE393E10E942523BD
:1021A0000E94C3100E94C510089581E008950E9406
:1021B000D5100895089508950E94DA100E94DB104A
:1021C00008950E9459130E94100708950E947C24CC
:1021D0000E94271E0E9483130E94E1100E94F61B9A
:1021E0000E94C9100895AAE0B0E0E9EFF0E10C9474
:1021F000F72C0E949513C82E81110E94B01082E422
:10220000A82E82E0B82E10E000E0902E802F0E94D1
:102210007C13E82EF501F1905F01F816B9F1809179
:10222000540281FD0E9482138F2D8E25D12CFF2414
:10223000F394982F9F2129F10E94D710882399F0B9
:10224000DE829F82EF2081E009F480E088870E948F
:1022500085248160782F9A8789874E815F81688580
:102260008A850E942E07F801EE5BFD4F8081F826DB
:10227000F08281E0C11001C080E02A96EBE00C946E
:10228000132DD394FF0CF8E0DF12D3CF0F5F1F4F55
:102290000A30110509F0B9CF8FEF89838A831B8239
:1022A0000E9485248160782F9D838C8349815A8187
:1022B0006B818D810E942E07DCCF0E94F3100E945B
:1022C000321C0E9481150E9423070895CF93DF934B
:1022D0000E946312EC01811521E5920708F042C0CB
:1022E000811530E5930708F09DC0883E910530F5D3
:1022F000803E910508F092C0883A910588F4853AAD
:10230000910508F084C08130910509F487C00097D9
:1023100009F484C0049708F081C0D0E0C0E07EC01A
:102320008F3B9105D0F7C85AD0E0CC0FDD1FC359C1
:10233000DE4F0990D881C02DD46470C081159042C1
:1023400050F4C11581E0D80708F068C0C03FD1053E
:1023500020F3D06563C0C11590E4D907F0F2DF70B7
:10236000D06A5CC0811525E5920700F5811534E53A
:10237000930708F08BC0811543E5940708F073C0FC
:10238000C11582E5D80708F469C0CE01837099278A
:1023900021E030E002C0220F331F8A95E2F7C69594
:1023A000C69580E2C89FE001112454C0C11599E58B
:1023B000D907A8F4C11528E5D20708F06CC0C115EB
:1023C00036E5D30708F0A9CF8C2F0E94FA12C82F48
:1023D000D0E0DC2FCC27CC27DF71D0621FC0C11525
:1023E0004AE5D40708F45CC0CE01905681159042AE
:1023F00008F093CF8D2F8F710E94FA1290E0982FE2
:10240000882788279F719C012C2BE901E6CFC55AAC
:10241000D0E0C556DE4FC881D0E0D064CE01DF9158
:10242000CF910895E4E096958795EA95E1F783705A
:102430002C2F26952695237040E2249F900111248D
:10244000382B8C2F8370C1E0D0E002C0CC0FDD1F91
:102450008A95E2F7C22BD32BDC68E0CFDC2FCC27A8
:10246000C16FD06ADBCF8370992721E030E002C0D2
:10247000220F331F8A95E2F7C695C69590E2C99F51
:10248000E0011124C22BD32BDA68C8CFD82FCC2778
:10249000C46FD06AC3CFDC2FCC27C06FD06ABECF49
:1024A0008C2F8F700E94FA1234E0D695C7953A951A
:1024B000E1F7CF709C2FEC01D069B0CF0E948E2144
:1024C0000E946611089582389105B1F1B0F481330C
:1024D000910509F475C048F48932910509F469C081
:1024E0008A32910509F473C008958533910509F482
:1024F00059C08933910501F10895833E9105A9F1F1
:1025000038F4803E9105F9F0823E910549F1089535
:10251000863E9105A9F1873E9105C9F1843E91055A
:1025200019F520918B0221FF1FC080918A0284FD42
:1025300014C087EE90E0089520918A022370A1F0E4
:1025400080EE90E0089520918A0220FD47C03091EE
:102550008B0230FF09C024FF44C090E080E004C03B
:1025600020918A0222FDF7CF089520918A0222FD50
:102570003BC030918B0230FDE3CF24FFF5CFEDCF90
:1025800020918A0223FFF0CF24FDE7CFD2CF209104
:102590008A0223FD2CC030918B0231FFEECF84EEF6
:1025A00090E0089520918A0225FFDECF89E290E035
:1025B000089520918A0225FFD7CF85E390E0089502
:1025C00020918A0226FFD0CF8AE290E008952091E0
:1025D0008A0226FFC9CF81E390E0089589E390E065
:1025E000089583EE90E0089582EE90E0089586EEDF
:1025F00090E0089590918A0292FF06C0282F2871DA
:102600002830F9F4877F846093FF06C0282F287153
:102610002831F1F4877E846120918B0220FF06C06F
:10262000382F38713830D9F4877F816021FF06C098
:10263000282F28712831D1F4877E816194FD877E0F
:102640000895282F24712430F9F68B7F8860DCCF21
:10265000282F2471243101F78B7E8861DDCF382F3C
:102660003171313019F78E7F8860E0CF282F2171CA
:10267000213121F78E7E8861E1CF80E008950E94AC
:10268000F30F08950E9495138FE39CE90197F1F7EA
:1026900000C000000E94951380E00E947C1380FF20
:1026A00004C00E943F130E94D02408950E94421348
:1026B00008950E94FA0F811102C00E94A7100E9483
:1026C0000610809354020E94101090938B02809306
:1026D0008A020E9456130E940B100E94100B8091D8
:1026E000F4010E94280B089508950E947413089520
:1026F00008950E9478130895E82FF0E0EA56FD4F00
:102700008081089508950E94DE03ECE8F2E0A6E9D6
:10271000B2E011921D9282E0E639F807D1F78AE023
:102720000E94A8130E94B7050895CF938CE892E009
:102730000E945604C82F282F4AE066E972E08CE810
:1027400092E00E94A9130E94BA058C2FCF910895A0
:102750000895FF920F931F93CF93DF93F82E092FC5
:10276000162FD72FC42F222349F081E080935702E0
:102770000E948524909356028093550280915702BF
:102780008823A1F080915502909156020E949D24C9
:10279000059760F0EF2DF02FA12FBD2FCE0FDF2F6B
:1027A000D11DEC17FD0739F410925702CDB7DEB7F3
:1027B000E5E00C94192D81918D93F3CF0E94B926F9
:1027C0000E94E6100E94C62608950E94CB260E9411
:1027D0005D110E94E52608950E941E240E949F26F6
:1027E0000E94CC100E94DE130E94E5130E94DC10B0
:1027F000FBCF80915E0280FF0DC06091070170E009
:10280000660F771F6038710570F56115710569F104
:10281000862F089581FF07C06091070184E0689FBB
:10282000B0011124EFCF6091070182FD0AC08091B1
:102830005D028823A9F020910601609107018217AB
:1028400010F088E0ECCF869FC001112433E0880FA0
:10285000991F3A95E1F7622F70E00E947C2CD2CF4D
:1028600068E070E0D5CF8FE7089581E0089580910A
:102870005E0280FF0CC06091030170E07595679562
:10288000759567956115710549F1862F089581FF4A
:1028900006C06091030170E075956795F3CF609174
:1028A000030182FD0BC090915C029923A1F060911D
:1028B000020180910301961738F0682F70E06038AC
:1028C000710500F38FE70895899FC001112470E01E
:1028D0000E947C2CF4CF61E070E0D7CF81E00895B6
:1028E000803F31F40E94F91381958093620208952C
:1028F000813F19F40E94F913F8CF823F31F40E940E
:10290000F9138195809361020895833F19F40E9421
:10291000F913F8CF893F29F40E943714809363029A
:1029200008958A3F21F40E9437148195F7CF8B3F99
:1029300031F40E94371481958093640208958C3F8E
:1029400019F40E943714F8CF9CE0980F953070F47A
:10295000845F990B21E030E001C0220F8A95EAF7ED
:1029600080916002822B8093600208958D3F31F444
:1029700080915E02816080935E0208958E3F21F413
:1029800080915E028260F7CF8F3FB9F780915E023F
:102990008460F1CF40916102803F59F480916202DE
:1029A00087FF0DC01092620241110BC010925D02B0
:1029B00008C0813F81F48091620218169CF3442381
:1029C00081F08091630290916402892B09F05AC0D2
:1029D00010925C020895823F49F447FFF0CF1092B5
:1029E0006102809162028111ECCFE0CF833F19F444
:1029F0001416ACF3E4CF90916302893F29F41916C1
:102A0000F4F610926302DBCF8A3F19F497FFD7CF19
:102A1000F8CF909164028B3F29F497FFD0CF1092AA
:102A20006402CDCF8C3F19F41916CCF3C8CF9CE0CB
:102A3000980F953090F4845F990B21E030E0B90154
:102A400002C0660F771F8A95E2F7CB0180959091BF
:102A50006002892380936002B2CF8D3F31F4809170
:102A60005E028E7F80935E02AACF8E3F21F480911A
:102A70005E028D7FF7CF8F3F09F0A1CF80915E027C
:102A80008B7FF0CF08950E9485249C019091610274
:102A900080916202982B21F030935B0220935A02BE
:102AA0009091630280916402982B21F03093590237
:102AB000209358028FE592E00E944723089586E014
:102AC000EFE5F2E0DF011D928A95E9F710925D02D1
:102AD00010925C0210925E020895FC0182818111C5
:102AE0000EC0838181110BC08481811108C091E0E7
:102AF0008581811101C090E0892F8170089581E066
:102B0000FCCFA6E0B0E0E7E8F5E10C94FF2C86E00E
:102B1000EFE5F2E0DE01119601900D928A95E1F762
:102B2000109261021092620210926302109264028B
:102B30008B819C81892B89F080915A0290915B0254
:102B40000E949D24AC0190915D029923C9F180916E
:102B500008018417150608F440C08D819E81892BD9
:102B600091F080915802909159020E949D24AC01ED
:102B700090915C02992309F471C08091040184173B
:102B8000150608F479C0BE016F5F7F4F8FE592E0B4
:102B90000E94D623811105C08FE592E00E946D1539
:102BA00081110E94431586E0FE013196AFE5B2E047
:102BB00001900D928A95E1F72696E3E00C941B2D87
:102BC000209109018AE0289F9001112424173507DC
:102BD00020F69F5F90935D0202C09F3FD1F71B815B
:102BE000112359F00E94F9139FEF11160CF491E094
:102BF000899F802D1124809361021C81112359F03B
:102C00000E94F9139FEF11160CF491E0899F802D1B
:102C100011248093620230916102332309F49DCF25
:102C200020916202222309F498CF45EB3403C001BE
:102C30001124992359F09093610245EB24039001EC
:102C40001124332339F03093620287CF81E08093DF
:102C50006102F3CF81E0809362027FCF2091050172
:102C60008AE0289F900111242417350708F08BCFA4
:102C70009F5F90935C0202C09F3FD1F71D8111239B
:102C800059F00E9437149FEF11160CF491E0899FC0
:102C9000802D1124809363021E81112359F00E941C
:102CA00037149FEF11160CF491E0899F802D1124A9
:102CB0008093640230916302332309F464CF20913E
:102CC0006402222309F45FCF45EB3403C0011124D1
:102CD000992359F09093630245EB2403900111244A
:102CE000332339F0309364024ECF81E08093630246
:102CF000F3CF81E08093640246CFEF92FF920F936F
:102D00001F93CF93DF93EB01E82FD1110EC0442323
:102D100021F0F0E0ED50FB4FE4916E2F7E2F8E2FCF
:102D2000CDB7DEB7E6E00C94182D0D2F10E0282F5C
:102D300030E0442329F02D503B4FF901249130E03D
:102D4000F6E0CF9FC0011124EFEFF0E0BF010E9439
:102D5000682CAB018C2F90E0880F991FA5E5A49FEC
:102D6000B001A59F700D1124861B970B982F990F0A
:102D7000980FBF01601B710B629FD001639FB00D64
:102D8000729FB00D11248B2F9D9FB0011124672FCE
:102D90007727EF01C61BD70BBE01629FE001639F3F
:102DA000D00D729FD00D11247F01E91AF108E09E29
:102DB000B001E19E700DF09E700D1124672F7727F2
:102DC000E61BF70BE29F8001E39F100DF29F100DB1
:102DD0001124E12F722F4230510599F048F441152A
:102DE000510569F04130510581F0EB2F8D2F07C05F
:102DF0004430510569F080F046305105B1F76E2F2F
:102E00008FCFE22F7B2F812FFACFE22F7D2FF7CFAD
:102E1000EB2F822F712FF3CF7B2F822FED2FEFCF50
:102E200041E00E947D16089508950E9410170895AC
:102E3000CF93DF93762FE901682F842F0E94151717
:102E4000798368838A83DF91CF9108954B3508F0A9
:102E50004AE50E94181708958091A002982F9E7F3E
:102E600061F4817082608093A0028091A3028B350F
:102E700018F08AE58093A30208958A34B0F3817034
:102E80008864F1CF88E090E00E94552D0895CF929C
:102E9000DF92EF92FF926B017C010E942C17B70129
:102EA000A60188E090E00E94732DFF90EF90DF90E4
:102EB000CF9008956091A0027091A1028091A2022A
:102EC0009091A3020E9447170895E0EAF2E083E0A0
:102ED000808311828FEF82838AE5838314826081ED
:102EE0007181828193810E94471708958091A00289
:102EF00080FF02C08695089580E008959091A40215
:102F0000933018F49F5F9093A402882351F060914E
:102F1000A0027091A1028091A2029091A3020E944E
:102F20004717089581E00E947E1708959091A402AA
:102F3000992319F091509093A402882351F0609145
:102F4000A0027091A1028091A2029091A3020E941E
:102F50004717089581E00E94961708958091A40272
:102F600008958093A402662351F06091A0027091AD
:102F7000A1028091A2029091A3020E944717089596
:102F800060E00E94B11708958091A1020895809198
:102F9000A20208958091A302089570E00E94A31DEB
:102FA000089560910E018091A00280FF0BC0809176
:102FB0000D0123E0829FC00111248B559D4F0E947B
:102FC000CD17089580910F019091100123E0829F09
:102FD000F0011124EB55FD4F891748F7118210823B
:102FE00012828F5F3396F8CF9091A00290FF0EC0AF
:102FF00090910F012091100133E0939FF001112473
:10300000EB55FD4F921718F00E94D1170895818358
:10301000608342839F5F3396F5CFA3E0B0E0E3E1A6
:10302000F8E10C94002D9091A00290FF0AC09E013F
:103030002F5F3F4F0E9426174B8169818A810E9432
:10304000F4172396E2E00C941C2DCF93DF93EC0150
:10305000EC81F0E0E251FC4F4491E0EAF2E0628161
:1030600081810E940D188C818F5F8C83DF91CF91BD
:103070000895CF93DF93EC01E0EAF2E043816281AF
:103080008C810E940D188C818F5F8C83DF91CF9192
:103090000895A3E0B0E0EFE4F8E10C94FE2C8C017D
:1030A0008091650281110AC09E012F5F3F4F4AE562
:1030B0006FEF0E9426178A8180936502F801648170
:1030C000613069F08091650240E0662361F040E084
:1030D000623011F44091650280E060E004C06091CC
:1030E000650240E080E00E94F417F801848190E0DE
:1030F000019663E070E00E947C2C84832396E4E0D8
:103100000C941A2DA3E0B0E0E8E8F8E10C94F92C57
:10311000082FD62EE42EC22E9091A00290FF29C037
:10312000E92FE695AE2FB0E0A256BE4F8C9180936A
:103130006F029E7F923009F59E012F5F3F4F802FD7
:103140000E9426174B8169818A810E94F41700939F
:10315000A102D092A202E092A302CC2051F0609191
:10316000A0027091A1028091A2029091A3020E94FC
:1031700047172396E9E00C94152D823019F4E0905E
:10318000A302E5CF863019F40091A102E0CF893087
:10319000D9F38931E1F6E9516E2F6170B62EE695CB
:1031A000F0E0E251FB4F1491F12C60911101F61601
:1031B00018F00E94D117CBCFF19EC001112470E00E
:1031C0000E94682C802FB11014C0860F20910F012F
:1031D000622F6F0D7727771F9B01220F331F260F5A
:1031E000371F2B553D4F4E2D6D2D0E942617F39402
:1031F000DCCF861BEBCFE0EAF2E09181282F438100
:1032000062818AE0890F0E948218089581E00E94FD
:10321000FB180895E0EAF2E09181282F4381628152
:1032200086EF890F0E948218089581E00E940A1992
:103230000895E0EAF2E0628121E1620F08F46FEFA5
:10324000282F438181810E948218089581E00E9485
:1032500019190895E0EAF2E0628121E1621B08F4A5
:1032600060E0282F438181810E948218089581E0C7
:103270000E942A190895E0EAF2E0438121E1420F19
:1032800008F44FEF282F628181810E9482180895EF
:1032900081E00E943B190895E0EAF2E0438121E1D8
:1032A000421B08F440E0282F628181810E9482182D
:1032B000089581E00E944C19089520E00E94821830
:1032C0000895EF92FF921F93CF93DF93EC0110E0EC
:1032D000EE24EA94F12C60911101161770F00E940F
:1032E000D1179A818C8190FF27C08F5F8C83DF91EB
:1032F000CF911F91FF90EF90089520910F01422FE1
:10330000410F5527551FCA019A01220F331F280F5D
:10331000391F2B553D4F70E0C7010E947C2C962F22
:103320008C814091A3026091A202199F800D11240B
:103330000E9426171F5FCFCF8150D8CFB0E0A0E00A
:10334000E4EAF9E10C94F82CFC0182810FEF80FF94
:1033500001E010E040E5A42E80911101181798F0CB
:103360000E94D11780916702013009F04FC081118E
:1033700002C080911101815080936702CDB7DEB702
:10338000EAE00C94142DC0910F01C12ED12CCC0D6C
:10339000DD2DD11DCE01880F991FC80FD91FCB5528
:1033A000DD4F198218821A8234E0E32EF12CB12C01
:1033B000809167028B0D81351CF16A2D0E945A2C79
:1033C000892F082E000C990BC816D90691F480910C
:1033D000A3028E9DA0018F9D500D112455954795F8
:1033E000559547959E016091A2028091A1020E948D
:1033F0002617B00EF1E0EF1AF108D1F61F5FACCF3F
:1034000087FFDFCF90911101890FDBCF90E001960C
:103410006091110170E00E947C2CAECF0F931F933E
:10342000CF93DF9380910F019091100123E0829F51
:10343000F0011124EB55FD4F891740F1C0E0D3E0B6
:1034400060911101C61740F10E94D11720910B0124
:1034500080916602820F8093660290910C01920F18
:1034600090930C01191654F4082E000C990B4091FE
:1034700011014150550B841795071CF0219520939D
:103480000B01DF91CF911F910F910895118210824E
:1034900012828F5F3396D0CF0C2F10E070E0C801FE
:1034A0000E947C2C20910F01820F482F50E0209128
:1034B0006602022E000C330B02171307BCF020919A
:1034C0000C01022E000C330B201731077CF08D9F6E
:1034D000900111242B553D4F4091A3026091A2020F
:1034E0008091A1020E942617CF5FAACFFA01EE0FAA
:1034F000FF1FE40FF51FEB55FD4F11821082128262
:10350000F3CFB0E0A0E0E7E8FAE10C94F62CEC0190
:103510004C81042F10E09801D8010E94C72C9B0118
:10352000AC010E94DD2C4B015C01E0E2F0E0E01B0D
:10353000F10BA5E5B0E0AC019B010E94DD2C6B0115
:103540007C019F01DF010E94BF2C9B01AC010E9406
:10355000E82C9B01AC01280D391D4A1D5B1DC701DC
:10356000B6010E94902CF22E822F90E039E23F1596
:1035700020F143E0249F9001112435952795122FC7
:10358000109500E085E5E82EEF18809111010817ED
:1035900018F10E94D1179C8181E0992319F0903293
:1035A00019F48FEF80930A0180910A01890F8C83AF
:1035B000CDB7DEB7ECE00C94122D25E530E0B90173
:1035C000681B790B9B01220F331F260F371F37FF14
:1035D000D4CF2F5F3F4FD1CF8E2D01FD8F2D209166
:1035E0000F01622F600F7727771F9B01220F331F78
:1035F000260F371F2B553D4F412F6091A2020E948D
:1036000026170F5FC2CF0F931F93CF93DF93EC0169
:1036100010E000E0909111019017110609F06CF490
:103620000E94D1178C8190E00196817099278C833C
:10363000DF91CF911F910F91089520910F01A80163
:10364000420F511D9A01220F331F240F351F2B5596
:103650003D4F4C816091A2028091A10296959017F6
:10366000110651F04CF0442349F04091A3020E940E
:1036700026170F5F1F4FCECF4423B9F340E0F7CF9B
:10368000E0EAF2E080818E7F8083608171818281B7
:1036900093810E944717109270022FEF80E792E00B
:1036A000215080409040E1F700C000000E94D117F7
:1036B0000895E0EAF2E080818E7F808310927002AC
:1036C0002FEF80E792E0215080409040E1F700C06A
:1036D00000000E94D11708956091A002669570E0E5
:1036E0004BE050E082E191E00E94332D892B19F4E8
:1036F00081E0809370020E948524909369028093F8
:10370000680208959091A00290FF2BC091708111E2
:1037100029C092609093A002662351F06091A002AC
:103720007091A1028091A2029091A3020E9447177A
:103730006091A002669570E04BE050E082E191E07C
:103740000E94332D892BA9F01092700281E08093A2
:103750006B024091A3026091A2028091A1020E949B
:103760005D190895853210F09864D4CF880F982B96
:10377000D1CF0E946C1BEACF682F9091A002969542
:1037800081E0890F853208F081E00E94821B089554
:1037900081E00E94BC1B0895682F9091A00296952D
:1037A0008FEF890F09F484E20E94821B089581E063
:1037B0000E94CC1B089561E00E94821B0895E0EAFC
:1037C000F2E080818160808386950E94DB1B0895F2
:1037D0008091A00280FF03C00E94401B08950E94B8
:1037E000DF1B089560E00E94821B089580916E02A5
:1037F00081112EC00E94FA0F811104C00E94A710EF
:103800000E9465170E9442176093A0027093A10264
:103810008093A2029093A3026E7F61F40E946517C9
:103820000E9442176093A0027093A1028093A202AB
:103830009093A3020E942C17109270028091A00214
:1038400080FF03C086950E94F21B81E080936E0288
:103850000895E0EAF2E080818160808386950E948D
:10386000F21B08950F931F93CF93DF938091700203
:103870008823B9F180916F02E091A002E695E81BE0
:10388000E0936A02823091F5F0E0E651FC4FE4915A
:10389000CE2FD0E005E218E180916B02882361F021
:1038A00010926B020E9485249093690280936802B3
:1038B00010926D0210926C020E948524E0916802C1
:1038C000F09169028E1B9F0B8F3F9F4750F4EC0FC6
:1038D000FD1FF0936902E093680288E692E0F80128
:1038E0000995DF91CF911F910F910895863049F48A
:1038F000F0E0E951FC4FE491CE2FD0E009E318E16C
:10390000CBCF893051F4E695F0E0EC51FC4FE491D7
:10391000CE2FD0E001E619E1BFCF8F3051F4E6950C
:10392000F0E0EF51FC4FE491CE2FD0E00EE919E129
:10393000B3CF853149F4F0E0E252FC4FE491CE2F51
:10394000D0E00EE01AE1A8CFC8E2D0E001E81AE129
:10395000883109F4A1CF833239F4ECEDF3E0C5915D
:10396000D49109E418E198CFC4EFD1E003E01BE162
:10397000843209F491CFC0EDD7E004E117E18CCF98
:10398000FA01811101C0FB0109950895CF93DF93DE
:10399000C82FD62F0E9476178C1748F00E947617F2
:1039A0008D1728F40E94C81BDF91CF9108958C2FAA
:1039B0000E94DB1BF9CF1F93CF93DF93EC01FB0138
:1039C000128111117EC00E940C0F8272CC3CFCE56A
:1039D000DF0709F49CC008F041C0C63CECE5DE07F7
:1039E00009F481C0D8F4C33C9CE5D90709F471C03F
:1039F00030F4C23CDC4509F469C011E062C0C43C4B
:103A00009CE5D90709F46AC045E159E166E079E12E
:103A1000C53CDC4591F70E94C01C53C0C93CFCE585
:103A2000DF0709F46AC068F4C73CECE5DE0709F477
:103A30005FC046E259E167E379E1C83CDC4559F3F0
:103A4000DCCFCA3C9CE5D90709F45CC04AEA57E1DF
:103A500062E977E1CB3CDC45F1F2CFCFC13DFCE53B
:103A6000DF0709F465C098F4CE3C9CE5D90709F45A
:103A700057C008F451C0CF3CFCE5DF0709F455C03E
:103A8000C03DDC4509F0B9CF6EE089E04BC0C43DD4
:103A90009CE5D90709F452C058F4C23DFCE5DF07A4
:103AA00009F449C0C33DDC4509F0A7CF88E135C022
:103AB000C53D9CE5D90709F444C0CD35DD4509F085
:103AC0009CCF812FDF91CF911F9108950E94E81B19
:103AD000F8CF47ED5BE168EC7BE19DCF48EC5BE123
:103AE00067ED7BE198CF46E059E165E179E193CF5D
:103AF00047E359E166E279E18ECF49E559E168E4AF
:103B000079E189CF48E459E169E579E184CF42E977
:103B100057E16AEA77E17FCF81E00E94DB1BD1CFDA
:103B200065E082E00E94C61CCCCF68E086E0FACF58
:103B300064E18FE0F7CF67E185E1F4CF62E289E1EC
:103B4000F1CF83E2EACF539A4BB1477F5BB1586024
:103B5000EFB7F8949B01220F331F260F371F280F52
:103B6000391F2817390741F4EFBF8FE594E001971B
:103B7000F1F700C000000895DC016D91CD0178E0FF
:103B80005BB9000000C067FF4BB9660F000000C0C2
:103B900000C000C04BB900C07A9591F7E2CF83E234
:103BA00090E00E944D2D813289F484E290E00E94E1
:103BB0004D2D813159F485E290E00E944D2D91E028
:103BC000833009F090E0892F8170089580E0FCCF68
:103BD000CF93C82F6FEF811161E283E290E00E94E2
:103BE000612D6FEFC11161E184E290E00E94612DCF
:103BF0006FEFC11163E085E290E00E94612DCF91EB
:103C00000895089586E290E00E944D2D682F70E09F
:103C100090E080E008950895CF93C62F0E940B1E78
:103C20006C2F86E290E00E94612DCF91089580E094
:103C30000E94E81D60E070E0CB010E940C1E0E9413
:103C40000E210E94EB2181E00E94E81D08950E9450
:103C5000011E0E94021E0E940B1E0E94CF1D811198
:103C600002C00E94171E0895CF93FB01C281CC238E
:103C700009F19C0122513F452031310520F5825147
:103C80000E94FB21C0E08C2FCF91089581E00E941B
:103C90003F0B43E062E081E00E94AD05F3CF81E09D
:103CA0000E944B0B43E062E081E00E94AD05EBCF48
:103CB00082E0F6CF8031FFE59F0789F381319F4590
:103CC000B9F3C1E0E0CF8031EFE59E07F9F2813131
:103CD0009F45C9F682E0DBCF2FEFFC0120830895DA
:103CE000CF93DF93EC0188818138A9F028F48038E4
:103CF00071F0DF91CF910895823881F08338C9F750
:103D00000E94C41789830E94C7178A83F2CF0E943A
:103D1000CA178983EECF0E947617FBCF0E94AE1799
:103D2000F8CFCF93DF93EC0188818138D9F028F464
:103D3000803869F0DF91CF9108958238F9F08338A7
:103D4000C9F70E94CA17482F6A81898108C0D981A2
:103D50000E94C717C82F0E94C4174D2F6C2F0E94B6
:103D60005D19E8CF89810E94F21B8981811103C00E
:103D70000E94591BDFCF0E94291CDCCF89810E9441
:103D8000C017D8CFEF92FF920F931F93CF93DF937B
:103D9000EC01062FDC01ED91CD01E150E33108F09B
:103DA000ACC0F0E0ED55F24D0C94B22C198289E0D4
:103DB0008A83602FCE010E947225CDB7DEB7E6E080
:103DC0000C94182D8981823069F0833071F0813034
:103DD000D9F40E9491240E94B82C6A837B838C833F
:103DE0009D83E7CF0E94021EF6CF7E01B2E0EB0E6C
:103DF000F11C10E0812F0E947C13F70181937F0159
:103E00001F5F1A30B9F7D5CF602FCE010E946C1E0C
:103E1000D0CF89818230C1F76A817B818C819D817D
:103E20000E94B82C0E940C1EC4CF4B816A818981EC
:103E30000E94D0209827892798279D838C83B9CF0B
:103E40002C813D813227232732274B816A8189814A
:103E50000E94F220AECF0E940E21ABCF0E94911E95
:103E6000A8CF0E94701EA5CF0E945A17A2CF0E9411
:103E70009C2189839ECF0E949E219827892798277D
:103E80009A83898396CF6B8170E089819A81AE0194
:103E90004C5F5F4F9827892798270E94A12189CFDF
:103EA0006B8170E089819A81AE014C5F5F4F9827EA
:103EB000892798270E94C6217CCF0E94EB2179CFC9
:103EC0000E94BD20D6CF6B8170E089819A81AE01BE
:103ED0004C5F5F4F9827892798270E94462169CF1A
:103EE0006B8170E089819A81AE014C5F5F4F9827AA
:103EF000892798270E946A215CCF8FEF888359CF4A
:103F0000CF93DF93EC01FB018281882309F433C155
:103F1000C330FDE5DF07C0F5CA3F9CE5D90730F4A3
:103F20009E0122503C4524313105B0F50E9410100D
:103F300090938B0280938A02C1318CE5D80709F4F3
:103F4000EEC008F069C0C930ECE5DE0709F4D5C061
:103F5000C8F5C5308CE5D80709F4C7C000F5C330F3
:103F6000ECE5DE0709F4B9C008F0BBC0C230DC459F
:103F700009F4ADC080918A0290918B020E941E10BC
:103F80000E94C80A80E008C0C136EDE5DE0771F284
:103F9000C53AFDE5DF0751F2DF91CF910895809199
:103FA0008A028062C7309CE5D90709F493C08091EA
:103FB0008A028061C830DC4508F48CC080918A0296
:103FC000806488C080918A028B7FCD30FCE5DF075A
:103FD00009F480C098F480918A028E7FCB309CE5F2
:103FE000D90709F477C080918A028C60CC30DC4517
:103FF00008F470C080918A028D7F6CC080918A0223
:104000008F7ECF30FCE5DF0709F464C008F47BC085
:1040100080918A028F7D5EC0CD3F9CE5D90709F46F
:104020007AC050F5C531FCE5DF0709F486C098F485
:1040300080918A02837FC3319CE5D90709F44AC085
:1040400008F471C00E94C80A90918A02892F97FBD8
:1040500087F980583FC0CB3FFCE5DF0709F449C032
:1040600008F055C080918B028160CA3FDC4509F0A1
:1040700081CF80938B027ECFC130EDE5DE0709F45E
:1040800068C0A8F4CF3F8CE5D80709F452C08091EE
:104090008B028360C115DD4560F380918B02982F00
:1040A000909591708E7F892B90FB81F9E2CFC1367C
:1040B000EDE5DE0709F451C0C53AFDE5DF0709F477
:1040C00053C0C230DD4509F055CF80E043C0809138
:1040D0008A02816080938A024DCF80918A02826039
:1040E000F9CF80918A028460F5CF80918A0288603E
:1040F000F1CF80918B028260BCCF0E94C80A809170
:104100008A028068E7CF80918A02877FE3CF80911F
:104110008B028E7FAECF80918B028D7FAACF809154
:104120008A028F7BD7CF0E94C80A80918A028F773C
:10413000D1CF80918B028C7F9CCF80918A0282FBB1
:10414000992790F921E0922790FB82F990FB83F95F
:10415000C1CF81E00E94AA100DCF90918A02892FD1
:104160008F7E94FF8061B6CF90918A02892F8E7FD7
:1041700090FF8160AFCF81E00FCF84E0089590E1A0
:10418000699FB001112450E0440F551F640F751F43
:1041900090EA899F600D711D1124CB0187960895C7
:1041A0000F931F93CF93DF938430C8F46A30B8F431
:1041B0004830A8F40E94BF208C010E944D2DC82FCA
:1041C000D0E0DC2FCC27C80101960E944D2D9E0126
:1041D000282BC901DF91CF911F910F91089590E095
:1041E00080E0F8CF0F931F93CF93DF93122F032F0D
:1041F000843078F46A3068F4483058F40E94BF2064
:10420000EC01602F0E94612D612FCE0101960E946A
:10421000612DDF91CF911F910F910895AF92BF92C1
:10422000CF92DF92EF92FF921F93CF93DF938CEAAE
:10423000C82E80E0D82ED0E07601C0E014C0F50191
:1042400025913491412F6C2F8D2F0E94F22082E016
:10425000A80EB11C1F5F183091F780E1E80EF11C29
:10426000CF5FCA3019F0570110E0E9CFDF5F80EA75
:10427000C80ED11CD43001F7DF91CF911F91FF9070
:10428000EF90DF90CF90BF90AF900895EF92FF92A4
:104290000F931F93CF93DF93EC018A017C01E60E0D
:1042A000F71ECE018796CE15DF0529F4CDB7DEB710
:1042B000E6E00C94182DC03822E0D20740F40E94AA
:1042C0004D2DF80180830F5F1F4F2196EACFF80133
:1042D0001082F9CFB0E0A0E0E0E7F1E20C94FA2C14
:1042E0007C016A018C01060F171FEC01CE01879635
:1042F000C017D10729F4CDB7DEB7E8E00C94162D2E
:10430000C03822E0D20740F4FE01EE19FF09EC0D9F
:10431000FD1D60810E94612D2196E8CF462F8430DB
:1043200040F47A3030F4683020F4672F0E94D020B7
:10433000089590E080E0089580E1089589E591E096
:104340000895EF92FF920F931F93CF93DF93EC01A9
:104350008A017C01E60EF71ECE0189559D4FCE15D0
:10436000DF0529F4CDB7DEB7E6E00C94182DC9358A
:1043700021E0D20740F40E944D2DF80180830F5FA9
:104380001F4F2196E9CFF8011082F9CFB0E0A0E0ED
:10439000ECECF1E20C94FA2C7C016A018C01060F22
:1043A000171FEC01CE0189559D4FC017D10729F485
:1043B000CDB7DEB7E8E00C94162DC93521E0D20761
:1043C00040F4FE01EE19FF09EC0DFD1D60810E9415
:1043D000612D2196E7CFCF93DF93C7EAD2E060E06B
:1043E000CE010E94612D2196C11584E0D807B9F74E
:1043F000DF91CF910895A4E0B0E0E1E0F2E20C9407
:10440000FB2CF82E8FE08F1548F18FEF93E00E9480
:104410004D2D811123C007EA12E0F11023C019824B
:104420001A821B821C82DD24D39478018FEFE81A54
:10443000F80AC8010E944D2D89831A82882371F0E1
:104440009FEF980F9330D8F48A83D9820E5F1F4F65
:10445000C7010E944D2D8B83811112C02496E7E085
:104460000C94172D011584E01807C1F3C8010E94B0
:104470004D2D811101C0FA940F5F1F4FCECF8701E0
:10448000CE0101960E940307D0CFCF93DF93EB01BB
:1044900086319C4511F50E940C0F9A81992399F061
:1044A0008A7A91E009F490E090937102811109C039
:1044B00089E20E94E40E0E944D0F80E0DF91CF91CF
:1044C000089585E3F6CF80917102811104C089E2DD
:1044D0000E94EC0EF0CF85E3FBCF81E0EFCF0F938E
:1044E0001F93CF93DF93C42FD22FFC0182818823A7
:1044F000C9F0409374020E948524909373028093C4
:10450000720280E28C0F883040F4C77081E001C0F5
:10451000880FCA95EAF70E947408DF91CF911F9126
:104520000F91089510917402141332C08091720299
:10453000909173020E949D24883C910548F5C0E249
:10454000CD0F1D17B9F080E2810F883040F417704D
:1045500081E001C0880F1A95EAF70E947B08C830F5
:1045600048F481E09D2F977001C0880F9A95EAF773
:104570000E947408802F0E946B08C83070F6D770B4
:1045800081E001C0880FDA95EAF70E947B08C5CF69
:1045900080E28C0F883008F6C77081E001C0880F78
:1045A000CA95EAF7F2CF0F939C01CB01233F4CE56C
:1045B000340759F1A8F4283DFCE53F0701F1293DF6
:1045C0004CE53407D1F1273D3C4591F406E221EE5C
:1045D00041EE67ED7CE50E946F2280E00F91089527
:1045E000253FFCE53F07E9F0B0F0263F3C45F9F0F8
:1045F000FC018281882339F110927402EFCF07E227
:1046000025EE45EE68ED7CE5E6CF06E221EE40EED4
:1046100063EF7CE5E0CF07E225EE44EE64EF7CE556
:10462000DACF06E221EE42EE65EF7CE5D4CF07E279
:1046300025EE46EE66EF7CE5CECF08E221E045EEC2
:1046400069ED7CE5C8CF81E0C9CF9093D301809319
:10465000D201089590937A02809379020895E091AF
:104660007902F0917A02309729F00190F081E02DE3
:104670000995089580E00895E0917902F0917A0219
:10468000309721F00280F381E02D09950895E091A3
:104690007902F0917A02309739F022E0DC012C9314
:1046A0000480F581E02D09950895209177023091DD
:1046B00078022817390771F0909378028093770277
:1046C000E0917902F0917A02309721F00680F7812B
:1046D000E02D0995089520917502309176022817F2
:1046E000390771F09093760280937502E091790218
:1046F000F0917A02309721F00084F185E02D099540
:1047000008959C012E5F3F4FAC01485F5F4F80E0F2
:104710002417350709F40895F90191919F01992310
:10472000B9F38F5FF5CF662349F0FC013296089606
:104730002191261729F0E817F907D1F780E00895AD
:1047400081E008959C01FC0132969FEF80E0419149
:10475000461751F09F3F19F4411101C0982F8F5F08
:104760008630A9F79F3F09F40895290F311D97FD61
:104770003A95F90162830895FC01329608962191D9
:10478000261303C0DF0111971C92E817F907B9F748
:1047900008950E94A22308950E94BC2308950296C2
:1047A00026E0FC0111922A95E9F7089546E050E0D1
:1047B0000E94402D21E0892B09F420E0822F0895EA
:1047C00008950E94E0230895811106C081E080933E
:1047D0007B020E94E123089582E0F9CF83E0809379
:1047E0007B020E94E12308950E94E423089581E062
:1047F00080937B020E94E12308950E94F72308958D
:10480000089508950E9401240895089508950E942E
:1048100000240895CF930E9405240E9495130E94BE
:104820000624C0E08C2F0E947C13811105C0CF5F4D
:10483000CA30C1F7CF91089581E0FCCF85B7806879
:1048400085BF85B7806885BF08951F921FB61F92E8
:1048500011248F939F93AF93BF9380917C0281111A
:1048600013C08091950390919603A0919703B09106
:1048700098034196A11DB11D8093950390939603D3
:10488000A0939703B0939803BF91AF919F918F919D
:104890001F901FBE1F90189580919D03843031F1A9
:1048A0000E94360610927C0288E190E020E40FB668
:1048B000F894A895809360000FBE2093600083B7A2
:1048C000817F846083BF83B7816083BF789488953C
:1048D00083B78E7F83BF0FB6F894A8958091600050
:1048E000886180936000109260000FBE08950E945E
:1048F000C80A0E943B06089582E084BD93E095BDFE
:104900009AEF97BD80936E0008952FB7F894809129
:10491000950390919603A0919703B09198032FBFB0
:1049200008952FB7F8946091950370919603809144
:104930009703909198032FBF08959C014FB7F89467
:104940008091950390919603A0919703B09198035D
:104950004FBF821B930B089578941F921FB61F922E
:1049600011248F939F93AF93BF9380919503909160
:104970009603A0919703B09198030196A11DB11DD4
:104980008093950390939603A0939703B093980315
:10499000BF91AF919F918F911F901FBE1F9018954F
:1049A00087E797E7909301088093000888E19AE0F1
:1049B0000FB6F894A895809360000FBE90936000A6
:1049C000FFCF88E19AE00FB6F894A8958093600035
:1049D0000FBE90936000FFCF8091880208950895E4
:1049E0009C0184E08093E9009FEF8091E800915062
:1049F00085FD06C085ED8A95F1F700009111F5CF90
:104A00008091E80085FF0CC050E040E066E070E077
:104A1000C9010E9484278091E8008E778093E80086
:104A20000895CF93DF93EC0181E08093E9008FEF4D
:104A30009091E800815095FD06C095ED9A95F1F7AB
:104A400000008111F5CF8091E80085FF14C050E08F
:104A500040E068E070E0CE010E9484278091E80089
:104A60008E778093E80088E0FE01A0E8B2E0019034
:104A70000D928A95E1F7DF91CF91089580937D02A1
:104A800070937F0260937E0280919D038430F9F4DD
:104A90008093E9008FEF9091E800815095FD06C06A
:104AA00095ED9A95F1F700008111F5CF8091E8001E
:104AB00085FF0DC050E040E063E070E08DE792E0DC
:104AC0000E9484278091E8008E778093E800089503
:104AD000BC0184E00E943E250895BC0183E00E9451
:104AE0003E250895CF93FC01603221F580919D030E
:104AF000843001F5C091E900CF702091EC00922F35
:104B0000917020FD90E8C92B82E08093E9008091AC
:104B1000E80080FF0CC050E040E060E270E0CF01B0
:104B20000E9484278091E8008E778093E800CF7000
:104B3000C093E900CF91089580919C03811109C031
:104B40000E9463290E94C0298091E20084608093C2
:104B5000E200089510929C0308950E94F72308959F
:104B60006091990381E0611101C080E00E94EE2311
:104B7000089590919D0381E0943009F080E0609168
:104B800099030E94F423089542E061EC81E00E94C1
:104B9000DF2842E261EC84E00E94DF2842E261EC1F
:104BA00082E00E94DF2842E260EC83E00E94DF287E
:104BB00090919D0381E0943009F080E06091990329
:104BC0000E94E423089580919F03833009F463C019
:104BD00030F48130E1F1823009F4A0C008958A30C8
:104BE00009F48CC08B3009F471C0893009F052C0CF
:104BF00080919E03813209F04DC08091A203909173
:104C0000A303009719F0029709F044C08091E800CF
:104C1000877F8093E8008091E80082FF37C0909101
:104C2000F3008091F200029731F48091F10081301D
:104C300011F0863021F48091F100809388028091F8
:104C4000E8008B778093E8000E94132923C08091AD
:104C50009E03813AF9F48091E800877F8093E80011
:104C60008091A2039091A303892B61F468E080E80E
:104C700092E070E00E9422288091E8008B77809378
:104C8000E800089560E090E080E0F3CF80919D031C
:104C90008111C1CF089580919E03813AD9F7809107
:104CA000A2039091A303892BA9F78091E800877F45
:104CB0008093E8008091E80080FFFCCF809129017B
:104CC0008093F1008091E8008E77BCCF80919E03A5
:104CD000813201F78091A2039091A303892BD1F631
:104CE0008091E800877F8093E8000E9413298091DB
:104CF000A003809329010E94C80A089580919E0311
:104D0000813241F68091E800877F8093E8000E941D
:104D100013298091A10380938902089580919E03B5
:104D2000813A09F0B7CF8091E800877F8093E8004F
:104D30008091E80080FFFCCF80918902C1CF84B7C9
:104D4000877F84BF0FB6F894A89580916000886132
:104D500080936000109260000FBE80E890E00FB674
:104D6000F89480936100909361000FBE0E94FD2330
:104D700008950E9463290E94C029E2EEF0E080813C
:104D80008460808378940E943F2C08958DE191E0A7
:104D90000E942A23089580919D03853031F48091EB
:104DA0009D03853019F00E94772408950E944C24B9
:104DB00080919B03882399F30E940A24882379F326
:104DC0000E946E270E94C80AEACFA0E2B0E0EBEE94
:104DD000F6E20C94002D80919D03843009F583E068
:104DE0008093E9008091E80082FF1AC08091E8007A
:104DF00090E085FF09C050E040E060E270E0CE0145
:104E000001960E94D32791E08091E8008B778093F0
:104E1000E800992329F060E2CE0101960E94C21EAB
:104E2000A096E2E00C941C2D0E9417270895292FCC
:104E300033272330310521F168F42130310509F49D
:104E400043C02230310509F444C090E080E030E0F6
:104E500020E026C02132310551F122323105A9F777
:104E60006330710590F7FB01EE0FFF1FEA53FE4F11
:104E7000208131816D537E4FFB01808190E010C015
:104E800099278130910581F0009729F00297E9F682
:104E9000E3EFF5E002C0EFE2F6E0849190E09F01DD
:104EA000FA01318320830895EFE0F6E0F6CF633016
:104EB000710558F6660F771FFB01E453FE4F208102
:104EC000318189E090E0ECCF82E190E02EE836E09D
:104ED000E7CF8BE590E023E336E0E2CF80E189BDC8
:104EE00082E189BD09B400FEFDCF8091D8008F7D9D
:104EF0008093D8008091E00082608093E0008091F0
:104F0000E00081FDFCCF0895AF92BF92CF92DF9277
:104F1000FF920F931F93CF93DF936C01EB018A01F4
:104F20000E943229F82E811123C00115110539F094
:104F3000F80180819181C81BD90BC80ED91EB12CF4
:104F4000A12C2097A9F08091E80085FD22C08091D6
:104F5000E8008E778093E80001151105A1F0F801B3
:104F600080819181A80EB91EB182A08285E0F82EC1
:104F70008F2DDF91CF911F910F91FF90DF90CF90F8
:104F8000BF90AF9008950E9432298823D1F2F82E65
:104F9000EFCFF60181916F018093F1002197FFEF30
:104FA000AF1ABF0ACECFAF92BF92CF92DF92FF92DD
:104FB0000F931F93CF93DF936C01EB018A010E9443
:104FC0003229F82E811123C00115110539F0F8019D
:104FD00080819181C81BD90BC80ED91EB12CA12C80
:104FE0002097A9F08091E80085FD22C08091E8001B
:104FF0008B778093E80001151105A1F0F8018081FD
:105000009181A80EB91EB182A08285E0F82E8F2D65
:10501000DF91CF911F910F91FF90DF90CF90BF90C4
:10502000AF9008950E9432298823D1F2F82EEFCF55
:105030008091F100F60181936F012197FFEFAF1A84
:10504000BF0ACECFFC018091A4039091A5038617DF
:105050009707A0F06115710529F49091E8009E77FB
:105060009093E80090E06115710551F4911108C02A
:105070008091E80082FF34C080E00895BC01F2CF47
:1050800080919D038823C1F18530C1F18091E800B2
:1050900083FD30C08091E80082FDEACF8091E80076
:1050A00080FFE1CF8091F3002091F200382F61154D
:1050B000710519F02830310558F091E0283031059C
:1050C00009F090E02091E8002E772093E800CBCF04
:1050D00081918093F100615071092F5F3F4FE7CFBD
:1050E00080919D03882341F0853041F08091E80054
:1050F00083FFBECF81E0089582E0089583E00895A4
:10510000FC018091A4039091A50386179707A0F056
:105110006115710529F48091E8008E778093E8008D
:1051200090E06115710551F4911108C08091E8007B
:1051300082FF35C080E00895BC01F2CF80919D03CD
:105140008823C9F18530C9F18091E80083FD31C021
:105150008091E80082FDEACF8091E80080FFE1CFF6
:105160008091F3002091F200382F6115710519F03C
:105170002830310558F091E02830310509F090E0F1
:105180008091E8008E778093E800CBCF8491809364
:10519000F1003196615071092F5F3F4FE6CF80914A
:1051A0009D03882341F0853041F08091E80083FF22
:1051B000BDCF81E0089582E0089583E00895982F9F
:1051C000973028F08F708093E90081E008959093E4
:1051D000E900242F762F50E0981731F07091EC0001
:1051E0002091ED005091F00021FD02C09F5FE8CFBB
:1051F0003091EB003E7F3093EB003091ED003D7F2E
:105200003093ED003091EB0031603093EB00709300
:10521000EC002093ED005093F0002091EE0027FD6C
:10522000E5CF80E0089580919E0387FF13C08091B1
:10523000E80082FF06C08091E8008B778093E80049
:1052400004C080919D038111F2CF089580919D0348
:105250008823D9F38091E80080FFF8CF8091E8009F
:105260008E77ECCF2091E4003091E50095E6A9011E
:105270002091EC00822F817020FF06C08091E80011
:1052800080FF06C080E008952091E80022FD1AC04A
:1052900080919D03882389F0853089F08091EB000F
:1052A00085FD0FC02091E4003091E50042175307BF
:1052B000F9F29150E1F684E0089582E0089583E0E8
:1052C000089581E008950E94D2290E94DA29E0EE33
:1052D000F0E0808181608083E8EDF0E080818F776D
:1052E000808319BCA7EDB0E08C918E7F8C93808178
:1052F0008F7E808310929C0308950F931F93CF930A
:10530000DF930E94D2290E94DA29C8EDD0E088817B
:105310008F77888388818068888388818F7D888360
:1053200019BC10929D031092990310929B03109246
:105330009A0300EE10E0F80180818B7F80838881E2
:105340008160888342E060E080E00E94DF28E1EE37
:10535000F0E080818E7F8083E2EEF0E080818160EA
:105360008083808188608083F80180818E7F808344
:10537000888180618883DF91CF911F910F9108957B
:10538000E8EDF0E080818F7E8083E7EDF0E08081C2
:105390008160808384E082BF81E080939C030E94CF
:1053A0007D290895E8EDF0E080818E7F8083109262
:1053B000E20008951092DA001092E10008951F9221
:1053C0000F920FB60F9211242F933F934F935F9339
:1053D0006F937F938F939F93AF93BF93EF93FF93BD
:1053E0008091E10082FF0BC08091E20082FF07C044
:1053F0008091E1008B7F8093E1000E943E2C8091A0
:10540000DA0080FF19C08091D80080FF15C080911C
:10541000DA008E7F8093DA008091D90080FF96C0F9
:1054200080E189BD82E189BD09B400FEFDCF81E044
:1054300080939D030E949C258091E10080FF19C00C
:105440008091E20080FF15C08091E2008E7F809302
:10545000E2008091E20080618093E2008091D800B8
:1054600080628093D80019BC85E080939D030E94E0
:10547000B0258091E10084FF2BC08091E20084FF81
:1054800027C080E189BD82E189BD89B5982F9170DF
:1054900080FFFBCF8091D8008F7D8093D8008091D2
:1054A000E1008F7E8093E1008091E2008F7E809307
:1054B000E2008091E20081608093E2008091990394
:1054C000882309F449C084E080939D030E94B92594
:1054D0008091E10083FF29C08091E20083FF25C015
:1054E0008091E100877F8093E10082E080939D03BB
:1054F000109299038091E1008E7F8093E10080916A
:10550000E2008E7F8093E2008091E20080618093D0
:10551000E20042E060E080E00E94DF288091F0003D
:1055200088608093F0000E94AD25FF91EF91BF91BC
:10553000AF919F918F917F916F915F914F913F912B
:105540002F910F900FBE0F901F90189519BC1092BD
:105550009D030E94AA2570CF8091E30087FD93E010
:1055600090939D03B3CF1F920F920FB60F92112409
:105570002F933F934F935F936F937F938F939F935B
:10558000AF93BF93CF93DF93EF93FF93D091E90055
:10559000DF708091EC00C82FC17080FDC0E81092D0
:1055A000E9008091F000877F8093F00078940E945A
:1055B000F72A1092E9008091F00088608093F00053
:1055C000CD2BCF70C093E900FF91EF91DF91CF9188
:1055D000BF91AF919F918F917F916F915F914F910B
:1055E0003F912F910F900FBE0F901F901895AAE238
:1055F000B0E0EDEFFAE20C94FF2C8EE993E02091FD
:10560000F100FC012193CF01F3E0863A9F07B9F73F
:105610000E94E3258091E80083FF1EC180919E03D4
:1056200090919F039A3008F017C1E92FF0E0EA54F7
:10563000F24D0C94B22C803899F0823809F00CC1EC
:105640008091A2038F70873008F006C18093E90033
:105650008091EB0085FB882780F91092E90006C055
:1056600080919A0390919B03911182609091E80040
:10567000977F9093E8008093F1001092F100809161
:10568000E8008E77E5C0882309F4D3C0823009F0A2
:10569000E3C08091A0038111D6C08091A2038F70D6
:1056A0002FEF280F263008F0D7C08093E900209113
:1056B000EB0020FFC8C0933031F48091EB00806292
:1056C0008093EB00C0C09091EB0090619093EB0051
:1056D00021E030E001C0220F8A95EAF72093EA002A
:1056E0001092EA008091EB008860EACF8111B4C08B
:1056F0001091A0031F778091E3008078812B809325
:10570000E3008091E800877F8093E8000E941329DE
:105710008091E80080FFFCCF8091E3008068809357
:10572000E30082E0111183E080939D0395C08058CF
:10573000823008F091C08091A0039091A1038C3D2C
:1057400023E09207A1F583E08A838AE289834FB739
:10575000F894DE01139620E03EE051E2E32FF0E002
:1057600050935700E49120FF03C0E295EF703F5F34
:10577000EF708E2F90E0EA30C0F0C7968D939D9326
:105780002F5F243159F74FBF8091E800877F8093C6
:10579000E8006AE270E0CE0101960E942228809122
:1057A000E8008B778093E80057C0C096E7CF609100
:1057B000A2037091A303AE014F5F5F4F0E941427B5
:1057C000BC01892B09F448C09091E800977F909321
:1057D000E80089819A810E948028E1CF8038E1F534
:1057E0008091E800877F8093E800809199038093FF
:1057F000F10045CF811130C09091A003923060F547
:105800008091E800877F8093E800909399030E943D
:10581000132980919903882311F084E005C08091B9
:10582000E30087FDFACF81E080939D030E94C425A9
:1058300013C08091A003813079F481E0933009F0A6
:1058400080E080939B031092E9008091E800877FBD
:105850008093E8000E9413298091E80083FF0AC02A
:105860008091E800877F8093E8008091EB00806260
:105870008093EB00AA96E3E00C941B2D0895CF9340
:1058800080919D038823A1F0C091E900CF70909191
:10589000EC00892F817090FD80E8C82B1092E90000
:1058A0008091E80083FD0E94F72ACF70C093E90041
:1058B000CF91089587FB082E062687FD819567FD09
:1058C00061950E94272D0EF4919507FC819508950E
:1058D000AA1BBB1B51E107C0AA1FBB1FA617B70716
:1058E00010F0A61BB70B881F991F5A95A9F7809532
:1058F0009095BC01CD01089597FB072E16F40094F6
:1059000007D077FD09D00E94682C07FC05D03EF433
:10591000909581959F4F0895709561957F4F08955B
:10592000A1E21A2EAA1BBB1BFD010DC0AA1FBB1FA3
:10593000EE1FFF1FA217B307E407F50720F0A21B15
:10594000B30BE40BF50B661F771F881F991F1A9482
:1059500069F760957095809590959B01AC01BD01AC
:10596000CF010895EE0FFF1F0590F491E02D0994EB
:1059700069279627692778278727782708950E941F
:10598000C72C332312F48A1B9B0B0C94D82CA29F98
:10599000B001B39FC001A39F700D811D1124911D03
:1059A000B29F700D811D1124911D08950E94C72C76
:1059B000B7FF0895821B930B08950E94C72CA59FE3
:1059C000900DB49F900DA49F800D911D11240895FA
:1059D000B7FF0C94DD2C0E94DD2C821B930B0895E5
:1059E0002F923F924F925F926F927F928F929F92EF
:1059F000AF92BF92CF92DF92EF92FF920F931F93DD
:105A0000CF93DF93CDB7DEB7CA1BDB0B0FB6F8948D
:105A1000DEBF0FBECDBF09942A88398848885F84CD
:105A20006E847D848C849B84AA84B984C884DF803E
:105A3000EE80FD800C811B81AA81B981CE0FD11D22
:105A40000FB6F894DEBF0FBECDBFED010895991BD0
:105A500079E004C0991F961708F0961B881F7A9565
:105A6000C9F780950895FC014150504030F00190F5
:105A70000616D1F73197CF01089588279927089501
:105A8000FB01DC0104C08D910190801921F441508B
:105A90005040C8F7881B990B0895F999FECF92BD25
:105AA00081BDF89A992780B50895A6E1B0E044E059
:105AB00050E00C94872DA8E1B0E042E050E00C9457
:105AC000872D262FF999FECF92BD81BDF89A0197B7
:105AD00000B4021639F01FBA20BD0FB6F894FA9A36
