:100000000C94EA040C9407050C9407050C9407055E
:100010000C9407050C9407050C9407050C94070530
:100020000C9407050C9407050C9435120C942B17AF
:100030000C9490260C9407050C9407050C94070566
:100040000C9407050C9407050C9407050C94070500
:100050000C9407050C940E130C9407050C940705DB
:100060000C9407050C9407050C9407050C940705E0
:100070000C9407050C9407050C9407050C940705D0
:100080000C9407050C9407050C9407050C940705C0
:100090000C9407050C9407050C9407050C940705B0
:1000A0000C9407050C9407050C940705050109023B
:1000B000A10185020901A1000509190129081500FE
:1000C0002501950875018102050109300931158165
:1000D000257F95027508810609381581257F9501D0
:1000E00075088106050C0A38021581257F95017572
:1000F000088106C0C005010980A101850319012AF4
:10010000B700150126B700950175108100C0050CD8
:100110000901A101850419012AA002150126A002E6
:10012000950175108100C00660FF0961A101096297
:10013000150026FF00952075088102096315002629
:10014000FF00952075089102C005010906A101056F
:100150000719E029E7150025019508750181029529
:1001600001750881010507190029FF150026FF0008
:100170009506750881000508190129059505750181
:100180009102950175039101C0000000000000007C
:10019000000000000000000000000000000000005F
:1001A000000000000000000000000000007E0F00C2
:1001B000D4FFFFFFC700000078000000000000002F
:1001C000002A2B28000000000000000000000000B2
:1001D0000000000029000000002C1E3420212224F1
:1001E000342627252E362D3738271E1F202122237F
:1001F0002425263333362E37381F04050607080911
:100200000A0B0C0D0E0F10111213141516171819D6
:100210001A1B1C1D2F3130232D3504050607080934
:100220000A0B0C0D0E0F10111213141516171819B6
:100230001A1B1C1D2F3130354C00DA0281FFD9F119
:10024000DB20A4A62EAF00A0C000A1C800AED580C0
:10025000A81FD300408D1420001E0F0564321464C3
:100260003214783C1E1E140A050000000000000035
:100270000080C0C0C0C0C0F8C0C0C0C0C0C0800046
:10028000000000000000000000000000000000006E
:1002900080C060303018FF1F08CCFE0C08081830F2
:1002A00070C0800000000000000000000000003E60
:1002B0007F41C04060607FFE0F0360C0C0C0C0606F
:1002C000703F0F0000000000000000000000000070
:1002D000000000C0F8808080800000000000000066
:1002E000000000000000000000000000000000010D
:1002F0000101C1FF03010109090C0C0C0C2C3C1C71
:1003000008000000000000000000000000000000E5
:1003100000707F0300001F3060404040404060603C
:10032000301808000000000000000000000000007D
:1003300000000000001818101030B0B0E0E04000DD
:1003400000000000000000000000000000000000AD
:1003500000F0FF636030301010101010302060C0CB
:10036000800000000000000000000000000000000D
:1003700000010060C08080808080808080C06070CC
:100380001F06000000000000000000000000000048
:100390000000000000E07801010101000000000001
:1003A000000000000000000000000000000000004D
:1003B0000000E0788F838080000000000010306033
:1003C000C00000000000000000000000000000C0AD
:1003D000781F0F07030100010F3C7060C0C0C0C050
:1003E000733F0000000000000000000000000060FB
:1003F0006060606060202020202020A0E0E060603D
:10040000602000000000000000000000000000006C
:100410000000000000C0F0380C06030101000000DD
:1004200000000000000000000000000000000000CC
:1004300000000000000F3C7060C0C0C0C0C0406041
:1004400060303000000000000000000000000000EC
:10045000000000000000000000000000000000009C
:100460000000000000000000000001010101010186
:10047000010101020202020202020202030303035B
:10048000030303030404040404040405050505052B
:1004900006060606060707070707080808080909E9
:1004A00009090A0A0A0B0B0B0C0C0C0D0D0D0E0E94
:1004B0000E0F0F0F10101111111212131314141527
:1004C0001516161717181819191A1A1B1B1C1D1D9B
:1004D0001E1E1F20202122222324242526262728F1
:1004E00029292A2B2C2D2D2E2F3031323233343521
:1004F000363738393A3B3C3D3E3F40414243444524
:10050000464748494A4C4D4E4F5051535455565802
:10051000595A5B5D5E5F616264656668696B6C6DAC
:100520006F7072737577787A7B7D7E808283858722
:10053000888A8C8E8F91939596989A9C9EA0A2A360
:10054000A5A7A9ABADAFB1B3B5B7BABCBEC0C2C465
:10055000C6C9CBCDCFD1D4D6D8DBDDDFE2E4E7E925
:10056000EBEEF0F3F5F8FAFDFFFFAA7F55402223EA
:10057000252628292A2C2D2F3032333536383A3B80
:100580003D3E4042434547494A4C4E5051535557D2
:10059000595A5C5E6062646668696B6D6F717375F1
:1005A00077797B7D7F81838587898A8C8E909294F1
:1005B00096989A9C9E9FA1A3A5A7A8AAACAEAFB1FE
:1005C000B3B4B6B8B9BBBCBEBFC1C2C3C5C6C7C948
:1005D000CACBCCCDCED0D1D2D2D3D4D5D6D7D7D802
:1005E000D9D9DADADBDBDBDCDCDCDCDCDDDDDDDD54
:1005F000DCDCDCDCDCDBDBDBDADAD9D9D8D7D7D65C
:10060000D5D4D3D2D2D1D0CECDCCCBCAC9C7C6C512
:10061000C3C2C1BFBEBCBBB9B8B6B4B3B1AFAEAC58
:10062000AAA8A7A5A3A19F9E9C9A98969492908E03
:100630008C8A89878583817F7D7B79777573716FDC
:100640006D6B6968666462605E5C5A5957555351B8
:10065000504E4C4A4947454342403E3D3B3A38366E
:10066000353332302F2D2C2A29282625232200AF7E
:1006700000AE290014001A000800150017002F0012
:100680002B0004001600070009000A003400E100F6
:100690001D001B000600190005003300E000E30008
:1006A0004B00E20091002C002A0000004A004E009E
:1006B0004D00A900AA00A80030001C0018000C0082
:1006C000120013002A0031000B000D000E000F0075
:1006D0002D002800350011001000360037003800CA
:1006E000E50028002C009000E60052006500015152
:1006F000000000000000500051004F000000010009
:100700003A003B003C003D003E003F00010001007C
:1007100001000100010001000100010001000100D1
:1007200001000100010001000100010001000100C1
:1007300001000100010000000100010001000100B2
:100740000100010040004100420043004400450018
:100750000100010001000100010001000100010091
:100760000100010001000100010001000100010081
:100770000100010001000100010001000000000073
:100780000000010001000100000001000100010063
:100790000100010001000100010001000100010051
:1007A0000100010001000100010001000100010041
:1007B0000100010001000100010001000100010031
:1007C0000100000001000100010001000100010022
:1007D0000100010001000100010001000100010011
:1007E0000100010001000100010001000100010001
:1007F00001000100010001000100010001000100F1
:1008000001000100010001000000000000000100E3
:1008100001000100000001000100010001000100D1
:1008200001000100010001000100010001000100C0
:1008300001000100010001000100010001000100B0
:1008400001000100010001000100010001000000A1
:100850000100010001000100010001000100010090
:100860000100010001000100010001000100010080
:100870000100010001000100010001000100010070
:100880000100010001000100010001000100010060
:100890000100010000000000000001000100010053
:1008A0000000010001000100010001000100010041
:1008B0000100010001000100010001000100010030
:1008C0000100010001000100010001000100010020
:1008D000010001000100B35DB15D000001000100F5
:1008E0000100010001000100010001000100010000
:1008F00001000100010001000100010001000100F0
:1009000001000100010001000100010001000100DF
:100910000100B25DB45D01000100010001000100B1
:1009200000000000000001000100010000000902B9
:100930005B00030100A0FA090400000103010100AB
:10094000092111010001224000070581030800016F
:100950000904010002030000000921110100012225
:100960002200070582032000010705030320000180
:100970000904020001030000000921110100012205
:100980007B00070584032000011201000200000023
:1009900008BA7C2CA6010001020001120341007478
:1009A0000061006C0061006E007400650000001EB4
:1009B000034E0069006E007400680053006B0079FC
:1009C00000530074007500640069006F00000004AB
:1009D0000309040011241FBECFEFDAE0DEBFCDBF54
:1009E00025E0A4EBB1E001C01D92AA34B207E1F703
:1009F00011E0A0E0B1E0EEE1F6E602C005900D9254
:100A0000A43BB107D9F70E94B7260C94E4320C94AA
:100A10000000E8EDF0E080818E7F80831092E2009C
:100A20001092DA001092E100A0EEB0E08C918160AB
:100A30008C9380818F77808319BCA7EDB0E08C9177
:100A40008E7F8C9380818F7E808310922F050895F6
:100A50002091E4003091E50095E6A9012091EC0099
:100A6000822F817020FF06C08091E80080FF06C0C1
:100A700080E008952091E80022FD1AC080913C0595
:100A8000882389F0853089F08091EB0085FD0FC0C7
:100A90002091E4003091E50042175307F9F291509C
:100AA000E1F684E0089582E0089583E0089581E00E
:100AB0000895EF92FF920F931F93CF937C018B01C8
:100AC0000E942805C82F811117C08091E80085FD7C
:100AD0000BC08091E8008E778093E8000E94280583
:100AE000882399F3C82F08C0F70181917F01809373
:100AF000F1000150110949F78C2FCF911F910F91EF
:100B0000FF90EF90089580913E0587FF13C080917C
:100B1000E80082FF06C08091E8008B778093E800B0
:100B200004C080913C058111F2CF089580913C056D
:100B30008823D9F38091E80080FFF8CF8091E80006
:100B40008E77ECCF982F9093E900242F762F50E0EA
:100B5000891731F07091EC002091ED005091F00078
:100B600021FD07C09F5F973071F78093E90081E016
:100B700008953091EB003E7F3093EB003091ED0013
:100B80003D7F3093ED003091EB0031603093EB000E
:100B90007093EC002093ED005093F0002091EE0054
:100BA00027FDE0CF80E00895B0E0A0E0EAEDF5E0B9
:100BB0000C94C52FC8EDD0E088818F7E8883E7ED47
:100BC000F0E080818160808384E082BF81E0809357
:100BD0002F0588818E7F888302EE10E0F801108255
:100BE0001092DA0081EEC82ED12CF6011082888195
:100BF0008F77888388818068888388818F7D8883C8
:100C000019BC10923C0510923D0510923B051092C4
:100C10003A0590EEE92EF12CF70180818B7F8083DD
:100C200088818160888342E060E080E00E94A205C4
:100C3000F60180818E7F8083F801808181608083CE
:100C4000808188608083F70180818E7F80838881A6
:100C500080618883CDB7DEB7E8E00C94E12FFC011A
:100C6000809144059091450586179707A0F061157E
:100C7000710529F49091E8009E779093E80090E048
:100C80006115710551F4911108C08091E80082FF4F
:100C900034C080E00895BC01F2CF80913C058823E8
:100CA000C1F18530C1F18091E80083FD30C08091B1
:100CB000E80082FDEACF8091E80080FFE1CF8091DB
:100CC000F3002091F200382F6115710519F02830DA
:100CD000310558F091E02830310509F090E020917D
:100CE000E8002E772093E800CBCF81918093F1002C
:100CF000615071092F5F3F4FE7CF80913C058823FA
:100D000041F0853041F08091E80083FFBECF81E063
:100D1000089582E0089583E0089508958091310553
:100D2000089587E797E7909301088093000888E18A
:100D30009AE00FB6F894A895809360000FBE909348
:100D40006000FFCF2FB7F8946091280570912905B6
:100D500080912A0590912B052FBF0895209125059C
:100D6000309126052817390771F090932605809356
:100D70002505E0912305F0912405309721F00084AA
:100D8000F185E02D099508952091210530912205E6
:100D90002817390771F09093220580932105E0917F
:100DA0002305F0912405309721F00680F781E02D8E
:100DB00009950895E0912305F0912405309739F0C5
:100DC00022E0DC012C930480F581E02D0995089543
:100DD000E0912305F0912405309729F00190F081EE
:100DE000E02D0995089580E00895FA01811101C070
:100DF000FB0109950895089580911605982F9E7F0F
:100E000061F481708260809316058091190589379D
:100E100018F088E78093190508958A34B0F381703B
:100E20008864F1CFAF92BF92DF92EF92FF920F935F
:100E30001F93CF93DF93082F162FE901E42FF0E0E3
:100E4000E759FB4F611110C0E4915E2F4E2F49838B
:100E5000E8835A83DF91CF911F910F91FF90EF901C
:100E6000DF90BF90AF900895E62EF12C4491D42EE0
:100E7000E42FF0E026E0829FC00111242FEF30E044
:100E8000B9010E94A72F802F90E0880F991F55E588
:100E9000569FD001579FB00D11248A1B9B0B982F92
:100EA000990F890F5901AE18BF08AE9ED001AF9EB1
:100EB000B00DBE9EB00D11245B2F189F8001112430
:100EC000012F11275901A01AB10AAE9E8001AF9ED1
:100ED000100DBE9E100D11245901A81AB108AE9C28
:100EE000C001AF9C900DBE9C900D1124892F9927B5
:100EF000281B390B2E9FC0012F9F900D3E9F900DF8
:100F00001124E92F62307105A1F050F461157105CB
:100F100009F49DCF6130710581F0EB2F512F97CFF0
:100F20006430710569F080F06630710509F48FCF87
:100F3000F4CFE42F4B2F592F8ACFE42F412F87CFA7
:100F4000EB2F542F492F83CF4B2F5D2DE12F7FCFD8
:100F50004091A004803F59F48091A10487FF0DC007
:100F60001092A10441110BC01092730408C0813F7C
:100F700081F48091A10418169CF3442381F08091A0
:100F8000A2049091A304892B09F05AC01092720414
:100F90000895823F49F447FFF0CF1092A00480915A
:100FA000A1048111ECCFE0CF833F19F41416ACF308
:100FB000E4CF9091A204893F29F41916F4F6109217
:100FC000A204DBCF8A3F19F497FFD7CFF8CF9091D7
:100FD000A3048B3F29F497FFD0CF1092A304CDCF69
:100FE0008C3F19F41916CCF3C8CF9CE0980F9530BC
:100FF00090F4845F990B21E030E0B90102C0660FE4
:10100000771F8A95E2F7CB01809590919F04892301
:1010100080939F04B2CF8D3F31F4809174048E7F12
:1010200080937404AACF8E3F21F4809174048D7F45
:10103000F7CF8F3F09F0A1CF809174048B7FF0CF61
:1010400008958091740480FD16C081FD16C082FD54
:1010500016C0809172048823A1F0883280F428E0C1
:10106000829FC001112468E270E00E940C30862F3C
:10107000672B39F0089582E0089584E0089588E0B0
:10108000089581E008958091740480FD14C081FD6D
:1010900014C082FD16C080917304882381F08E31C4
:1010A00080F420E5829FC00111246EE170E00E946F
:1010B0000C30862F089584E1089588E2089588E031
:1010C000089580E50895803F31F40E94430881959A
:1010D0008093A1040895813F19F40E944308F8CF3A
:1010E000823F31F40E94430881958093A0040895C3
:1010F000833F19F40E944308F8CF893F29F40E94E6
:1011000021088093A20408958A3F21F40E942108B7
:101110008195F7CF8B3F31F40E9421088195809310
:10112000A30408958C3F19F40E942108F8CF9CE095
:10113000980F953070F4845F990B21E030E001C086
:10114000220F8A95EAF780919F04822B80939F0457
:1011500008958D3F31F4809174048160809374040C
:1011600008958E3F21F4809174048260F7CF8F3F01
:10117000B9F7809174048460F1CF80E00895909174
:101180002C0292FF06C0282F28712830F9F4877F9F
:10119000846093FF06C0282F28712831F1F4877EE0
:1011A000846120912D0220FF06C0382F387138301D
:1011B000D9F4877F816021FF06C0282F287128314C
:1011C000D1F4877E816194FD877E0895282F247154
:1011D0002430F9F68B7F8860DCCF282F24712431EE
:1011E00001F78B7E8861DDCF382F3171313019F7EF
:1011F0008E7F8860E0CF282F2171213121F78E7EEC
:101200008861E1CFCF93DF93EC0182389105B1F192
:1012100008F040C08133910509F49DC048F589323A
:10122000910509F48DC08A9709F49CC0C11521E588
:10123000D20708F0C3C0C11530E5D30708F01EC1BE
:10124000C83ED10508F0A3C0C03ED10588F5C83A14
:10125000D10508F08EC0C53AD10508F007C1C130EC
:10126000D10531F1209721F1C430D10508F545C0F1
:101270008533910509F45FC0C997C1F680912C02AE
:10128000837009F043C180912D0283FF11C0C9E230
:10129000D0E00EC0833E910599F170F4803E910537
:1012A00001F1823E910511F680912C0282FD21C050
:1012B000CE01DF91CF910895863E910561F1873E81
:1012C000910571F1843E910509F0B0CF80912D0216
:1012D00081FFEECF80912C02C7EED0E084FD0DC0DF
:1012E000E7CF80912C0280FD33C090912D0290FFBA
:1012F000DFCFC3EED0E084FFDBCFD0E0C0E0D8CFBB
:1013000080912C0282FDFFC090912D0290FDFEC0C5
:1013100084FFCECFF2CF80912C0283FDDDCFC8CFEA
:1013200080912C0283FDF5C090912D0291FFF0CFAA
:10133000C4EED0E0BDCF80912C0285FFB9CFA7CFFE
:1013400080912C0285FDE8C080912D0283FFB0CFF3
:10135000C9E3D0E0ADCF80912C0286FFA9CFCAE2CD
:10136000D0E0A6CF80912C0286FFA2CFC1E3D0E0CF
:101370009FCFCF3BD10508F6C85AD0E0CC0FDD1F78
:10138000C85DDE4F0990D881C02DD46491CFC115BE
:1013900040E2D40758F4C11581E0D80708F088CF9F
:1013A000C03FD10508F4A9CFD06582CFC11520E494
:1013B000D20708F4A2CFDF70D06A7ACFC11535E525
:1013C000D30718F5C11544E5D40708F084C0C1154A
:1013D00083E5D80708F06BC0C11522E5D20708F4F1
:1013E00061C0CE018370992721E030E002C0220F56
:1013F000331F8A95E2F7C695C69580E2C89FE00143
:101400001124C22BD32BDC6853CFC11539E5D30788
:10141000A8F4C11548E5D40708F062C0C11586E5F7
:10142000D80708F06ACF8C2F0E94BF08C82FD0E0E1
:10143000DC2FCC27CC27DF71D0623ACFC1152AE54B
:10144000D20708F452C0CE0190568115904208F0A0
:1014500054CF8D2F8F710E94BF0890E0982F88275E
:1014600088279F719C012C2BE901E6CFC55AD0E05B
:10147000CB5DDE4FC881D0E0D0641ACFCE0183703F
:10148000992721E030E002C0220F331F8A95E2F74E
:10149000C695C69540E2C49FE0011124C22BD32B10
:1014A000DD6806CFDC2FCC27C16FD06A01CFCE011B
:1014B0008370992721E030E002C0220F331F8A9504
:1014C000E2F7C695C69540E2C49FE0011124C22B05
:1014D000D32BDA68EDCEDC2FCC27C46FD06AE8CEF0
:1014E000DC2FCC27C06FD06AE3CE8C2F8F700E9488
:1014F000BF0834E0D695C7953A95E1F7CF709C2F99
:10150000EC01D069D5CEC2EED0E0D2CEC0EED0E0B4
:10151000CFCEC6EED0E0CCCEC5E3D0E0C9CE809130
:101520001D02811110921D020895809590911C0258
:10153000982390931C020895E8EBF1E091918913B0
:1015400003C0DF0111971C9291E0EE3BF907B1F760
:101550000895A8EBB1E0EFEF90E02D91821751F0E4
:10156000EF3F19F4211101C0E92F9F5F9630A9F7D1
:10157000EF3F09F408950E2E000CFF0BEA54FE4FC6
:1015800082830895809111029091E001981301C027
:1015900008958F5F8770FACF292F9A3078F58730BA
:1015A00068F590E037E0239F800D911D1124682F8E
:1015B000677023E0969587952A95E1F7FC01EE0F79
:1015C000FF1FE80FF91FE154FE4F50E040E080E0BC
:1015D000219130E0062E02C0369527950A94E2F755
:1015E00021703327042E01C0220F0A94EAF7822BC0
:1015F0004F5F5F4F4330510559F7089580E00895DC
:10160000292F9A3098F5873088F590E037E0239FAE
:10161000800D911D1124282F277041E001C0440F37
:101620002A95EAF723E0969587952A95E1F7FC013C
:10163000EE0FFF1FE80FF91FE154FE4F30E020E0EE
:1016400070E05191DF011197CB01022E02C09695F7
:1016500087950A94E2F781708195852784238527F1
:101660008C932F5F3F4F2330310559F70895B0E039
:10167000A0E0EDE3FBE00C94C52F6C017B0164E678
:1016800070E088E70E94322EEC0197FD12C010E056
:1016900000E0F601E00FF11F849164E670E00E9423
:1016A0009E2EEC01892B29F40F5F1F4F0E151F058D
:1016B00081F70E94A32FCE01CDB7DEB7E8E00C94EE
:1016C000E12F80911F0590912005911103C091E0B9
:1016D00089270895882369F062E070E080E796E04A
:1016E0000E94370B892B19F080911F0508951092E5
:1016F0001F0580911F05EBCFCF93C0911F058091EF
:1017000020058823D1F00E94A206605A75418F4FB0
:101710009F4F60931B0570931C0580931D0590934C
:101720001E05C11108C062E070E08EE696E00E94DE
:10173000370B892B29F0C0911F058C2FCF9108956D
:1017400081E080931F05F7CF80932C0570932E05C1
:1017500060932D0580913C058430F9F48093E90075
:101760008FEF9091E800815095FD06C095ED9A9518
:10177000F1F700008111F5CF8091E80085FF0DC0E1
:1017800050E040E063E070E08CE295E00E94590593
:101790008091E8008E778093E8000895BC0184E092
:1017A0000E94A40B0895BC0183E00E94A40B08953D
:1017B0009C0184E08093E9009FEF8091E8009150C4
:1017C00085FD06C085ED8A95F1F700009111F5CFF2
:1017D0008091E80085FF0CC050E040E066E070E0DA
:1017E000C9010E9459058091E8008E778093E80036
:1017F0000895CF93DF93EC0181E08093E9008FEFB0
:101800009091E800815095FD06C095ED9A95F1F70D
:1018100000008111F5CF8091E80085FF14C050E0F1
:1018200040E068E070E0CE010E9459058091E80038
:101830008E778093E80088E0FE01A2E3B5E0019096
:101840000D928A95E1F7DF91CF9108958091160569
:1018500080FD0AC0EEEBF4E0118210821282339612
:1018600054E0EF3DF507C1F7539A3BB1377F2BB1F9
:1018700028604FB7F8948EEB94E0FC015191CF01B2
:1018800068E02BB9000000C057FF3BB9550F0000BE
:1018900000C000C000C03BB900C06A9591F7F4E0F9
:1018A0008F3D9F0751F74FBF8FE594E00197F1F708
:1018B00000C000000895B0E0A0E0E1E6FCE00C9478
:1018C000C42FFC018281DD24DA9480FD02C0DD2476
:1018D000D3940EEB14E0D0E0C0E02BE0B22EF80180
:1018E00011821082128294E0E92EF12CC12C809199
:1018F000BD048C0D8C30DCF16B2D0E94FE2F892FE6
:10190000082E000C990B8C179D07A9F480911905DE
:101910008E9DA0018F9D500D11245595479555958D
:101920004795493708F048E798016091180580917C
:1019300017050E941207CD0CF1E0EF1AF108B9F675
:1019400021960D5F1F4FCB30D10549F60E94260C22
:101950008091BD0491E0D91210C081110CC08AE0C1
:101960008093BD04CDB7DEB7E9E00C94E02F87FF8C
:10197000C7CF855FC5CF8150F3CF90E00196BE0100
:101980000E940C30EDCFEF92FF921F93CF93DF9325
:10199000EC018EEBE82E84E0F82E10E04091190562
:1019A000493708F048E78C81970160911805810F4D
:1019B0000E941207195E83E0E80EF11C1D3F71F7CB
:1019C0000E94260C9A818C8190FF08C08F5F8C83C7
:1019D000DF91CF911F91FF90EF9008958150F7CF45
:1019E0009091160590FF0CC0EEEBF4E081836083CC
:1019F0004283339694E0EF3DF907C1F70E94260C2D
:101A00000895A3E0B0E0E7E0FDE00C94CB2F9091C7
:101A1000160590FF0DC0493708F048E79E012F5F7B
:101A20003F4F0E9412074B8169818A810E94F00C0E
:101A30002396E2E00C94E72FCF93DF93EC01E6E1ED
:101A4000F5E0438162818C810E94010D8C818F5F62
:101A50008C83DF91CF910895CF93DF93EC01EC81DC
:101A6000F0E0E259FA4F4491E6E1F5E062818181CC
:101A70000E94010D8C818F5F8C83DF91CF9108953F
:101A8000CF93DF93C3EED2E060E0CE010E94B73087
:101A90002196C11584E0D807B9F7DF91CF91089559
:101AA0001F93CF93DF93122F8530E0F46A30D0F488
:101AB0004730C0F4C42FD0E0CC0FDD1F9EE0699FFB
:101AC000C00DD11D11249CE8899FC00DD11D11248A
:101AD000632FCE0187960E94B730612FCE01889682
:101AE0000E94B730DF91CF911F910895AF92BF92BE
:101AF000CF92DF92EF92FF921F93CF93DF9382E713
:101B0000C82E86E0D82ED0E07601C0E014C0F501E2
:101B100025913491412F6C2F8D2F0E94500D82E022
:101B2000A80EB11C1F5F173091F78EE0E80EF11C74
:101B3000CF5FCA3019F0570110E0E9CFDF5F8CE8C2
:101B4000C80ED11CD53001F7DF91CF911F91FF90C6
:101B5000EF90DF90CF90BF90AF900895CF93C82FB4
:101B60006FEF811163E283E290E00E94B7306FEF84
:101B7000C11164E084E290E00E94B7306FEFC111C0
:101B800069E085E290E00E94B730CF91089580E04F
:101B90000E94AE0D60E086E290E00E94B7300E94A5
:101BA000760D0E94400D81E00E94AE0D08950F93C6
:101BB0001F93CF93DF93853030F56A3020F547309F
:101BC00010F5C42FD0E0CC0FDD1F2EE0629FC00DBA
:101BD000D11D11243CE8839FC00DD11D1124CE01DD
:101BE00087960E94A330082F10E0102F0027CE0107
:101BF00088960E94A3309801282BC901DF91CF91CC
:101C00001F910F91089590E080E0F8CF462F853026
:101C100040F47A3030F4673020F4672F0E94D70DFB
:101C2000089590E080E00895CF92DF92FF920F93A5
:101C30001F93CF93DF936C010091490580911E02A1
:101C4000082BC7E0D0E010E0FC2EC8010C2E02C02B
:101C5000959587950A94E2F780FD0CC02197A0F72F
:101C6000F12C8F2DDF91CF911F910F91FF90DF907D
:101C7000CF900895B6018C2F0E94060E0E94020993
:101C8000019761F3EECFCF93DF93EC010E94140E26
:101C9000BE010E94060E0E940209DF91CF910895B5
:101CA000FC0183819481892B29F080819181892392
:101CB0008F3F51F480E00895843FE1F717C0883EDC
:101CC000A8F0813FB9F712C0808191810E94430E34
:101CD00092959F70963099F358F4925F9F7092306E
:101CE00048F7803F19F040F7883E20F781E00895DB
:101CF0009A5FF4CF83E290E00E94A330833289F4AC
:101D000084E290E00E94A330843059F485E290E0B0
:101D10000E94A33091E0893009F090E0892F817012
:101D2000089580E0FCCFCF9384E090E00E94A33040
:101D3000C82F82E290E00E94A330982F8C2FCF9181
:101D40000895B0E0A0E0E7EAFEE00C94BD2FFC01AE
:101D50006280448081E08483EEE6F5E07490EDEEED
:101D6000F5E0E491CFEDD4E03EEBE32E34E0F32E4A
:101D700046E1C42E45E0D42E52E0A52EBB24B394F8
:101D800088248A94912C55245A94E7190E2F10E038
:101D900082E0861530F080911705888380911805C0
:101DA0008983411019C01B821A824A81493708F081
:101DB00048E79701698188810E941207259683E090
:101DC000E80EF11CCC16DD0619F70E94260CCDB7E3
:101DD000DEB7E0E10C94D92F8B818823E9F08150A4
:101DE0008B83859DC00111246C8170E00E94A72F18
:101DF000FB01FF27E259FA4F8491E82FE719E59D8F
:101E0000C0011124B8010E94A72F80911905689F75
:101E1000B00111247A83C9CF0E947930209119052D
:101E2000269521582A9DA0012B9D500D1124452F48
:101E30005527841795070CF0B8CF82E0861588F4F3
:101E40000E947930B4010E940C3088830E9479305E
:101E5000209118052695622F70E00E940C30280F03
:101E600029831A8280911905893C20F088EC8C83A3
:101E70008B839BCF8431D8F784E1F9CFCF92DF9267
:101E8000EF92FF926B017C010E94FC06B701A60154
:101E900088E090E00E94C930FF90EF90DF90CF90F3
:101EA0000895A3E0B0E0E7E5FFE00C94BE2FE82E34
:101EB000762EF42E622E9091160590FF2EC0E92FFB
:101EC000E695AE2FB0E0A158BE4F8C918093BB0435
:101ED0009E7F923031F588E7841708F448E79E0129
:101EE0002F5F3F4F672D8E2D0E9412074B81698116
:101EF0008A810E94F00CE092170570921805F0920A
:101F00001905662051F060911605709117058091B2
:101F10001805909119050E943E0F2396EFE00C944E
:101F2000DA2F823019F4F0901905E5CF863019F4D4
:101F3000E0901705E0CF8930D9F38531E1F6E5511E
:101F40009E2F9170592EE695F0E0E759FA4FE491F3
:101F50000E2F10E08EEBC82E84E0D82EB12CA12CD1
:101F60009BE0892E912CC501B4010E94A72F8E2DD4
:101F7000511017C0860F4F2D98E79F1508F448E7BA
:101F80009601672D0E941207A00EB11E83E0C80EB5
:101F9000D11C9FEDC91694E0D90629F70E94260CA2
:101FA000AACF861BE8CFE6E1F5E0438121E1421BA1
:101FB00008F440E021E0628181810E94510F089580
:101FC000E6E1F5E0438121E1420F08F44FEF21E023
:101FD000628181810E94510F0895E6E1F5E06281FE
:101FE00021E1621B08F460E021E0438181810E94CD
:101FF000510F0895E6E1F5E0628121E1620F08F4F6
:102000006FEF21E0438181810E94510F0895E6E145
:10201000F5E0818121E0438162818A500E94510F65
:102020000895E6E1F5E0818121E043816281865FE8
:102030000E94510F089580911A05882319F081504C
:1020400080931A0560911605709117058091180507
:10205000909119050E943E0F089580911A058330D2
:1020600018F48F5F80931A0560911605709117051B
:1020700080911805909119050E943E0F0895E6E1A0
:10208000F5E083E0808311828FEF828388E783838A
:10209000148260817181828193810E943E0F089534
:1020A000A4E0B0E0E6E5F0E10C94C92F0E942C2EEC
:1020B00019821A821B821C8204E610E024E030E0C0
:1020C000AE014F5F5F4F60E084E10E94332F2496A2
:1020D000E4E00C94E52FA1E1B0E0E1E7F0E10C943D
:1020E000C62F4C87888B998BE52ED62EF72EAE0106
:1020F000495F5F4F85E0FA0111928A95E9F7809177
:10210000B4048A3008F077C004E610E025E030E03F
:1021100064E084E10E945A2F892B09F0BBC0109221
:10212000B4048B8587FDB1C0E894E0F88091B204D7
:102130009091B304009709F0A2C08F819885891708
:1021400008F071C0981B892F21E040911701509130
:102150001801889FC0011124849FB001859F700DD4
:10216000949F700D1124660F672F661F770B719572
:10217000222319F07195619571098091B0049091B5
:10218000B104680F791F29858A85281708F04EC089
:10219000821B282FE1E0229F90011124249FC0017F
:1021A000259F900D349F900D1124880F892F881F33
:1021B000990B9195EE2319F09195819591092091B4
:1021C000AE043091AF04820F931F603871058CF11B
:1021D0006F5771097093B1046093B0043FE7D32E39
:1021E00080389105CCF18F5791099093AF0480937B
:1021F000AE049FE7F92EED86DE86FF8686E0FE01BF
:102200003C96DE01119601900D928A95E1F72981A5
:102210003A814B815C816D817E8180E090E06196A6
:10222000E7E00C94E22F891B20E08FCF281BE0E031
:10223000B2CF6038FFEF7F074CF461587F4F709347
:10224000B1046093B00420E8D22ECACFD62E1092EB
:10225000B1041092B004C4CF80382FEF92074CF431
:1022600081589F4F9093AF048093AE0480E8F82E7E
:10227000C2CFF82E1092AF041092AE04BCCF0197DB
:102280009093B3048093B204B6CF6894E0F884E1ED
:1022900090E0F6CF8091B4048F5F8093B404ABCF0D
:1022A00046E050E069E774E084EA94E00E949630EA
:1022B000892B21F084EA94E00E94DA061092A604A9
:1022C0001092A7041092A8041092A90486E0E4EAF0
:1022D000F4E0A9E7B4E001900D928A95E1F7089542
:1022E00080911C0290911B02892B8093B6019091E2
:1022F0001D02992391F0892B8093B60120E088EB91
:1023000091E0FC013191CF0131112F5FF1E08E3B63
:102310009F07B9F721110E948F0A48E050E063E15E
:1023200072E086EB91E00E949630892BA9F088E05C
:10233000E6EBF1E0A3E1B2E001900D928A95E1F7BE
:10234000E0912305F0912405309731F00280F3816C
:10235000E02D86EB91E009950895882321F00E94F5
:10236000950A0E9470110895882339F090911C02FB
:10237000982B90931C020E947011089568EE7EEFD6
:1023800090E080E00E94D53060E082E090E00E9422
:10239000B73060E083E090E00E94B73010921E02F8
:1023A00060E084E090E00E94B73064E082E290E078
:1023B0000E94B73060E085E090E00E94B73060E0B6
:1023C00086E090E00E94B7306FEF87E090E00E94D7
:1023D000B73040E050E0BA0188E090E00E94C93098
:1023E00060E08DE090E00E94B73040E050E0BA013C
:1023F00088E190E00E94C93060E087E190E00E94AF
:10240000B73040E050E0BA018CE190E00E94C93062
:1024100070E060E080E290E00E94D53040E050E063
:10242000BA0188E190E00E94C93080E00E94AE0DC0
:102430000E94C70D40E050E0BA018FE090E00E949A
:10244000C93040E050E0BA0183E190E00E94C93019
:10245000089590E080E00E94B130883E9E4F19F4CC
:102460000E947A0E089580E008951F920F920FB691
:102470000F9211242F933F934F935F936F937F930A
:102480008F939F93AF93BF93EF93FF938091E1005E
:1024900082FF09C08091E20082FF05C08091E100C7
:1024A0008B7F8093E1008091DA0080FF24C08091CF
:1024B000D80080FF20C08091DA008E7F8093DA0000
:1024C0008091D90080FF9DC080E189BD82E189BDF6
:1024D00009B400FEFDCF81E080933C0580912F057B
:1024E000811109C00E9409050E94D4058091E20073
:1024F00084608093E2008091E10080FF17C08091AA
:10250000E20080FF13C08091E2008E7F8093E200A2
:102510008091E20080618093E2008091D800806227
:102520008093D80019BC85E080933C058091E10040
:1025300084FF2BC08091E20084FF27C080E189BD29
:1025400082E189BD89B5982F917080FFFBCF809182
:10255000D8008F7D8093D8008091E1008F7E80939A
:10256000E1008091E2008F7E8093E2008091E200A2
:1025700081608093E20080913D05882309F447C083
:1025800084E080933C0580913C058091E10083FFCD
:1025900027C08091E20083FF23C08091E100877F04
:1025A0008093E10082E080933C0510923D0580918C
:1025B000E1008E7F8093E1008091E2008E7F809326
:1025C000E2008091E20080618093E20042E060E0FE
:1025D00080E00E94A2058091F00088608093F00066
:1025E000FF91EF91BF91AF919F918F917F916F91EB
:1025F0005F914F913F912F910F900FBE0F901F90C1
:10260000189519BC10923C0510922F0574CF80913B
:10261000E30087FD93E090933C05B5CF78941F923B
:102620001FB61F9211248F939F93AF93BF938091F6
:10263000280590912905A0912A05B0912B050196B6
:10264000A11DB11D8093280590932905A0932A050B
:10265000B0932B05BF91AF919F918F911F901FBE9B
:102660001F9018959C014FB7F89480912805909180
:102670002905A0912A05B0912B054FBF821B930B12
:1026800008952FB7F8948091280590912905A0917D
:102690002A05B0912B052FBF08959091160590FF44
:1026A0002CC0917081112AC0926090931605662308
:1026B00051F0609116057091170580911805909161
:1026C00019050E943E0F60911605669570E04BE07B
:1026D00050E089E191E00E948930892BB1F010929D
:1026E000BC0481E08093B80420E04091190560911A
:1026F0001805809117050E94510F0895853210F03A
:102700009864D3CF880F982BD0CF81E08093BC04FE
:102710000E9441139093B6048093B504E2CF809158
:1027200016058695815009F484E261E00E944D13FC
:1027300008958091160586958F5F853208F081E0B7
:1027400061E00E944D1308959091160590FF08C016
:102750009695981728F0961718F40E9499130895E3
:1027600061E00E944D1308950E9441139C019091D5
:10277000A0048091A104982B21F030937804209339
:1027800077049091A2048091A304982B21F03093B8
:102790007604209375048EE994E00E94DA06089589
:1027A00090E080E00E94C40690E080E00E94AE06C7
:1027B00010921B020E94701186E0EEE9F4E0DF0146
:1027C0001D928A95E9F71092730410927204109288
:1027D00074040E94B4130895809349050E94D01395
:1027E000089580914905982F9670963021F488605D
:1027F0000E94EC130895877FFBCF21E030E001C0F9
:10280000220F8A95EAF720958091490582230E943C
:10281000EC130895909112028095892380931202FF
:10282000282F277091F4282F082E000C330B9217B5
:10283000130659F090912D0292FF07C0859585955A
:1028400085950E94FD13109212020895CF93C091B6
:102850002D02C2FB992790F9981791F080FBC2F9DD
:10286000C0932D0260912C0284E090E00E94B7306A
:102870006C2F82E290E00E94B73082E00E940A143E
:10288000CF9108951092870484E00E94FD13109266
:102890008204109281041092800410927F040895A3
:1028A00021E030E001C0220F8A95EAF780914905C6
:1028B000822B0E94EC13089580931E020E94D01375
:1028C000089510921C02E8EBF1E086E0DF011D9212
:1028D0008A95E9F70E94D0130895AAE2B0E0E3E7F1
:1028E000F4E10C94CA2F8EE395E02091F100DC0115
:1028F0002D93CD01B5E086349B07B9F780913F0554
:10290000833009F472C0B8F4813009F449C08230D0
:1029100009F4B3C08091E80083FF8BC280913E052B
:1029200090913F059A3008F084C2E92FF0E0EA5117
:10293000FD4C0C9420308A3009F48EC08B3009F4A1
:1029400071C0893039F780913E05813219F7809145
:10295000420590914305009711F00297D9F68091B6
:10296000E800877F8093E8008091E80082FF38C00C
:102970009091F3008091F200029731F48091F10080
:10298000813011F0863021F48091F100809331057F
:102990008091E8008B778093E8000E948305BACF8E
:1029A00080913E05813A09F0B5CF8091E800877F9C
:1029B0008093E8008091420590914305892B61F452
:1029C00068E082E395E070E00E942F068091E800C5
:1029D0008B778093E8009ECF60E090E080E0F3CFBB
:1029E00080913C058111C0CF95CF80913E05813A01
:1029F00009F090CF8091420590914305892B09F011
:102A000089CF8091E800877F8093E8008091E8007B
:102A100080FFFCCF809124018093F1008091E80039
:102A20008E77B9CF80913E05813209F073CF8091C6
:102A3000420590914305892B09F06CCF8091E80005
:102A4000877F8093E8000E948305809140058093F2
:102A500024010E9461145ECF80913E05813209F00D
:102A600059CF8091E800877F8093E8000E9483051A
:102A700080914105809330054DCF80913E05813A8C
:102A800009F048CF8091E800877F8093E80080912B
:102A9000E80080FFFCCF80913005BECF803899F0F0
:102AA000823809F0C6C1809142058F70873008F0E6
:102AB000C0C18093E9008091EB0085FB882780F9F5
:102AC0001092E90006C080913A0590913B05911162
:102AD00082609091E800977F9093E8008093F100E6
:102AE0001092F1008091E8008E779FC1882309F44D
:102AF0008DC1823009F09DC180914005811190C146
:102B0000809142058F702FEF280F263008F091C179
:102B10008093E9002091EB0020FF82C1933031F4D3
:102B20008091EB0080628093EB007AC19091EB0082
:102B300090619093EB0021E030E001C0220F8A9574
:102B4000EAF72093EA001092EA008091EB00886097
:102B5000EACF81116EC1109140051F778091E3008B
:102B60008078812B8093E3008091E800877F8093B9
:102B7000E8000E9483058091E80080FFFCCF8091EF
:102B8000E30080688093E30082E0111183E080938A
:102B90003C054FC18058823008F04BC12091400560
:102BA000309141052C3DE3E03E07A1F583E08A83A7
:102BB0008AE289834FB7F894DE01139620E03EE065
:102BC00051E2E32FF0E050935700E49120FF03C05F
:102BD000E295EF703F5FEF708E2F90E0EA30C0F02B
:102BE000C7968D939D932F5F243159F74FBF8091E6
:102BF000E800877F8093E8006AE270E0CE010196EA
:102C00000E942F068091E8008B778093E80011C125
:102C1000C096E7CF8091420590914305432F5527F9
:102C20004330510509F44AC078F54130510509F4A3
:102C30007AC08BE590E0EEE2F9E04230510509F010
:102C4000F8C02091E800277F2093E80020914405F8
:102C5000309145058217930708F49C0140E0211547
:102C6000310509F065C0411163C08091E80082FD23
:102C7000C9CF80913C05882329F2853019F28091D3
:102C8000E80083FFF2CFBECF4132510509F43CC0CA
:102C90004232510509F0CDC08330910508F0C9C01A
:102CA000FC01EE0FFF1FE955FE4F0190F081E02D72
:102CB0008C559E4FDC018C9190E01AC03327213057
:102CC0003105D1F02115310561F02230310509F0CF
:102CD000B0C0EBE9F9E0E4918E2F90E0EBE9F9E088
:102CE00007C0EFECF9E0E4918E2F90E0EFECF9E013
:102CF000009709F49EC0A5CFEFEAF9E0E4918E2F8A
:102D000090E0EFEAF9E0F4CF8330910508F091C04C
:102D1000880F991FFC01E355FE4F0190F081E02DD3
:102D200089E090E08ECF82E190E0E9E8F9E089CF98
:102D300080913C05882309F465CF853009F462CF82
:102D40008091E80083FD5ECF8091E80082FD8DCF09
:102D50008091E80080FF83CF9091F3008091F20092
:102D60002115310519F08830910550F041E00897A0
:102D700009F040E08091E8008E778093E8006FCF03
:102D800044914093F1003196215031090196E8CFEA
:102D9000803809F04EC08091E800877F8093E8007A
:102DA00080913D058093F1009DCE811142C010912C
:102DB00040051230F0F58091E800877F8093E800AD
:102DC00010933D050E948305112311F084E005C096
:102DD0008091E30087FDFACF81E080933C0542E0DB
:102DE00061EC81E00E94A20542E261EC84E00E9475
:102DF000A20542E261EC82E00E94A20542E260ECA0
:102E000083E00E94A20580913C0513C0809140059B
:102E1000813079F481E0933009F080E080933B05C4
:102E20001092E9008091E800877F8093E8000E947B
:102E300083058091E80083FF0AC08091E800877FC6
:102E40008093E8008091EB0080628093EB00AA966B
:102E5000E3E00C94E62F1F920F920FB60F9211240D
:102E60002F933F934F935F936F937F938F939F9392
:102E7000AF93BF93CF93DF93EF93FF93D091E9008C
:102E8000DF708091EC00C82FC17080FDC0E8109207
:102E9000E9008091F000877F8093F00078940E9491
:102EA0006D141092E9008091F00088608093F0002A
:102EB000CD2BCF70C093E900FF91EF91DF91CF91BF
:102EC000BF91AF919F918F917F916F915F914F9142
:102ED0003F912F910F900FBE0F901F9018950E9459
:102EE00061142FEF84E39CE0215080409040E1F793
:102EF00000C0000088E19AE00FB6F894A89580938E
:102F000060000FBE90936000FFCF882309F455C086
:102F1000823879F40E94E80681FF4FC089E30E945D
:102F2000A90A0E94701189E30E949C0A0E947011F4
:102F30000895833859F40E94E80680FF3EC083E577
:102F40000E94A90A0E94701183E5EECF843859F4DB
:102F50000E94E80682FF31C087E40E94A90A0E940D
:102F6000701187E4E1CF9CEF980F913AE8F290E27C
:102F7000980F983050F4877091E001C0990F8A95AE
:102F8000EAF7892F0E94950AD1CF9BE5980F9330DD
:102F900028F490E080E00E94C406089598E5980F18
:102FA000973128F490E080E00E94AE060895803FBB
:102FB00020F00E94A8070E94B4130895CF93C82F51
:102FC0008823C9F08238C9F40E94E80681FD13C045
:102FD00089E30E94A90A0E9470112FEF87EE93E007
:102FE000215080409040E1F700C0000089E30E943A
:102FF0009C0A0E947011CF9108958338A1F40E9419
:10300000E80680FDF8CF83E50E94A90A0E947011AE
:103010002FEF81EE94E0215080409040E1F700C016
:10302000000083E5E4CF8438A1F40E94E80682FD25
:10303000E2CF87E40E94A90A0E9470112FEF81EE6F
:1030400094E0215080409040E1F700C0000087E408
:10305000CECF8CEF8C0F813A68F4E8EBF1E08191F0
:10306000C817E1F121E0EE3BF207C9F78C2F0E946F
:10307000A90ABFCF80E28C0F883068F4C77021E0C6
:1030800030E001C0220FCA95EAF780911C02822B22
:1030900080931C02AECFEBE5EC0FE33040F4F0E0A0
:1030A000EB5DFE4F808190E00E94C406A4CFE8E56E
:1030B000EC0FE73150F4F0E0EE0FFF1FE85DFE4F3C
:1030C000808191810E94AE0696CFC03F08F493CFD5
:1030D0008C2F0E9463080E94B4138DCF8C2F0E9406
:1030E0009C0A0E947011C2CF1F93CF93DF93182FB9
:1030F000D0E0C0E0893311F4C0E5D0E0812F0E9418
:10310000DE17209739F4812F0E948517DF91CF9128
:103110001F9108958FE99FE00197F1F700C000002B
:103120002197EFCF0F931F93CF93DF93C62FD42F09
:10313000022FFC0182818823A9F0609348050E9438
:1031400041139093470580934605C77081E001C005
:10315000880FCA95EAF70E94B411DF91CF911F91B1
:103160000F91089580914805681332C080914605FB
:10317000909147050E943213883C910548F510E272
:103180001D0FCD17B9F080E28C0F883040F4C77066
:1031900081E001C0880FCA95EAF70E94AD1118308E
:1031A00048F481E09D2F977001C0880F9A95EAF747
:1031B0000E94B411802F0E947418183070F6D770D6
:1031C00081E001C0880FDA95EAF70E94AD11C5CF02
:1031D000C77081E001C0880FCA95EAF7F6CF2F9239
:1031E0003F925F926F927F928F929F92AF92BF9227
:1031F000CF92DF92EF92FF920F931F93CF93DF93C3
:1032000082E2282E82E0382E97E2A92E92E0B92E93
:1032100006E511E0912CEE24E394F12CE101799084
:103220001E01DE011E92F80181918F01E82FE295C7
:10323000EF70F0E091A18F70B70101C0660F8A9521
:10324000EAF7892F862B81A382A1862E809488217C
:1032500082A380EA8A95F1F740E651E06A0130E006
:1032600020E0E60159906E01852D82958F7090E0E7
:10327000EC0188A16C9090E0D52DDF7002C095958F
:103280008795DA95E2F780FDB6C08E2D022E01C03B
:10329000880F0A94EAF786298C932F5F3F4F2730D7
:1032A0003105F9F681A1882281A282A1682B62A34F
:1032B00081E09C91971101C080E0982AA214B30488
:1032C00009F0ACCF30E020E061E070E0ABE5B1E0C8
:1032D000FA018191AF01E82FE295EF70F0E0C1A112
:1032E0008F708B0102C0000F111F8A95E2F7C80191
:1032F0009C2F982B91A392A18095892382A310EAF9
:103300001A95F1F7CB01022E01C0880F0A94EAF753
:10331000B82E882E809407E212E0C6E5D1E0E12CB9
:10332000F801F1908F01A9908A2D82958F7090E01D
:10333000FC0180A1C82ED12CEA2DEF7002C0D594DB
:10334000C794EA95E2F7C8010197DB2CDF28C0FE9D
:1033500002C0D82CDF20FC01D0828081F81611F049
:10336000EE24E394AC17BD07D9F6FA0131978081BA
:10337000E82FE295EF70F0E011A18F70EB0101C032
:10338000CC0F8A95EAF79C2F9095912391A382A167
:103390008C2B82A39E282F5F3F4F2730310509F0E9
:1033A00097CF992051F181E0809321020E9441132F
:1033B0009093200280931F0280911F02909120021F
:1033C0000E9432130597E8F04AE050E062E272E0B2
:1033D00088E694E00E949630892B31F18AE0E2E29F
:1033E000F2E0A8E6B4E001900D928A95E1F781E061
:1033F0001092210207C080E04ECF809121028111FE
:10340000DBCF80E0DF91CF911F910F91FF90EF9084
:10341000DF90CF90BF90AF909F908F907F906F90F4
:103420005F903F902F90089580E0E2CF84E00E946B
:1034300050140E944113909386048093850482E087
:10344000809387040895AEE1B0E0E9E2FAE10C94DC
:10345000C12F4091AA045091AB046091AC047091CB
:10346000AD042FB7F8948091280590912905A0917B
:103470002A05B0912B052FBF481759076A077B070C
:1034800009F470C20E94A2066093AA047093AB0470
:103490008093AC049093AD044091A4045091A50492
:1034A0006091A6047091A7048091A8049091A9044A
:1034B0000E946B102093A4043093A5044093A604AB
:1034C0005093A7046093A8047093A90486E0E4EAEB
:1034D000F4E0DE01179601900D928A95E1F7809154
:1034E000A6041091A704082F019519870A8796E072
:1034F000FE013796DE011D9601900D929A95E1F737
:1035000096E0FE013D96DE01119601900D929A958E
:10351000E1F796E0FE013196A4EAB4E001900D9245
:103520009A95E1F796E0E4EAF4E0DE01599601901D
:103530000D929A95E1F796E0FE017996DE011796D5
:1035400001900D929A95E1F790919D04911112C00E
:10355000812B09F488C081E080939D0410929C0423
:1035600010929B0410929A0410929904109298045D
:103570001092970420919B0430919C04210F311DDF
:1035800017FD3A9530939C0420939B0480919904F5
:1035900090919A04800F911D07FD9A9590939A043B
:1035A0008093990440919704509198044F5F5F4F26
:1035B00050939804409397044E3151050CF453C036
:1035C0001092930410929404109295041092960411
:1035D000790137FF04C0EE24FF24E21AF30A6C01DC
:1035E00097FF04C0CC24DD24C81AD90A41E0EC14AA
:1035F000FD040CF040E040939204B6016E0D7F1D77
:10360000E5E0E69FA001E79F500D1124509391043F
:10361000409390044FEF5FEF37FD02C041E050E070
:1036200050938F0440938E044FEF5FEF97FD02C0DD
:1036300041E050E050938D0440938C04EC14FD0461
:103640000CF0A2C0232B09F081C0109288041092C4
:10365000890410928A0410928B0410929D04109297
:10366000980410929704E0909004F090910460E028
:1036700090E01E141F040CF04AC020918804309181
:10368000890440918A0450918B0460919304709155
:10369000940480919504909196040E944F314B01BF
:1036A0005C0120E030E040E85FE30E94BB3287FF2E
:1036B0007CC08092930490929404A0929504B0925E
:1036C000960480919204882309F480C000918C04B0
:1036D00020E030E040E85FE3C501B4010E94BB3266
:1036E00087FF10918E04C7016AE070E00E940C30E1
:1036F0006F5F7F4F169F902D1124069F602D112420
:1037000021E0E21AF108F0929104E0929004092F6E
:10371000092E000C110BE62E062E000CFF088091DE
:103720008704692B09F432C1823009F48BC008F098
:103730005CC0813009F41EC10E944113909386043D
:103740008093850481E08093870482C0B701FF0CD9
:10375000880B990B0E942F324B015C01B6010D2C96
:10376000000C880B990B0E942F329B01AC01C50104
:10377000B4010E94BB3160938804709389048093E4
:103780008A0490938B0469CF892B09F45ECFB6012C
:103790000D2C000C880B990B0E942F324B015C0101
:1037A000B701FF0C880B990BDECF20E030E040E83A
:1037B0005FE3C501B4010E944E316093930470939E
:1037C000940480939504909396047BCF10918E047B
:1037D00020E030E040E85FE3C501B4010E94BB3265
:1037E00087FD81CF00918C047ECF8330A1F184309E
:1037F00009F0A2CFC701F7FE04C0882799278E19C8
:103800009F09880F991F980117FF04C022273327AB
:10381000201B310B281739070CF042C0809181041E
:1038200090918204E80EF91E30E0F7FED2C082EEDD
:10383000E8168FEFF8067CF1F0928204E0928104A2
:1038400080E041C00E9441139093860480938504D8
:1038500060E020E04EC0C701F7FE04C0882799272A
:103860008E199F09980117FF04C022273327201BB8
:10387000310B280F391F8091830490918404821B9F
:10388000930B90938404809383041816190604F70D
:1038900060E020E02AC04EE1E40EF11C325EC5CFAC
:1038A00080917F0490918004080F191F80E017FF1A
:1038B0009AC0023E9FEF19070CF458C01093800481
:1038C00000937F0430E0082E000C990BEEE1F0E04D
:1038D000BF010E940C30262F432F552741950CF431
:1038E0005095CA01BF010E940C30F12CE12C10E070
:1038F00000E00987EA866B872C8786E0FE01379611
:10390000DE01119601900D928A95E1F786E0FE01A5
:103910003196DE01539601900D928A95E1F786E08B
:10392000FE017396DE01179601900D928A95E1F7DC
:1039300086E0FE013796A4EAB4E001900D928A95E4
:10394000E1F786E0EEE9F4E0DE01179601900D92D2
:103950008A95E1F78091A5049885892B8093A50429
:103960000E9450116E96ECE00C94DD2F025E1F4F0A
:10397000825E9DCF80918504909186040E943213CF
:103980000B9708F465CF0E94161A62CF823051F06F
:1039900028F48130A1F0109287047ACF853008F4A2
:1039A00077CFF9CF80918504909186040E943213DD
:1039B000893E934008F46CCF0E94421469CF8091F5
:1039C0008504909186040E943213C39708F460CF57
:1039D000E2CF8FE1E816F1040CF42ECF5EE1E51A98
:1039E000F1083E5122CF0F3111050CF467CF0E5173
:1039F00011098E515CCFA2E1B0E0E1E0FDE10C9451
:103A0000BC2F8C01FC0183819481892B31F0808152
:103A1000918189238F3F09F061C66296E1E10C94A0
:103A2000D82F0E94140EF82E682F89819A810E9447
:103A3000000B69817A818F2D0E94060E7C01F801AE
:103A40003281332309F43CC682519F45409708F0E8
:103A5000F6C58FEF93E00E94A330811128C0FEEEDF
:103A6000EF0E53EE852E52E0952EE11032C01C82EF
:103A70001B82442443944AE0342E74018FEFE81AE9
:103A8000F80AC4010E94A33089831A82882379F03E
:103A90009FEF980F933058F58A83498292E0890E00
:103AA000911CC7010E94A3308B83811121C080919A
:103AB0001202877009F4B1CFF8018281882309F4DA
:103AC000ACCF80912D0282FFA8CF82E00E940A1421
:103AD000A4CF811424E0920651F3C4010E94A330C4
:103AE000811101C0EA943FEF831A930ABECF4701C8
:103AF000FE0131967F01F7012081222309F4BDCF19
:103B0000213009F047C091818281913031F4F2E097
:103B1000EF0EF11C0E94741807C0923049F422E0A5
:103B2000E20EF11C0E94DE173FEFE31AF30AE3CF27
:103B3000933031F432E0E30EF11C0E948517F4CF8C
:103B4000943021F08FEFE81AF80AEECF92E0E90EF8
:103B5000F11C30E020E0B7016F5F7F4FF70141813A
:103B60008053990B8A30910550F021503109E0F2D1
:103B70008FE99FE00197F1F700C00000F6CF329E79
:103B8000F001339EF00D11249C012E0F3F1F842F56
:103B90007B01E1CFE22FF0E0E754FE4F5490822FFB
:103BA00086958695869590E0FC01E755FE4F6490DA
:103BB0002770712C022E02C0759467940A94E2F764
:103BC000E1E06E227724FC01E756FE4FA490B12C71
:103BD000022E02C0B594A7940A94E2F7F1E0AF2256
:103BE000BB24FC01E757FE4FC490D12C02C0D594F2
:103BF000C7942A95E2F721E0C222DD246114710402
:103C000019F081EE0E94DE17A114B10419F086EEBE
:103C10000E94DE17852D0E947418A114B10419F0BA
:103C200086EE0E9485176114710419F081EE0E94DE
:103C30008517C114D10409F477CF8CE26BCF81E0F2
:103C40000E9450140E94F11332CF81E00E94FD13B4
:103C5000F9CF82E0F5CF86E0E4EAF4E0DE011D96DC
:103C600001900D928A95E1F786E0FE013D96DE0116
:103C7000179601900D928A95E1F72E85F1EBEF1AD8
:103C8000FDE5FF0A81E090E00E2C01C0880F0A9448
:103C9000EAF7332309F1F22EF82A83E080938704B0
:103CA0008EE190E09093840480938304F88686E00C
:103CB000FE013796DE01119601900D928A95E1F78B
:103CC00086E0FE013196A4EAB4E001900D928A9557
:103CD000E1F70E945011EBCE8095F82EF2220E945F
:103CE000161AE4CF332321F084E080938704DFCEDB
:103CF0000E94161ADCCEF5EFEF16FCE5FF0609F47C
:103D00006EC008F468C027E245EE66EE36EFE316B3
:103D10003CE5F30609F4D0C4F8018281882309F454
:103D2000EEC410924805F3E0EF16FDE5FF0608F03B
:103D30005DC02AEFE2162CE5F20630F4C70182508E
:103D40009C45449708F05FC00E94930E90932D020B
:103D500080932C02E2E1EE16ECE5FE0609F472C156
:103D600008F0B0C029E0E2162CE5F20609F448C1DB
:103D700008F073C085E0E8168CE5F80609F430C158
:103D800008F05DC0E3E0EE16ECE5FE0609F420C1A4
:103D900008F022C180912C02816022E0E2162CE51D
:103DA000F20609F48CC060912C02F0902D0284E0A0
:103DB00090E00E94B7306F2D82E290E00E94B73011
:103DC0000E94611474CE27E245EE65EE75C426E2CA
:103DD00041EE60EE71C427E245EE64EE6DC426E26A
:103DE00041EE62EE69C428E241E0EFCF35EAE31626
:103DF0003DE5F30609F4A8CFE0F491E6E9169DE568
:103E0000F90609F4A1CF86E1E8168CE5F80609F079
:103E100028C580911C028A7A91E009F490E0909381
:103E2000BE01811139C189E20E94A90A0E94701164
:103E30003ECEC7018D5A9D45039728F785CF8091C7
:103E40002C02806237E0E3163CE5F306C1F108F48A
:103E5000D3C080912C02806432C09DE0E9169CE5BD
:103E6000F90609F4D7C0A0F480912C028E7FFBE004
:103E7000EF16FCE5FF0619F180912C028C602CE016
:103E8000E2162CE5F206D8F080912C028D7F17C047
:103E90003FE0E3163CE5F30609F4CCC008F4BEC0ED
:103EA00090E1E9169CE5F90609F4C8C080912C025E
:103EB0008F7BE1E1EE16ECE5FE0609F074CF80930E
:103EC0002C0271CFFFEFEF16FCE5FF0609F4C4C02A
:103ED000D8F53AEFE3163CE5F30609F485C0D0F4D3
:103EE00094E1E9169CE5F90609F4C4C008F4B0C0F1
:103EF000F5E1EF16FCE5FF0609F055CF80912C02A5
:103F000082FB992790F921E0922790FB82F990FBA0
:103F100083F9D5CF2CEFE2162CE5F20609F482C026
:103F200008F466C08DEFE8168CE5F80609F47EC04B
:103F300080912D0283609EEFE9169CE5F90609F059
:103F400032CF80932D022FCFE1E6EE16EDE5FE068F
:103F500009F49BC0A0F421E0E2162DE5F20609F475
:103F600092C008F47DC060E082E0E8168DE5F806B6
:103F700009F019CF8EE090E00E94B73014CF9DEA8F
:103F8000E9169DE5F90601F168F490912C02892F5C
:103F90008E7F90FF8160F5EAEF16FDE5FF0609F4DC
:103FA0008ECF01CF2EEAE2162DE5F20679F13FEA37
:103FB000E3163DE5F30609F0F6CE90912D02892F28
:103FC000877F93FF8860BDCF80912D028860B9CF35
:103FD00080912C02826073CF80912C0284606FCF1D
:103FE00080912C0288606BCF80912D028160A9CFD7
:103FF00080912D028260A5CF80912C0280615FCFDD
:104000000E94611480912C02806859CF80912D020A
:10401000877F97CF80912C028B7F51CF80912C028C
:10402000877F4DCF80912D028E7F8BCF80912D0287
:104030008D7F87CF80912C028F7E41CF80912C0283
:104040008F7D3DCF0E94611480912C028F7737CFF6
:1040500080912C02837F33CF80912D028C7F71CF92
:1040600080912D02982F909591708E7F892B90FBD7
:1040700081F967CF0E94611490912C02892F97FBE0
:1040800087F980581CCF61E075CF90912C02892F61
:104090008F7E94FF806113CF85E3C6CE8091BE01F1
:1040A000811104C089E20E949C0AC0CE85E3FBCF47
:1040B00081608093160561E086950E944D13F7CCD0
:1040C0004FE853E169E973E10E94F506F0CC49E954
:1040D00053E16FE873E1F8CF41E150E167E070E14F
:1040E000F3CF4DEE5FE06AEF7FE0EECF43ED5FE0B0
:1040F00060EE7FE0E9CF40EE5FE063ED7FE0E4CF8C
:104100004DE250E16BE170E1DFCF61E081E0D5CFBE
:1041100065E082E00E94A413CACC68E086E0FACF92
:1041200064E18FE0F7CF6EE185E1F4CF0E94611486
:104130002FEF34E38CE0215030408040E1F700C0A5
:1041400000000E94910680912D0282FB882780F951
:1041500091E089270E942614F8018281E080F18095
:10416000882309F445C0C7010E94140ED82E682F79
:10417000C7010E94000BB7018D2D0E94060E0E9400
:1041800002097C01882EF801D280B580B2943FE00C
:10419000B322809112028770C1F0AD2CDD20B1F006
:1041A0008F2D807F803421F080E28E0D883068F082
:1041B00080912D0282FF09C082E00E940A14809142
:1041C00012028770AA24A3948111A12C9F2C92948F
:1041D0002FE09222FBE0F91508F479C0E92DF0E018
:1041E000E051FD4C0C94203081E0B4CF80E0B2CFA0
:1041F000C7010E94CC0AD82EBECF2F2D2F70C22E01
:104200008F2D807F19F0C29490EFC922DD20B9F084
:10421000CC2069F080E28E0D883010F0811009C04A
:1042200080911C02C82AC0921C020E9470118E2D1F
:104230004CC080911B02C82AC0921B02F6CF8E2D63
:104240000E948517CC2009F442C080E28E0D883090
:1042500010F0811004C08C2D0E94950A06C0C094F5
:1042600080911B02C822C0921B020E9470112FC0B5
:104270003F2D3F70C32E8F2D807F803219F0C29466
:1042800080EFC822882089F081E0881609F467C091
:10429000DD2009F471C0BB2009F467C0F8018581F5
:1042A00080FFC5CF8F70858360C020912D0222FDD5
:1042B00034C0DD2061F1CC2039F080911C02C82A85
:1042C000C0921C020E94701180E00E94DE17E92D4E
:1042D000E850FF0B349710F40E94E806AA2009F476
:1042E0009CCB8091120280FD98CBF80112828595BB
:1042F000859585950E945014C8010E94FB1C8091F1
:1043000012028595859585950E94FD1386CB80E0E8
:104310000E948517CC20D9F29ECFDD2099F0909194
:104320001D028C2D892BB11003C00E94B411CFCF78
:10433000E1E0BE12FACF22FFCACF981741F2809374
:104340001D02C5CFB11006C00E948F0A8C2D0E949D
:10435000AD11BDCFF1E0BF1609F4B9CFF5CFDD2027
:1043600031F025E02B1508F4B2CF8C2DDECF34E0F0
:104370003B1508F4ACCFEACFBB2041F3F9E38F1231
:1043800057C12FEF37EE83E0215030408040E1F7F6
:1043900000C000004DC18F2D86958695837061F019
:1043A000813009F094CFC7019370D11002C090E022
:1043B00080E00E94AE068BCFC7019370D11002C07F
:1043C00090E080E00E94C40682CF8E2DDD20C1F1F6
:1043D0000E946308EE2DE45FFF0BE530F105B0F5B8
:1043E00081E090E001C0880FEA95EAF726E0E4EA70
:1043F000F4E0DE01179601900D922A95E1F726E090
:10440000FE013796DE011D9601900D922A95E1F787
:104410002885DD20C1F0822B8E8786E0FE013D9647
:10442000DE01119601900D928A95E1F786E0FE017A
:104430003196A4EAB4E001900D928A95E1F747CF56
:104440000E94A807C7CF80958223E6CF0E94B413AD
:104450003ECF8F2D837091F5D11039CF4E2D4295DF
:1044600046954770440F440F8E2D8F70042E01C067
:10447000880F0A94EAF72E2D2071E4FE07C02FE082
:1044800030E001C0220F4A95EAF720953F2D36957E
:1044900036953370323069F050F440911E0231305D
:1044A00029F0822B84230E945C1411CF842B822B51
:1044B000FACF282B80911E028227F5CF8695DD202A
:1044C00011F08F2D8170882309F401CF4E2D429574
:1044D00046954770440F440F8E2D8F70042E01C0F7
:1044E000880F0A94EAF72E2D2071E4FE07C02FE012
:1044F00030E001C0220F4A95EAF720953F2D36950E
:1045000036953370323069F050F4409149053130BE
:1045100029F0822B84230E94EC13D9CE842B822B8A
:10452000FACF282B809149058227F5CFFF2DFF7008
:10453000FF2EDD2029F08F2F0E9450148E2DF5CEF6
:104540008E2D0E94AD118F2D0E94FD13C0CE8E2D99
:1045500022EF8216B1F1281570F030EF8316D1F0FA
:1045600091EF891691F0DD2009F45DC0B1105FCEA6
:104570008F2D8F712AC0E3EF8E1651F1F4EF8F1259
:10458000F2CF80912D0282FD2FC08F2D8F71DD2003
:10459000D9F21BC0DD2081F024E02B1508F497CE62
:1045A0002F2D2F7181E090E001C0880F2A95EAF746
:1045B000909149058927AFCF35E03B1508F487CEA8
:1045C000EFCF8F2D8F71D110BFCF0E9450147FCEAF
:1045D00080E0DD2009F49FCF9F2D9F7181E001C015
:1045E000880F9A95EAF797CFDD2091F08F2D8F7184
:1045F000F82E0E94501480912D0282FF07C0E8E03F
:10460000FE9EC00111248360809312028F2DDDCFA6
:1046100081E00E940A14F1E0FB1508F058CE82E018
:104620000E940A1454CEBB2039F0893309F4A9CE74
:104630008E2D0E9485174BCE8F2D8F7185CFF0E187
:10464000EF16FFE5FF0609F4FACA21E1E2162FE5AD
:10465000F20609F4FECA81EBE8168DE5F80660F073
:1046600094EBE9169DE5F90608F4F5CAE4EBEE16BD
:10467000EDE5FE0609F436CB31110E94421423EF1A
:10468000E2162CE5F20609F4A2CB08F034CB88ED53
:10469000E8168CE5F80609F496CB99EDE9169CE549
:1046A000F90609F4A0CBE7EDEE16ECE5FE0609F0FD
:1046B00033CB26E241EE61EEC8010E949218F7C9A1
:1046C00080E1E8168FE5F80609F4BFCA91E1E91622
:1046D0009FE5F90609F0BFCF82E0B8CA85E0DE01A8
:1046E000119601900D928A95E1F7F8012281898156
:1046F0009A81211196C90E94CC0AF82E9AC9F6E136
:10470000EF16FCE5FF0609F4C9CC80911C02827209
:104710002CECE2162CE5F20609F4F2CC08F06DC0A0
:1047200096ECE9169CE5F90609F4D6CCE8F5F3EC2D
:10473000EF16FCE5FF0609F4C3CC28F532ECE316CE
:104740003CE5F30609F008CD8091160580FFB0CC5A
:104750008E7F8093160560911605709117058091E4
:104760001805909119050E943E0F1092BC049FEF0E
:10477000E0E7F2E09150E040F040E1F700C00000D7
:104780000E94260C94C994ECE9169CE5F90609F4FC
:104790009ECC47E050E161E170E1E5ECEE16ECE51E
:1047A000FE0609F491CCD8CCF9ECEF16FCE5FF0637
:1047B00009F49CCC88F437ECE3163CE5F30609F4E5
:1047C00090CC4AEF5FE06DEE7FE098ECE9169CE557
:1047D000F90609F479CCC0CCEAECEE16ECE5FE065D
:1047E00009F489CC4BE150E16DE270E1FBECEF168E
:1047F000FCE5FF0609F468CCAFCC21EDE2162CE510
:10480000F20609F48DCCB8F48EECE8168CE5F806C7
:1048100009F47ECC08F479CCEFECEE16ECE5FE065C
:1048200009F47BCC6EE089E0F0EDEF16FCE5FF06C5
:1048300009F470CC91CC24EDE2162CE5F20609F4D3
:1048400072CC08F434C985EDE8168CE5F80609F455
:104850002EC964E28FE19DE5E916F90609F45ACC08
:104860007BCCEAE5EE16EDE5FE0609F4BDCC78F466
:10487000E1142CE5F20609F459CC3EEDE3163CE5D3
:10488000F30609F069CC0E94BE110E946F178CE5F7
:10489000E8168DE5F80609F456CC08F4A7CCE7EA4B
:1048A000EE16EDE5FE0689F357CC1F93CF93DF9309
:1048B0008091DF01807F09F049C08091DC0188236D
:1048C00009F444C080911102D091E0016091DA01B5
:1048D0007091DB01A091DD01B091DE01C62FC723ED
:1048E00016E0D81799F190E0109711F0CF3F19F426
:1048F00001968770F6CF189F9001199F300D1124F3
:10490000F901EF51FE4F41814713F2CF4081461329
:10491000EFCF42814111ECCF438154814A1B5B0BA5
:10492000483C510528F78091DF018F7080618093AA
:10493000DF01F901EA51FE4F80818F708061808331
:104940008AED91E00E94FB1C0E94C20ADF91CF9188
:104950001F910895A1E1B0E0E0EBF4E20C94C32FC5
:104960008C0185E0F801DE011D9601900D928A957B
:10497000E1F7F801E2808AEDA82E81E0B82E60917F
:10498000DD017091DE016115710509F426C1909178
:10499000DA014091DB01892F84238F3F09F41DC187
:1049A00020813181C380D480F090DC01F601E61BC8
:1049B000F70BFF2009F4DCC08091DF01582F507FF6
:1049C000E83CF10508F09FC051116BC0FE2C431369
:1049D00014C0921312C0E11010C08F7080618093D8
:1049E000DF01C5010E94FB1C8091DF01F801858376
:1049F0008F2D6196EAE00C94DF2FC114D10429F0C9
:104A0000822F83238F3F09F003C180E0F82FF170DC
:104A1000DF2E80FF3CC0809111024091E00156E002
:104A2000841315C02D873E878D859E850E94430E79
:104A3000292F22952F702230F0F0243018F59F7026
:104A4000F1F0F8019581907FD1F4D12C1EC090E057
:104A5000589FF001599FF00D1124EF51FE4F6181D5
:104A6000361306C06081261303C06281E6120FC0B0
:104A700001968770D5CF9F7011F0882331F3805E47
:104A8000883018F3C8010E94FB1CFD2CB1CFEE202A
:104A900009F4AECF8091DF0181608093DF01F12CBA
:104AA000A7CF431306C0921304C0F801EE2009F407
:104AB00079C0C8010E94500E882309F1EE20F9F058
:104AC0008091DF01803270F02091DA013091DB01BA
:104AD00038872F831986DB86CA868C87CE01079696
:104AE0000E94FB1C86E0F801AAEDB1E001900D9256
:104AF0008A95E1F70E945524FF24F39479CFC801E9
:104B00000E94FB1CF9CF51110AC08AED91E00E946E
:104B1000FB1C86E0F50111928A95E9F7C0CF43139B
:104B20000FC092130DC0E1100BC0F8018583C801BE
:104B30000E94FB1C86E0F50111928A95E9F758CF97
:104B4000C8010E94500E8823D1F2EE20C1F280915C
:104B5000DF01803238F22091DA013091DB013A83B3
:104B600029831B82DD82CC828E83CE010196B8CF51
:104B7000E83CF105F8F6FE2CEE2009F243131FC0C5
:104B800092131DC08091DF0180FD10C0982F907F8F
:104B900069F0F8018583903F31F0982F907F905F06
:104BA0008F70892B8583C8010E94FB1C86E0F80169
:104BB000AAEDB1E001900D928A95E1F719CFC801F5
:104BC0000E94500E81118ECF8091DF018160809311
:104BD000DF01C8010E94FB1C0BCFEE2009F48FCF30
:104BE000C8010E94500EF82E882309F488CF86E071
:104BF000F801AAEDB1E001900D928A95E1F780915C
:104C0000DA019091DB010E94430E0E945524F0CE00
:104C100081E08E25FBCEA7E1B0E0E1E1F6E20C9465
:104C2000CA2F4B8B5C8B6D8B7E8B8F8B611110929F
:104C30001B021A8A198A85E0FE017396DE011D9611
:104C400001900D928A95E1F786E0FE013D96DE0126
:104C5000179601900D928A95E1F7CE0107960E9472
:104C6000AA24882359F016E0809111029091E00166
:104C7000891343C06796E3E00C94E62F86E0FE01BB
:104C80003796DE01119601900D928A95E1F78A859B
:104C90009B85892B41F38F81988589238F3F19F359
:104CA0002091E00130E0C901019687709927409179
:104CB00011024817190671F40E9461141092E00164
:104CC0001092110286E0EAEDF1E0DF011D928A9573
:104CD000E9F7C9CF96E0929FD001939FB00D1124C0
:104CE000AF51BE4FFE01319601900D929A95E1F7BA
:104CF0008093E0010E94C20AB6CF819FC0011124B7
:104D00008F519E4F0E94AA24882309F4B3CF80912B
:104D1000110290E001968770992780931102A4CF29
:104D20001F921FB61F9211248F939F93AF93BF932F
:104D300080912705811113C0809128059091290544
:104D4000A0912A05B0912B054196A11DB11D80931C
:104D5000280590932905A0932A05B0932B05BF91B0
:104D6000AF919F918F911F901FBE1F901895CDB747
:104D7000DEB7AC970FB6F894DEBF0FBECDBF85B7D8
:104D8000806885BF85B7806885BF84B7877F84BF0B
:104D90000FB6F894A89580916000886180936000B8
:104DA000109260000FBE80E890E00FB6F8948093F8
:104DB0006100909361000FBE8DEB98E09093B50178
:104DC0008093B4010E9409050E94D4058091E200FD
:104DD00084608093E200789480913C058823A1F060
:104DE0001091E9001F709091EC00892F817090FD67
:104DF00080E8182B1092E9008091E80083FD0E9462
:104E00006D141F701093E90082E084BD93E095BD9E
:104E10009AEF97BD80936E000E947A0E811102C0B6
:104E20000E94C70DA6E5B1E09D0161E070E0F901C7
:104E300081919F01E82FE295EF70F0E011A18F7052
:104E4000AB0101C0440F8A95EAF7942F9095912306
:104E500091A382A1842B82A3F1E020363F0739F78A
:104E600020E631E047E651E0B90101E010E0FB0146
:104E70008191BF01E82FE295EF70F0E0D1A08F7033
:104E8000780101C0EE0C8A95EAF79E2D90959D2140
:104E900091A382A18E2982A3F1E067367F0739F7BB
:104EA00061E070E0F90181919F01E82FE295EF70D8
:104EB000F0E0F1A08F708B0101C0000F8A95EAF736
:104EC000902F90959F2191A382A1802B82A34217BE
:104ED000530741F761E070E08D91E82FE295EF70A4
:104EE000F0E041A18F709B0101C0220F8A95EAF783
:104EF000922F9095942391A382A1822B82A3F1E01B
:104F0000A036BF0749F7E2E2F2E08CE292E0A8E6C1
:104F1000B4E011921D928E179F07D9F70E942912B3
:104F2000811102C00E94BE1182E090E00E94A33075
:104F3000809331020E94930E90932D0280932C0255
:104F40000E94EF188FE39CE90197F1F700C0000081
:104F50000E94EF188091680480FF08C06FEF7FEF18
:104F600090E080E00E94D5300E94910683E090E0BE
:104F70000E94A3300E945C1483E08093630480E26B
:104F8000809342020E942C2E6DE070E08CE492E04F
:104F90000E94370B892BE9F58091630463E070E090
:104FA00081FDE0C089E492E00E94370B892B89F5EE
:104FB0006DE070E089E392E00E94370B892B49F5A0
:104FC0000E94A206605A75418F4F9F4F60931B0548
:104FD00070931C0580931D0590931E05E3E6F2E097
:104FE00080E092E0DF018C011D9201501040E1F75A
:104FF000F0934102E09340028FEF9FEF909366049D
:105000008093650481E08093200580931F051092B2
:10501000640480912E02811133C00E9429128111F3
:1050200004C00E94BE110E943F1088E090E00E94E0
:10503000AB30609316057093170580931805909315
:1050400019056E7F71F40E943F1088E090E00E9485
:10505000AB306093160570931705809318059093F5
:1050600019050E94FC061092BC048091160580FF71
:1050700004C060E086950E944D1381E080932E026B
:1050800081E080933E0224982C9A25982D9A8FE8EF
:1050900091E00197F1F700C0000020913E024FE33C
:1050A00052E0FA018E2F841B821708F45EC00E9422
:1050B000501084E091E0909324058093230570E4E0
:1050C000672E80913C0500E112E1853009F493C020
:1050D0000E94EF1802E312E02CE332E0A8E6B4E00D
:1050E000F80191918D912E173F0709F48EC0981702
:1050F000C1F368E6E62E64E0F62ED12CD701CD9000
:105100007D01F80191908F019C1419F19C24B12C20
:10511000AA24A394892D8A21A1F0BEA2DFA291E046
:105120008C2D8A2109F490E098A70E944113816098
:10513000782F9AA789A74EA15FA168A58AA50E948A
:105140000B26B394AA0CF7E0BF12E4CFF801319715
:10515000C082D3942AE0D212D1CF0E94A206EE24BC
:10516000E39474C086E492E01FCF83B1829581708E
:105170001D9904C090E0892B819394CF92E0FBCFDE
:1051800080913C05843039F10E94610B0E94231A02
:1051900010922705A8E1B0E00FB6F894A895A09367
:1051A00060000FBE6092600083B7817F846083BF20
:1051B00083B7816083BF7894889583B78E7F83BFE0
:1051C0000FB6F894A8958091600088618093600084
:1051D000109260000FBE80913B05882361F00E9411
:1051E000EF18E8E6F4E0819181110DC522E734E083
:1051F0002E173F07C1F780913C05853009F4C0CFD9
:105200000E9461140E94E80663CF981372CF0E9437
:1052100041138C0180912F029091300208171907D9
:10522000A1F08FEF89A38AA31BA20E944113816082
:10523000782F9DA38CA349A15AA16BA18DA10E9497
:105240000B261093300200932F02E12C8091BC04B6
:105250008823D1F18091BB04E0911605E695E81B07
:10526000E093B704823009F0ABC1F0E0EB59FD4F99
:10527000E4910E2F10E05CE2C52E5DE0D52E80910A
:10528000B804882361F01092B8040E9441139093EF
:10529000B6048093B5041092BA041092B9040E9427
:1052A0004113E091B504F091B6048E1B9F0B8F3F24
:1052B0009F4750F4E00FF11FF093B604E093B5045C
:1052C00085EB94E0F6010995B12CF12C80913E021A
:1052D000B81608F4B7C1F1100E94A206809120050B
:1052E000882309F462C080914202209165043091C4
:1052F0006604A3E6B2E050E040E061E070E0FA014D
:10530000E759FD4F9491ED919E1791F0FD01319772
:105310009083FA0115E0F695E7951A95E1F78B0170
:1053200002C0000F111FEA95E2F7F801202B3F2B76
:105330004F5F5F4F411512E0510709F73093660444
:105340002093650445E0849FC00111248115A2E0EB
:105350009A0714F090E080E08D599D4F90934102A0
:10536000809340022115310539F08091640461E099
:1053700070E0882309F4C3C180911F058823A9F038
:105380000E94A20600911B0510911C0520911D058D
:1053900030911E05601B710B820B930B6F3F7F4F8B
:1053A0008F4F9F4710F40E94610BE11001C0F11074
:1053B0000E947C0B86E0EEE9F4E0DE01119601909C
:1053C0000D928A95E1F71092A0041092A104109218
:1053D000A2041092A3048B819C81892B09F44AC0FA
:1053E00080917704909178040E9432139C019091EF
:1053F0007304992309F42BC425313105D8F19F3F5B
:1054000019F09F5F909373041B81112359F00E9440
:1054100043089FEF11160CF491E0899F802D112411
:105420008093A0041C81112359F00E9443089FEF30
:1054300011160CF491E0899F802D11248093A10412
:105440003091A0043323B1F02091A104222391F0E4
:1054500045EB3403C0011124992309F41AC2909337
:10546000A00405EB200390011124332309F415C295
:105470003093A1048D819E81892B09F44AC08091CB
:105480007504909176040E9432139C0190917204ED
:10549000992309F4D7C321353105D8F19F3F19F07D
:1054A0009F5F909372041D81112359F00E9421087F
:1054B0009FEF11160CF491E0899F802D11248093A9
:1054C000A2041E81112359F00E9421089FEF11169A
:1054D0000CF491E0899F802D11248093A3043091D6
:1054E000A2043323B1F02091A304222391F015EB01
:1054F0003103C0011124992309F4D3C19093A2046C
:1055000045EB240390011124332309F4CEC13093D9
:10551000A30446E050E0BE016F5F7F4F8EE994E048
:105520000E949630892B61F48091A0049091A1048F
:10553000892B9091A204892B9091A304892B11F0BF
:105540000E94B41386E0FE013196AEE9B4E001900A
:105550000D928A95E1F70E94231A0E94E806909125
:105560006704891721F0809367040E94A206809146
:105570003C05843009F0A5CD83E08093E90080915B
:10558000E80082FF9ECD8091E80090E085FF06C094
:105590000E942805882309F48CC191E08091E800DD
:1055A0008B778093E800992309F48BCDE981E15052
:1055B000E33108F0F1C1F0E0E450FD4C0C942030F0
:1055C000863059F4F0E0EE59FD4FE4910E2F10E0D3
:1055D0004CE1C42E4DE0D42E52CE893061F4E695D4
:1055E000F0E0E15AFD4FE4910E2F10E033ECC32EB2
:1055F0003CE0D32E44CE8F3061F4E695F0E0E45ADF
:10560000FD4FE4910E2F10E02BE5C22E2CE0D22EA0
:1056100036CE8F3181F48E2F63E00E94F22FE92F76
:10562000F0E0E75AFD4FE4910E2F10E091EAC92E09
:105630009EE0D92E24CE00ED17E08BEFC82E86E039
:10564000D82E1DCE0B2D10E0E3B1E295E1701D992F
:1056500053C080E08E2BD801A15CBD4FEC919E2FF2
:105660009370891709F446C0EE0FEE0FE82BEC9308
:10567000EF70F0E0E959FE4F9801235C3D4F69015E
:105680008081D9019C91890F8C9320E083308CF02C
:10569000F801E45CFD4F80818F5F808385E094E0BA
:1056A0000E94140E65E074E00E94060E0E947418B9
:1056B00021E0F60180818E3F8CF4F801E45CFD4F1F
:1056C00080818150808384E094E00E94140E64E025
:1056D00074E00E94060E0E94741821E0D6018C919D
:1056E000082E000C990B63E070E00E940C30F6016C
:1056F0008083F22AB394EACD82E0ACCF8F5F082F8B
:1057000010E02B01082E02C0440C551C0A94E2F74D
:10571000A90144215521452B89F39091630490FD03
:1057200044C08295880F8076809312019801369547
:1057300027953695279520931501815E8093130157
:105740001092160124E630E047E050E060E171E09D
:1057500088E70E94122F892B09F00ECEA80125E0C0
:10576000440F551F2A95E1F78091630480FD2BC0FB
:105770004D595D4F04E610E020E230E060E488E738
:105780000E94332F892B09F0F7CD0E947C0BC201B8
:105790008095909540906504509066044822592267
:1057A0005092660440926504E7CD880F880F880FF9
:1057B0008093120110921501895F8093130183E099
:1057C00080931601BFCFE3E4F2E080E2DF011D9297
:1057D0008A95E9F7EBE7F1E0FCA7EBA707E711E013
:1057E00097E0A92E99249394ABA5BCA52D91BCA7B5
:1057F000ABA7F80121908F01240E352E311CC10179
:105800008D599D4F1C01E22FF0E0ED5BFD4F30E024
:1058100020E07A2C721AB92C022E01C0BB0C0A941B
:10582000EAF7610190E0D6018D916D018B21672D22
:10583000691B6770862E062E000C770BB82F01C0EF
:10584000BB0F8A94EAF78B2E719561957109677089
:10585000772701C086956A95EAF7882A8081882A89
:1058600080829F5F9830F9F62F5F3F4F3196283046
:10587000310579F6EFE7F1E02BA53CA5E217F30738
:1058800009F0B2CF04E610E020E230E043E452E059
:1058900075CF81E08093A004E4CD81E08093A104E2
:1058A000E9CD81E08093A2042BCE81E08093A30414
:1058B00030CE80E2E82EF12C8E010F5F1F4F8091D9
:1058C000E80085FD0AC08091E8008B778093E800AE
:1058D0000E942805882399F360CE8091F100D801B9
:1058E0008D938D01B1E0EB1AF10849F756CE1A827B
:1058F0008AE08B8311C08A81823009F49AC1833097
:1059000091F1813009F048C00E94A2060E94263021
:105910006B837C838D839E8380913C05843009F06A
:10592000D0CB1091E9001F709091EC00892F81700D
:1059300090FD80E8182B82E08093E9008091E800D8
:1059400080FF0DC050E040E060E270E0CE010196C3
:105950000E9459058091E8008E778093E8001F70BF
:105960001093E900AECBDE011396E8E6F4E08191F6
:105970008D9304E0E237F007D1F7CECF8A818230F1
:1059800059F46B817C818D819E810E94263086E254
:1059900090E00E94B730C0CF8FEF8983BDCF4C819C
:1059A0006B818A810E94D70D9827892798279E832B
:1059B0008D83B2CF2D813E813227232732274C8120
:1059C0006B818A810E94500DA7CF0E94760DA4CFD3
:1059D0008A81813809F1A8F4803809F09DCF8B8144
:1059E00018E7819FC00111246FEF70E00E94A72F7C
:1059F000462F20E060911805809117050E94510FF5
:105A00008BCF823859F1833809F086CF20E040915E
:105A100019056C818B81F2CF60E08B810E944D1360
:105A20009B8180911605911111C08E7F8093160580
:105A30001092BC042FEF30E742E02150304040404C
:105A4000E1F700C000000E94260C66CF81608093C1
:105A5000160560E086950E944D135ECF8B81809382
:105A60001A055ACF8A818138E1F078F4803809F03C
:105A700053CF80911905AFEF8A9FC001112468E7C9
:105A800070E00E94A72F6B8347CF823891F0833854
:105A900009F042CF809117058B83809118058C8384
:105AA0003BCF8091160580FF02C0869522CF80E013
:105AB00020CF80911A051DCF6091160570911705B2
:105AC00080911805909119050E943E0F25CF80E125
:105AD0008A8322CF81E08A838DE10BCF0A811B81EB
