:100000000C9492030C94AF030C94AF030C94AF03C5
:100010000C94AF030C94AF030C94AF030C94AF0398
:100020000C94AF030C94AF030C94271F0C94E31EA5
:100030000C9424200C94AF030C94AF030C94AF03E6
:100040000C94AF030C94AF030C94AF030C94AF0368
:100050000C94AF030C9400200C94AF030C94AF03EA
:100060000C94AF030C94AF030C94AF030C94AF0348
:100070000C94AF030C94AF030C94AF030C94AF0338
:100080000C94AF030C94AF030C94AF030C94AF0328
:100090000C94AF030C94AF030C94AF030C94AF0318
:1000A0000C94AF030C94AF030C94AF030501090249
:1000B000A10185020901A1000509190129081500FE
:1000C0002501950875018102050109300931158165
:1000D000257F95027508810609381581257F9501D0
:1000E00075088106050C0A38021581257F95017572
:1000F000088106C0C005010980A101850319012AF4
:10010000B700150126B700950175108100C0050CD8
:100110000901A101850419012AA002150126A002E6
:10012000950175108100C00660FF0961A101096297
:10013000150026FF00952075088102096315002629
:10014000FF00952075089102C005010906A101056F
:100150000719E029E7150025019508750181029529
:1001600001750881010507190029FF150026FF0008
:100170009506750881000508190129059505750181
:100180009102950175039101C0000000000000007C
:10019000000000000000000000000000000000005F
:1001A000000000000000000000000000007E0F00C2
:1001B000D4FFFFFFC700000078000000000000002F
:1001C000002A2B28000000000000000000000000B2
:1001D0000000000029000000002C1E3420212224F1
:1001E000342627252E362D3738271E1F202122237F
:1001F0002425263333362E37381F04050607080911
:100200000A0B0C0D0E0F10111213141516171819D6
:100210001A1B1C1D2F3130232D3504050607080934
:100220000A0B0C0D0E0F10111213141516171819B6
:100230001A1B1C1D2F3130354C1E0F0564321464FF
:100240003214783C1E1E140A05000101010101014F
:10025000010101020202020202020202030303037D
:10026000030303030404040404040405050505054D
:10027000060606060607070707070808080809090B
:1002800009090A0A0A0B0B0B0C0C0C0D0D0D0E0EB6
:100290000E0F0F0F10101111111212131314141549
:1002A0001516161717181819191A1A1B1B1C1D1DBD
:1002B0001E1E1F2020212222232424252626272813
:1002C00029292A2B2C2D2D2E2F3031323233343543
:1002D000363738393A3B3C3D3E3F40414243444546
:1002E000464748494A4C4D4E4F5051535455565825
:1002F000595A5B5D5E5F616264656668696B6C6DCF
:100300006F7072737577787A7B7D7E808283858744
:10031000888A8C8E8F91939596989A9C9EA0A2A382
:10032000A5A7A9ABADAFB1B3B5B7BABCBEC0C2C487
:10033000C6C9CBCDCFD1D4D6D8DBDDDFE2E4E7E947
:10034000EBEEF0F3F5F8FAFDFFFFAA7F554022230C
:10035000252628292A2C2D2F3032333536383A3BA2
:100360003D3E4042434547494A4C4E5051535557F4
:10037000595A5C5E6062646668696B6D6F71737513
:1003800077797B7D7F81838587898A8C8E90929413
:1003900096989A9C9E9FA1A3A5A7A8AAACAEAFB120
:1003A000B3B4B6B8B9BBBCBEBFC1C2C3C5C6C7C96A
:1003B000CACBCCCDCED0D1D2D2D3D4D5D6D7D7D824
:1003C000D9D9DADADBDBDBDCDCDCDCDCDDDDDDDD76
:1003D000DCDCDCDCDCDBDBDBDADAD9D9D8D7D7D67E
:1003E000D5D4D3D2D2D1D0CECDCCCBCAC9C7C6C535
:1003F000C3C2C1BFBEBCBBB9B8B6B4B3B1AFAEAC7B
:10040000AAA8A7A5A3A19F9E9C9A98969492908E25
:100410008C8A89878583817F7D7B79777573716FFE
:100420006D6B6968666462605E5C5A5957555351DA
:10043000504E4C4A4947454342403E3D3B3A383690
:10044000353332302F2D2C2A292826252322290026
:1004500014001A000800150017002F002B000400DC
:100460001600070009000A003400E1001D001B000F
:100470000600190005003300E000E3004B00E20035
:1004800091002C002A0000004A004E004D00A900F7
:10049000AA00A80030001C0018000C001200130075
:1004A0002A0031000B000D000E000F002D00280067
:1004B000350011001000360037003800E500280034
:1004C0002C009000E6005200650001510000000081
:1004D0000000500051004F00000001003A003B00B6
:1004E0003C003D003E003F00010001000100010012
:1004F00001000100010001000100010001000100F4
:1005000001000100010001000100010001000100E3
:1005100001000000010001000100010001000100D4
:10052000400041004200430044004500010001003A
:1005300001000100010001000100010001000100B3
:1005400001000100010001000100010001000100A3
:100550000100010001000100000000000000010096
:100560000100010000000100010001000100010084
:100570000100010001000100010001000100010073
:100580000100010001000100010001000100010063
:100590000100010001000100010001000100000054
:1005A0000100010001000100010001000100010043
:1005B0000100010001000100010001000100010033
:1005C0000100010001000100010001000100010023
:1005D0000100010001000100010001000100010013
:1005E0000100010000000000000001000100010006
:1005F00000000100010001000100010001000100F4
:1006000001000100010001000100010001000100E2
:1006100001000100010001000100010001000100D2
:1006200001000100010001000100000001000100C3
:1006300001000100010001000100010001000100B2
:1006400001000100010001000100010001000100A2
:100650000100010001000100010001000100010092
:100660000100010001000100010001000100010082
:10067000000000000000010001000100000009026C
:100680005B00030100A0FA0904000001030101005E
:100690000921110100012240000705810308000122
:1006A00009040100020300000009211101000122D8
:1006B0002200070582032000010705030320000133
:1006C00009040200010300000009211101000122B8
:1006D0007B000705840320000112010002000000D6
:1006E00008BA7C2CA601000102000112034100742B
:1006F0000061006C0061006E007400650000001E67
:10070000034E0069006E007400680053006B0079AE
:1007100000530074007500640069006F000000045D
:100720000309040011241FBECFEFDAE0DEBFCDBF06
:1007300022E0A2EAB1E001C01D92A53DB207E1F7B7
:1007400011E0A0E0B1E0E2EFFFE402C005900D92FD
:10075000A23AB107D9F70E944B200C94CE270C94F3
:100760000000E8EDF0E080818E7F80831092E2004F
:100770001092DA001092E100A0EEB0E08C9181605E
:100780008C9380818F77808319BCA7EDB0E08C912A
:100790008E7F8C9380818F7E80831092BA02089521
:1007A0002091E4003091E50095E6A9012091EC004C
:1007B000822F817020FF06C08091E80080FF06C074
:1007C00080E008952091E80022FD1AC08091C702C0
:1007D000882389F0853089F08091EB0085FD0FC07A
:1007E0002091E4003091E50042175307F9F291504F
:1007F000E1F684E0089582E0089583E0089581E0C1
:100800000895EF92FF920F931F93CF937C018B017A
:100810000E94D003C82F811117C08091E80085FD88
:100820000BC08091E8008E778093E8000E94D0038F
:10083000882399F3C82F08C0F70181917F01809325
:10084000F1000150110949F78C2FCF911F910F91A1
:10085000FF90EF9008958091C90287FF13C08091A7
:10086000E80082FF06C08091E8008B778093E80063
:1008700004C08091C7028111F2CF08958091C70210
:100880008823D9F38091E80080FFF8CF8091E800B9
:100890008E77ECCF982F9093E900242F762F50E09D
:1008A000891731F07091EC002091ED005091F0002B
:1008B00021FD07C09F5F973071F78093E90081E0C9
:1008C00008953091EB003E7F3093EB003091ED00C6
:1008D0003D7F3093ED003091EB0031603093EB00C1
:1008E0007093EC002093ED005093F0002091EE0007
:1008F00027FDE0CF80E00895B0E0A0E0E2E8F4E07A
:100900000C948026C8EDD0E088818F7E8883E7ED47
:10091000F0E080818160808384E082BF81E0809309
:10092000BA0288818E7F888302EE10E0F80110827F
:100930001092DA0081EEC82ED12CF6011082888147
:100940008F77888388818068888388818F7D88837A
:1009500019BC1092C7021092C8021092C6021092DF
:10096000C50290EEE92EF12CF70180818B7F808308
:1009700088818160888342E060E080E00E944A04D0
:10098000F60180818E7F8083F80180818160808381
:10099000808188608083F70180818E7F8083888159
:1009A00080618883CDB7DEB7E8E00C949C26FC011B
:1009B0008091CF029091D00286179707A0F0611521
:1009C000710529F49091E8009E779093E80090E0FB
:1009D0006115710551F4911108C08091E80082FF02
:1009E00034C080E00895BC01F2CF8091C702882313
:1009F000C1F18530C1F18091E80083FD30C0809164
:100A0000E80082FDEACF8091E80080FFE1CF80918D
:100A1000F3002091F200382F6115710519F028308C
:100A2000310558F091E02830310509F090E020912F
:100A3000E8002E772093E800CBCF81918093F100DE
:100A4000615071092F5F3F4FE7CF8091C702882324
:100A500041F0853041F08091E80083FFBECF81E016
:100A6000089582E0089583E0089508958091BC027E
:100A7000089587E797E7909301088093000888E13D
:100A80009AE00FB6F894A895809360000FBE9093FB
:100A90006000FFCF9C014FB7F8948091B302909112
:100AA000B402A091B502B091B6024FBF821B930B66
:100AB00008952FB7F8946091B3027091B4028091B9
:100AC000B5029091B6022FBF08952FB7F894809188
:100AD000B3029091B402A091B502B091B6022FBFBB
:100AE00008952091B0023091B1022817390771F0B2
:100AF0009093B1028093B002E091AE02F091AF0208
:100B0000309721F00084F185E02D0995089520911A
:100B1000AC023091AD022817390771F09093AD0205
:100B20008093AC02E091AE02F091AF02309721F0D9
:100B30000680F781E02D09950895E091AE02F091CD
:100B4000AF02309729F00190F081E02D09950895CA
:100B500080E00895FA01811101C0FB010995089513
:100B600008958091A702982F9E7F61F48170826022
:100B70008093A7028091AA02893718F088E78093B2
:100B8000AA0208958A34B0F381708864F1CFAF92DD
:100B9000BF92DF92EF92FF920F931F93CF93DF9359
:100BA000082F162FE901E42FF0E0E75BFD4F6111FC
:100BB00010C0E4915E2F4E2F4983E8835A83DF9162
:100BC000CF911F910F91FF90EF90DF90BF90AF906A
:100BD0000895E62EF12C4491D42EE42FF0E026E087
:100BE000829FC00111242FEF30E0B9010E944126FD
:100BF000802F90E0880F991F55E5569FD001579F91
:100C0000B00D11248A1B9B0B982F990F890F590146
:100C1000AE18BF08AE9ED001AF9EB00DBE9EB00D07
:100C200011245B2F189F80011124012F11275901D6
:100C3000A01AB10AAE9E8001AF9E100DBE9E100D8F
:100C400011245901A81AB108AE9CC001AF9C900DA7
:100C5000BE9C900D1124892F9927281B390B2E9F9C
:100C6000C0012F9F900D3E9F900D1124E92F6230FF
:100C70007105A1F050F46115710509F49DCF613043
:100C8000710581F0EB2F512F97CF6430710569F01A
:100C900080F06630710509F48FCFF4CFE42F4B2F2D
:100CA000592F8ACFE42F412F87CFEB2F542F492F75
:100CB00083CF4B2F5D2DE12F7FCF0E9465059C01D7
:100CC0009091420280914302982B21F030933F0291
:100CD00020933E029091440280914502982B21F08E
:100CE00030933D0220933C02E091AE02F091AF02BE
:100CF000309749F082E0809340020480F581E02D36
:100D000080E492E00995089540914202803F59F4B1
:100D10008091430287FF0DC01092430241110BC026
:100D200010923A0208C0813F81F480914302181664
:100D30009CF3442381F08091440290914502892BD9
:100D400009F05AC0109239020895823F49F447FFD2
:100D5000F0CF10924202809143028111ECCFE0CF9C
:100D6000833F19F41416ACF3E4CF90914402893F09
:100D700029F41916F4F610924402DBCF8A3F19F4D5
:100D800097FFD7CFF8CF909145028B3F29F497FF7B
:100D9000D0CF10924502CDCF8C3F19F41916CCF369
:100DA000C8CF9CE0980F953090F4845F990B21E0B8
:100DB00030E0B90102C0660F771F8A95E2F7CB01D8
:100DC000809590914102892380934102B2CF8D3F5B
:100DD00031F480913B028E7F80933B02AACF8E3FFD
:100DE00021F480913B028D7FF7CF8F3F09F0A1CF97
:100DF00080913B028B7FF0CF089580913B0280FD74
:100E000016C081FD16C082FD16C08091390288236C
:100E1000A1F0883280F428E0829FC001112468E2AA
:100E200070E00E945526862F672B39F0089582E0E6
:100E3000089584E0089588E0089581E00895809100
:100E40003B0280FD14C081FD14C082FD16C080915C
:100E50003A02882381F08E3180F420E5829FC00120
:100E600011246EE170E00E945526862F089584E1DA
:100E7000089588E2089588E0089580E50895803F08
:100E800031F40E941F078195809343020895813FAA
:100E900019F40E941F07F8CF823F31F40E941F0708
:100EA0008195809342020895833F19F40E941F07A1
:100EB000F8CF893F29F40E94FD06809344020895EB
:100EC0008A3F21F40E94FD068195F7CF8B3F31F4D4
:100ED0000E94FD0681958093450208958C3F19F488
:100EE0000E94FD06F8CF9CE0980F953070F4845F67
:100EF000990B21E030E001C0220F8A95EAF780913A
:100F00004102822B8093410208958D3F31F48091FC
:100F10003B02816080933B0208958E3F21F48091D3
:100F20003B028260F7CF8F3FB9F780913B0284602C
:100F3000F1CF80E0089590911A0292FF06C0282F09
:100F400028712830F9F4877F846093FF06C0282F2A
:100F500028712831F1F4877E846120911B0220FFE3
:100F600006C0382F38713830D9F4877F816021FF6F
:100F700006C0282F28712831D1F4877E816194FD25
:100F8000877E0895282F24712430F9F68B7F88609E
:100F9000DCCF282F2471243101F78B7E8861DDCFCF
:100FA000382F3171313019F78E7F8860E0CF282FCC
:100FB0002171213121F78E7E8861E1CFCF93DF93BC
:100FC000EC0182389105B1F108F040C08133910500
:100FD00009F49DC048F58932910509F48DC08A97BE
:100FE00009F49CC0C11521E5D20708F0C3C0C115A2
:100FF00030E5D30708F01EC1C83ED10508F0A3C0F4
:10100000C03ED10588F5C83AD10508F08EC0C53A72
:10101000D10508F007C1C130D10531F1209721F188
:10102000C430D10508F545C08533910509F45FC08A
:10103000C997C1F680911A02837009F043C180916B
:101040001B0283FF11C0C9E2D0E00EC0833E9105B0
:1010500099F170F4803E910501F1823E910511F6FF
:1010600080911A0282FD21C0CE01DF91CF910895B7
:10107000863E910561F1873E910571F1843E9105AF
:1010800009F0B0CF80911B0281FFEECF80911A0250
:10109000C7EED0E084FD0DC0E7CF80911A0280FD3D
:1010A00033C090911B0290FFDFCFC3EED0E084FFEE
:1010B000DBCFD0E0C0E0D8CF80911A0282FDFFC024
:1010C00090911B0290FDFEC084FFCECFF2CF8091A5
:1010D0001A0283FDDDCFC8CF80911A0283FDF5C0CF
:1010E00090911B0291FFF0CFC4EED0E0BDCF809174
:1010F0001A0285FFB9CFA7CF80911A0285FDE8C0FB
:1011000080911B0283FFB0CFC9E3D0E0ADCF8091C7
:101110001A0286FFA9CFCAE2D0E0A6CF80911A02B8
:1011200086FFA2CFC1E3D0E09FCFCF3BD10508F629
:10113000C85AD0E0CC0FDD1FC15EDE4F0990D881C8
:10114000C02DD46491CFC11540E2D40758F4C11525
:1011500081E0D80708F088CFC03FD10508F4A9CFB7
:10116000D06582CFC11520E4D20708F4A2CFDF708A
:10117000D06A7ACFC11535E5D30718F5C11544E516
:10118000D40708F084C0C11583E5D80708F06BC008
:10119000C11522E5D20708F461C0CE0183709927FA
:1011A00021E030E002C0220F331F8A95E2F7C69596
:1011B000C69580E2C89FE0011124C22BD32BDC68C6
:1011C00053CFC11539E5D307A8F4C11548E5D407B5
:1011D00008F062C0C11586E5D80708F06ACF8C2FE9
:1011E0000E949B07C82FD0E0DC2FCC27CC27DF71D3
:1011F000D0623ACFC1152AE5D20708F452C0CE0119
:1012000090568115904208F054CF8D2F8F710E9417
:101210009B0790E0982F882788279F719C012C2B93
:10122000E901E6CFC55AD0E0C45EDE4FC881D0E008
:10123000D0641ACFCE018370992721E030E002C03C
:10124000220F331F8A95E2F7C695C69540E2C49FE8
:10125000E0011124C22BD32BDD6806CFDC2FCC2775
:10126000C16FD06A01CFCE018370992721E030E0B1
:1012700002C0220F331F8A95E2F7C695C69540E259
:10128000C49FE0011124C22BD32BDA68EDCEDC2FF2
:10129000CC27C46FD06AE8CEDC2FCC27C06FD06AD1
:1012A000E3CE8C2F8F700E949B0734E0D695C795B4
:1012B0003A95E1F7CF709C2FEC01D069D5CEC2EE04
:1012C000D0E0D2CEC0EED0E0CFCEC6EED0E0CCCED5
:1012D000C5E3D0E0C9CE80910B02811110920B02C0
:1012E0000895809590910A02982390930A02089598
:1012F000E6EAF1E09191891303C0DF0111971C9296
:1013000091E0EC3AF907B1F70895A6EAB1E0EFEF02
:1013100090E02D91821751F0EF3F19F4211101C097
:10132000E92F9F5F9630A9F7EF3F09F408950E2E3D
:10133000000CFF0BEC55FE4F828308958091FF0156
:101340009091CE01981301C008958F5F8770FACFF6
:10135000292F9A3078F5873068F590E037E0239FA1
:10136000800D911D1124682F677023E09695879555
:101370002A95E1F7FC01EE0FFF1FE80FF91FE35577
:10138000FE4F50E040E080E0219130E0062E02C0A8
:10139000369527950A94E2F721703327042E01C071
:1013A000220F0A94EAF7822B4F5F5F4F43305105BB
:1013B00059F7089580E00895292F9A3098F58730DD
:1013C00088F590E037E0239F800D911D1124282F90
:1013D000277041E001C0440F2A95EAF723E0969573
:1013E00087952A95E1F7FC01EE0FFF1FE80FF91F23
:1013F000E355FE4F30E020E070E05191DF0111979E
:10140000CB01022E02C0969587950A94E2F781706F
:1014100081958527842385278C932F5F3F4F233029
:10142000310559F708958093B7027093B90260931C
:10143000B8028091C7028430F9F48093E9008FEFFD
:101440009091E800815095FD06C095ED9A95F1F7D1
:1014500000008111F5CF8091E80085FF0DC050E0BC
:1014600040E063E070E087EB92E00E94010480912D
:10147000E8008E778093E8000895BC0184E00E9424
:10148000130A0895BC0183E00E94130A08959C0189
:1014900084E08093E9009FEF8091E800915085FD02
:1014A00006C085ED8A95F1F700009111F5CF809186
:1014B000E80085FF0CC050E040E066E070E0C90144
:1014C0000E9401048091E8008E778093E8000895DF
:1014D000CF93DF93EC0181E08093E9008FEF90914F
:1014E000E800815095FD06C095ED9A95F1F7000052
:1014F0008111F5CF8091E80085FF14C050E040E0F5
:1015000068E070E0CE010E9401048091E8008E77CF
:101510008093E80088E0FE01ADEBB2E001900D920F
:101520008A95E1F7DF91CF9108958091A70280FD20
:101530000AC0EFE4F2E0118210821282339652E088
:10154000E037F507C1F7539A3BB1377F2BB12860DD
:101550004FB7F8948FE492E0FC015191CF0168E01D
:101560002BB9000000C057FF3BB9550F000000C069
:1015700000C000C03BB900C06A9591F7F2E0803727
:101580009F0751F74FBF8FE594E00197F1F700C037
:1015900000000895B0E0A0E0E0EDFAE00C947F26B2
:1015A000FC018281DD24DA9480FD02C0DD24D39425
:1015B0000FE412E0D0E0C0E02BE0B22EF80111827F
:1015C0001082128294E0E92EF12CC12C80914E02FF
:1015D0008C0D8C30DCF16B2D0E943326892F082E68
:1015E000000C990B8C179D07A9F48091AA028E9D7F
:1015F000A0018F9D500D1124559547955595479500
:10160000493708F048E798016091A9028091A80243
:101610000E94C705CD0CF1E0EF1AF108B9F621964A
:101620000D5F1F4FCB30D10549F60E94950A80917E
:101630004E0291E0D91210C081110CC08AE0809353
:101640004E02CDB7DEB7E9E00C949B2687FFC7CFEB
:10165000855FC5CF8150F3CF90E00196BE010E9417
:101660005526EDCFEF92FF921F93CF93DF93EC01BE
:101670008FE4E82E82E0F82E10E04091AA0249376C
:1016800008F048E78C8197016091A902810F0E94C0
:10169000C705195E83E0E80EF11C1D3F71F70E943B
:1016A000950A9A818C8190FF08C08F5F8C83DF91AF
:1016B000CF911F91FF90EF9008958150F7CF9091B7
:1016C000A70290FF0CC0EFE4F2E0818360834283C5
:1016D000339692E0E037F907C1F70E94950A089522
:1016E000A3E0B0E0E6E7FBE00C9486269091A70229
:1016F00090FF0DC0493708F048E79E012F5F3F4F2C
:101700000E94C7054B8169818A810E945F0B2396E5
:10171000E2E00C94A226CF93DF93EC01E7EAF2E03B
:10172000438162818C810E94700B8C818F5F8C83DE
:10173000DF91CF910895CF93DF93EC01EC81F0E03E
:10174000E25BFC4F4491E7EAF2E0628181810E9412
:10175000700B8C818F5F8C83DF91CF910895CF9335
:10176000DF93C7E5D2E060E0CE010E9437272196E3
:10177000C11584E0D807B9F7DF91CF9108951F9381
:10178000CF93DF93122F8430E0F46A30D0F44730E7
:10179000C0F4C42FD0E0CC0FDD1F9EE0699FC00DC8
:1017A000D11D11249CE8899FC00DD11D1124632FE8
:1017B000CE0187960E943727612FCE0188960E941E
:1017C0003727DF91CF911F910895AF92BF92CF92AB
:1017D000DF92EF92FF921F93CF93DF938EE4C82E98
:1017E00084E0D82ED0E07601C0E014C0F501259148
:1017F0003491412F6C2F8D2F0E94BF0B82E0A80ED9
:10180000B11C1F5F173091F78EE0E80EF11CCF5F1F
:10181000CA3019F0570110E0E9CFDF5F8CE8C80E3D
:10182000D11CD43001F7DF91CF911F91FF90EF9041
:10183000DF90CF90BF90AF900895CF93C82F6FEFF8
:10184000811163E283E290E00E9437276FEFC111BC
:1018500064E084E290E00E9437276FEFC11162E0FC
:1018600085E290E00E943727CF91089580E00E94A2
:101870001D0C60E086E290E00E9437270E94E50B95
:101880000E94AF0B81E00E941D0C08950F931F93DF
:10189000CF93DF93843030F56A3020F5473010F570
:1018A000C42FD0E0CC0FDD1F2EE0629FC00DD11DF4
:1018B00011243CE8839FC00DD11D1124CE018796D1
:1018C0000E942327082F10E0102F0027CE018896B2
:1018D0000E9423279801282BC901DF91CF911F91E6
:1018E0000F91089590E080E0F8CF462F843040F4C7
:1018F0007A3030F4673020F4672F0E94460C089548
:1019000090E080E00895CF92DF92FF920F931F93B3
:10191000CF93DF936C010091D40280910C02082BCD
:10192000C7E0D0E010E0FC2EC8010C2E02C0959557
:1019300087950A94E2F780FD0CC02197A0F7F12C5F
:101940008F2DDF91CF911F910F91FF90DF90CF905E
:101950000895B6018C2F0E94750C0E94DE07019736
:1019600061F3EECFCF93DF93EC010E94830CBE01B5
:101970000E94750C0E94DE07DF91CF910895FC0153
:1019800083819481892B29F08081918189238F3FE4
:1019900051F480E00895843FE1F717C0883EA8F035
:1019A000813FB9F712C0808191810E94B20C92955B
:1019B0009F70963099F358F4925F9F70923048F779
:1019C000803F19F040F7883E20F781E008959A5F44
:1019D000F4CF83E290E00E942327833289F484E2EB
:1019E00090E00E942327843059F485E290E00E9421
:1019F000232791E0823009F090E0892F81700895CB
:101A000080E0FCCFCF9384E090E00E942327C82F92
:101A100082E290E00E942327982F8C2FCF91089587
:101A2000B0E0A0E0E6E1FDE00C947826FC016280E5
:101A3000448081E08483EEE4F3E07490EDECF3E025
:101A4000E491C0E7D2E03FE4E32E32E0F32E47EA30
:101A5000C42E42E0D42E52E0A52EBB24B394882499
:101A60008A94912C55245A94E7190E2F10E082E0A5
:101A7000861530F08091A80288838091A90289831D
:101A8000411019C01B821A824A81493708F048E781
:101A90009701698188810E94C705259683E0E80E39
:101AA000F11CCC16DD0619F70E94950ACDB7DEB7FA
:101AB000E0E10C9494268B818823E9F081508B839C
:101AC000859DC00111246C8170E00E944126FB01BC
:101AD000FF27E25BFC4F8491E82FE719E59DC001E9
:101AE0001124B8010E9441268091AA02689FB0018A
:101AF00011247A83C9CF0E94F9262091AA02269543
:101B000021582A9DA0012B9D500D1124452F5527AA
:101B1000841795070CF0B8CF82E0861588F40E94F0
:101B2000F926B4010E94552688830E94F926209147
:101B3000A9022695622F70E00E945526280F29835E
:101B40001A828091AA02893C20F088EC8C838B83D6
:101B50009BCF8431D8F784E1F9CFCF92DF92EF9217
:101B6000FF926B017C010E94B105B701A60188E0DC
:101B700090E00E944927FF90EF90DF90CF9008956A
:101B8000A3E0B0E0E6ECFDE00C947926E82E762E9A
:101B9000F42E622E9091A70290FF2EC0E92FE695B9
:101BA000AE2FB0E0A259BE4F8C9180934C029E7F25
:101BB000923031F588E7841708F448E79E012F5FDB
:101BC0003F4F672D8E2D0E94C7054B8169818A8109
:101BD0000E945F0BE092A8027092A902F092AA0202
:101BE000662051F06091A7027091A8028091A9022D
:101BF0009091AA020E94AD0D2396EFE00C949526D9
:101C0000823019F4F090AA02E5CF863019F4E09002
:101C1000A802E0CF8930D9F38531E1F6E5519E2F56
:101C20009170592EE695F0E0E75BFC4FE4910E2FA2
:101C300010E08FE4C82E82E0D82EB12CA12C9BE0BE
:101C4000892E912CC501B4010E9441268E2D511080
:101C500017C0860F4F2D98E79F1508F448E79601A7
:101C6000672D0E94C705A00EB11E83E0C80ED11CCF
:101C700090E7C91692E0D90629F70E94950AAACFE3
:101C8000861BE8CFE7EAF2E0438121E1421B08F43A
:101C900040E021E0628181810E94C00D0895E7EA61
:101CA000F2E0438121E1420F08F44FEF21E062812D
:101CB00081810E94C00D0895E7EAF2E0628121E18E
:101CC000621B08F460E021E0438181810E94C00D25
:101CD0000895E7EAF2E0628121E1620F08F46FEF14
:101CE00021E0438181810E94C00D0895E7EAF2E07E
:101CF000818121E0438162818A500E94C00D089554
:101D0000E7EAF2E0818121E043816281865F0E94FF
:101D1000C00D08958091AB02882319F08150809303
:101D2000AB026091A7027091A8028091A9029091E4
:101D3000AA020E94AD0D08958091AB02833018F481
:101D40008F5F8093AB026091A7027091A80280918F
:101D5000A9029091AA020E94AD0D08959091A70248
:101D600090FF2CC0917081112AC092609093A702BD
:101D7000662351F06091A7027091A8028091A90298
:101D80009091AA020E94AD0D6091A702669570E045
:101D90004BE050E080E191E00E940927892BB1F0EF
:101DA00010924D0281E08093490220E04091AA0206
:101DB0006091A9028091A8020E94C00D0895853209
:101DC00010F09864D3CF880F982BD0CF81E0809308
:101DD0004D020E9465059093470280934602E2CF30
:101DE0008091A7028695815009F484E261E00E9407
:101DF000AE0E08958091A70286958F5F853208F018
:101E000081E061E00E94AE0E08959091A70290FFDC
:101E100008C09695981728F0961718F40E94FA0EA5
:101E2000089561E00E94AE0E0895E7EAF2E083E0D3
:101E3000808311828FEF828388E78383148260819D
:101E40007181828193810E94AD0D089580910A0273
:101E500090910902892B8093A40190910B02992300
:101E600091F0892B8093A40120E086EA91E0FC01A7
:101E70003191CF0131112F5FF1E08C3A9F07B9F713
:101E800021110E946B0948E050E061E072E084EAB1
:101E900091E00E941627892BA9F088E0E4EAF1E09E
:101EA000A1E0B2E001900D928A95E1F7E091AE02D7
:101EB000F091AF02309731F00280F381E02D84EA97
:101EC00091E00995089590E080E00E94870590E0F8
:101ED00080E00E947105109209020E94260F86E0A0
:101EE000E0E4F2E0DF011D928A95E9F710923A02F0
:101EF0001092390210923B020E945D060895809371
:101F0000D4020E94630F08958091D402982F967096
:101F1000963021F488600E947F0F0895877FFBCF61
:101F200021E030E001C0220F8A95EAF720958091E8
:101F3000D40282230E947F0F089590910002809521
:101F4000892380930002282F277091F4282F082ED0
:101F5000000C330B9217130659F090911B0292FF5D
:101F600007C08595859585950E94900F1092000277
:101F70000895CF93C0911B02C2FB992790F998173F
:101F800091F080FBC2F9C0931B0260911A0284E0B9
:101F900090E00E9437276C2F82E290E00E94372762
:101FA00082E00E949D0FCF91089521E030E001C0B2
:101FB000220F8A95EAF78091D402822B0E947F0F2C
:101FC000089580930C020E94630F0895882321F0E6
:101FD0000E9471090E94260F0895882339F090917C
:101FE0000A02982B90930A020E94260F08958823D4
:101FF00009F455C0823879F40E949D0581FF4FC0D5
:1020000089E30E9485090E94260F89E30E947809CE
:102010000E94260F0895833859F40E949D0580FF81
:102020003EC083E50E9485090E94260F83E5EECF1E
:10203000843859F40E949D0582FF31C087E40E94D4
:1020400085090E94260F87E4E1CF9CEF980F913A13
:10205000E8F290E2980F983050F4877091E001C058
:10206000990F8A95EAF7892F0E947109D1CF9BE5D4
:10207000980F933028F490E080E00E94870508953F
:1020800098E5980F973128F490E080E00E94710560
:102090000895803F20F00E9484060E945D06089506
:1020A000CF93C82F8823C9F08238C9F40E949D05B8
:1020B00081FD13C089E30E9485090E94260F2FEF3E
:1020C00087EE93E0215080409040E1F700C000008F
:1020D00089E30E9478090E94260FCF9108958338E2
:1020E000A1F40E949D0580FDF8CF83E50E9485093B
:1020F0000E94260F2FEF81EE94E021508040904007
:10210000E1F700C0000083E5E4CF8438A1F40E9429
:102110009D0582FDE2CF87E40E9485090E94260F7B
:102120002FEF81EE94E0215080409040E1F700C015
:10213000000087E4CECF8CEF8C0F813A68F4E6EA9A
:10214000F1E08191C817E1F121E0EC3AF207C9F71B
:102150008C2F0E948509BFCF80E28C0F883068F4F5
:10216000C77021E030E001C0220FCA95EAF78091E4
:102170000A02822B80930A02AECFEBE5EC0FE3302C
:1021800040F4F0E0E45EFE4F808190E00E9487051D
:10219000A4CFE8E5EC0FE73150F4F0E0EE0FFF1FBD
:1021A000E15EFE4F808191810E94710596CFC03F14
:1021B00008F493CF8C2F0E943F070E945D068DCFBD
:1021C0008C2F0E9478090E94260FC2CF1F93CF93B5
:1021D000DF93182FD0E0C0E0893311F4C0E5D0E0E0
:1021E000812F0E945010209739F4812F0E94F70F01
:1021F000DF91CF911F9108958FE99FE00197F1F74B
:1022000000C000002197EFCF0F931F93CF93DF9370
:10221000C62FD42F022FFC0182818823A9F060935E
:10222000D3020E9465059093D2028093D102C770B9
:1022300081E001C0880FCA95EAF70E94ED0FDF9197
:10224000CF911F910F9108958091D302681332C0EE
:102250008091D1029091D2020E944A05883C91055A
:1022600048F510E21D0FCD17B9F080E28C0F8830D1
:1022700040F4C77081E001C0880FCA95EAF70E9458
:10228000E60F183048F481E09D2F977001C0880F49
:102290009A95EAF70E94ED0F802F0E94E610183001
:1022A00070F6D77081E001C0880FDA95EAF70E94D6
:1022B000E60FC5CFC77081E001C0880FCA95EAF765
:1022C000F6CF68EE7EEF90E080E00E94552760E058
:1022D00082E090E00E94372760E083E090E00E9477
:1022E000372710920C0260E084E090E00E943727CC
:1022F00064E082E290E00E94372760E085E090E0B1
:102300000E94372760E086E090E00E9437276FEF59
:1023100087E090E00E94372740E050E0BA0188E073
:1023200090E00E94492760E08DE090E00E9437270E
:1023300040E050E0BA0188E190E00E94492760E067
:1023400087E190E00E94372740E050E0BA018CE13D
:1023500090E00E94492770E060E080E290E00E94F7
:10236000552740E050E0BA0188E190E00E944927FB
:1023700080E00E941D0C0E94360C40E050E0BA0143
:102380008FE090E00E94492740E050E0BA0183E1ED
:1023900090E00E94492708952F923F925F926F929A
:1023A0007F928F929F92AF92BF92CF92DF92EF92E5
:1023B000FF920F931F93CF93DF9380E1282E82E04B
:1023C000382E95E1A92E92E0B92E0DE411E0912C62
:1023D000EE24E394F12CE10179901E01DE011E92BE
:1023E000F80181918F01E82FE295EF70F0E091A163
:1023F0008F70B70101C0660F8A95EAF7892F862B87
:1024000081A382A1862E8094882182A380EA8A9566
:10241000F1F747E551E06A0130E020E0E60159902C
:102420006E01852D82958F7090E0EC0188A16C90F3
:1024300090E0D52DDF7002C095958795DA95E2F78B
:1024400080FDB6C08E2D022E01C0880F0A94EAF7D7
:1024500086298C932F5F3F4F27303105F9F681A1F4
:10246000882281A282A1682B62A381E09C919711AE
:1024700001C080E0982AA214B30409F0ACCF30E088
:1024800020E061E070E0A2E5B1E0FA018191AF01E6
:10249000E82FE295EF70F0E0C1A18F708B0102C0D0
:1024A000000F111F8A95E2F7C8019C2F982B91A36A
:1024B00092A18095892382A310EA1A95F1F7CB01A6
:1024C000022E01C0880F0A94EAF7B82E882E809455
:1024D00005E112E0CDE4D1E0E12CF801F1908F01AB
:1024E000A9908A2D82958F7090E0FC0180A1C82E62
:1024F000D12CEA2DEF7002C0D594C794EA95E2F78B
:10250000C8010197DB2CDF28C0FE02C0D82CDF20D9
:10251000FC01D0828081F81611F0EE24E394AC1710
:10252000BD07D9F6FA0131978081E82FE295EF7067
:10253000F0E011A18F70EB0101C0CC0F8A95EAF792
:102540009C2F9095912391A382A18C2B82A39E28EE
:102550002F5F3F4F2730310509F097CF992051F178
:1025600081E080930F020E94650590930E02809394
:102570000D0280910D0290910E020E944A0505976E
:10258000E8F04AE050E060E172E08FE292E00E9401
:102590001627892B31F18AE0E0E1F2E0AFE2B2E008
:1025A00001900D928A95E1F781E010920F0207C029
:1025B00080E04ECF80910F028111DBCF80E0DF9170
:1025C000CF911F910F91FF90EF90DF90CF90BF9030
:1025D000AF909F908F907F906F905F903F902F90E3
:1025E000089580E0E2CF90E080E00E943127883EAD
:1025F0009E4F19F40E94E90C089580E0089510920E
:102600000A02E6EAF1E086E0DF011D928A95E9F729
:102610000E94630F0895AAE2B0E0E1E1F3E10C94B7
:10262000852689EC92E02091F100DC012D93CD010B
:10263000B2E0813D9B07B9F78091CA02833009F46B
:1026400072C0B8F4813009F449C0823009F4B3C0D3
:102650008091E80083FF8BC28091C9029091CA02E9
:102660009A3008F084C2E92FF0E0E053F84D0C9462
:1026700069268A3009F48EC08B3009F471C0893024
:1026800039F78091C902813219F78091CD0290917A
:10269000CE02009711F00297D9F68091E800877F6B
:1026A0008093E8008091E80082FF38C09091F300A9
:1026B0008091F200029731F48091F100813011F0A5
:1026C000863021F48091F1008093BC028091E80073
:1026D0008B778093E8000E942B04BACF8091C902C7
:1026E000813A09F0B5CF8091E800877F8093E800B8
:1026F0008091CD029091CE02892B61F468E08DEB40
:1027000092E070E00E94D7048091E8008B7780937C
:10271000E8009ECF60E090E080E0F3CF8091C702B8
:102720008111C0CF95CF8091C902813A09F090CF35
:102730008091CD029091CE02892B09F089CF8091B2
:10274000E800877F8093E8008091E80080FFFCCF5D
:1027500080911B018093F1008091E8008E77B9CFC2
:102760008091C902813209F073CF8091CD0290919E
:10277000CE02892B09F06CCF8091E800877F80938F
:10278000E8000E942B048091CB0280931B010E94E1
:10279000FF125ECF8091C902813209F059CF80913A
:1027A000E800877F8093E8000E942B048091CC0290
:1027B0008093BB024DCF8091C902813A09F048CF86
:1027C0008091E800877F8093E8008091E80080FF97
:1027D000FCCF8091BB02BECF803899F0823809F0DF
:1027E000C6C18091CD028F70873008F0C0C1809340
:1027F000E9008091EB0085FB882780F91092E900C1
:1028000006C08091C5029091C6029111826090919C
:10281000E800977F9093E8008093F1001092F10018
:102820008091E8008E779FC1882309F48DC18230A2
:1028300009F09DC18091CB02811190C18091CD02A0
:102840008F702FEF280F263008F091C18093E90098
:102850002091EB0020FF82C1933031F48091EB0096
:1028600080628093EB007AC19091EB00906190932D
:10287000EB0021E030E001C0220F8A95EAF72093B7
:10288000EA001092EA008091EB008860EACF8111A3
:102890006EC11091CB021F778091E3008078812B6D
:1028A0008093E3008091E800877F8093E8000E9496
:1028B0002B048091E80080FFFCCF8091E3008068CA
:1028C0008093E30082E0111183E08093C7024FC13F
:1028D0008058823008F04BC12091CB023091CC025D
:1028E0002C3DE3E03E07A1F583E08A838AE28983F9
:1028F0004FB7F894DE01139620E03EE051E2E32F5B
:10290000F0E050935700E49120FF03C0E295EF7090
:102910003F5FEF708E2F90E0EA30C0F0C7968D9346
:102920009D932F5F243159F74FBF8091E800877F37
:102930008093E8006AE270E0CE0101960E94D7041D
:102940008091E8008B778093E80011C1C096E7CFB3
:102950008091CD029091CE02432F552743305105EF
:1029600009F44AC078F54130510509F47AC08BE585
:1029700090E0EEE7F6E04230510509F0F8C0209112
:10298000E800277F2093E8002091CF023091D00209
:102990008217930708F49C0140E02115310509F0E6
:1029A00065C0411163C08091E80082FDC9CF80916C
:1029B000C702882329F2853019F28091E80083FF4D
:1029C000F2CFBECF4132510509F43CC0423251052D
:1029D00009F0CDC08330910508F0C9C0FC01EE0FAD
:1029E000FF1FEA56FE4F0190F081E02D8D569E4F5D
:1029F000DC018C9190E01AC0332721303105D1F0F1
:102A00002115310561F02230310509F0B0C0EBEE3F
:102A1000F6E0E4918E2F90E0EBEEF6E007C0EFE1F8
:102A2000F7E0E4918E2F90E0EFE1F7E0009709F4F2
:102A30009EC0A5CFEFEFF6E0E4918E2F90E0EFEF90
:102A4000F6E0F4CF8330910508F091C0880F991F0C
:102A5000FC01E456FE4F0190F081E02D89E090E00A
:102A60008ECF82E190E0E9EDF6E089CF8091C70258
:102A7000882309F465CF853009F462CF8091E8009E
:102A800083FD5ECF8091E80082FD8DCF8091E800CC
:102A900080FF83CF9091F3008091F20021153105E2
:102AA00019F08830910550F041E0089709F040E0B6
:102AB0008091E8008E778093E8006FCF4491409337
:102AC000F1003196215031090196E8CF803809F0A4
:102AD0004EC08091E800877F8093E8008091C80213
:102AE0008093F1009DCE811142C01091CB02123033
:102AF000F0F58091E800877F8093E8001093C8028A
:102B00000E942B04112311F084E005C08091E300A2
:102B100087FDFACF81E08093C70242E061EC81E05B
:102B20000E944A0442E261EC84E00E944A0442E2CC
:102B300061EC82E00E944A0442E260EC83E00E9481
:102B40004A048091C70213C08091CB02813079F48E
:102B500081E0933009F080E08093C6021092E90092
:102B60008091E800877F8093E8000E942B04809189
:102B7000E80083FF0AC08091E800877F8093E80027
:102B80008091EB0080628093EB00AA96E3E00C94C6
:102B9000A1260E94FF122FEF84E39CE02150804089
:102BA0009040E1F700C0000088E19AE00FB6F89489
:102BB000A895809360000FBE90936000FFCFA5E0C2
:102BC000B0E0E5EEF5E10C9477268C01FC01838101
:102BD0009481892B31F08081918189238F3F09F085
:102BE000D0C52596E1E10C9493260E94830CF82E23
:102BF000682F89819A810E94DC0969817A818F2DF1
:102C00000E94750C7C01F8018281882309F4ACC50F
:102C1000970122513F452031310508F078C58FEFEB
:102C200093E00E942327811128C0FEEEEF0E57E5A6
:102C3000852E52E0952EE11032C01C821B82442466
:102C400043944AE0342E74018FEFE81AF80AC40165
:102C50000E94232789831A82882379F09FEF980F97
:102C6000933058F58A83498292E0890E911CC701FE
:102C70000E9423278B83811121C0809100028770DD
:102C800009F4AFCFF8018281882309F4AACF80919B
:102C90001B0282FFA6CF82E00E949D0FA2CF81146B
:102CA00024E0920651F3C4010E942327811101C040
:102CB000EA943FEF831A930ABECF4701FE01319693
:102CC0007F01F7012081222309F4BDCF213009F0D3
:102CD00047C091818281913031F4F2E0EF0EF11C16
:102CE0000E94E61007C0923049F422E0E20EF11C87
:102CF0000E9450103FEFE31AF30AE3CF933031F410
:102D000032E0E30EF11C0E94F70FF4CF943021F073
:102D10008FEFE81AF80AEECF92E0E90EF11C30E0EE
:102D200020E0B7016F5F7F4FF70141818053990B1E
:102D30008A30910550F021503109E0F28FE99FE08F
:102D40000197F1F700C00000F6CF329EF001339EEC
:102D5000F00D11249C012E0F3F1F842F7B01E1CF2A
:102D6000E22FF0E0E754FE4F5490822F869586952F
:102D7000869590E0FC01E755FE4F64902770712C1A
:102D8000022E02C0759467940A94E2F7E1E06E2285
:102D90007724FC01E756FE4FA490B12C022E02C00E
:102DA000B594A7940A94E2F7F1E0AF22BB24FC01AA
:102DB000E757FE4FC490D12C02C0D594C7942A95F2
:102DC000E2F721E0C222DD246114710419F081EEE2
:102DD0000E945010A114B10419F086EE0E94501008
:102DE000852D0E94E610A114B10419F086EE0E9410
:102DF000F70F6114710419F081EE0E94F70FC114EE
:102E0000D10409F477CF8CE26BCF81E00E94D50F1B
:102E10000E94840F32CF81E00E94900FF9CF82E0B0
:102E2000F5CF95EFE9169CE5F90609F46CC008F4B6
:102E300066C027E245EE66EEF6EFEF16FCE5FF060C
:102E400009F48EC4882309F4ADC41092D30223E0A0
:102E5000E2162DE5F20608F05DC03AEFE3163CE518
:102E6000F30630F4C70182509C45449708F05FC0D8
:102E70000E94020D90931B0280931A02F2E1EF165A
:102E8000FCE5FF0609F476C108F0B4C039E0E316AA
:102E90003CE5F30609F44CC108F077C095E0E9166B
:102EA0009CE5F90609F434C108F05DC0F3E0EF16C3
:102EB000FCE5FF0609F424C108F026C180911A023E
:102EC000816032E0E3163CE5F30609F490C06091BE
:102ED0001A02F0901B0284E090E00E9437276F2DC9
:102EE00082E290E00E9437270E94FF12C6CE27E2BE
:102EF00045EE65EE35C426E241EE60EE31C427E2D0
:102F000045EE64EE2DC426E241EE62EE29C428E2CD
:102F100041E0EFCF85EAE8168DE5F80609F4A8CF81
:102F2000E0F4E1E6EE16EDE5FE0609F4A1CF96E148
:102F3000E9169CE5F90609F0E7C480910A028A7A4D
:102F400091E009F490E09093AC0181113DC189E2D8
:102F50000E9485090E94260F90CEC7018D5A9D457B
:102F6000039728F785CF87E0E8168CE5F80609F483
:102F7000DBC080911A02806198E0E9169CE5F906B1
:102F8000B0F180911A02806432C0EDE0EE16ECE5FB
:102F9000FE0609F4D7C0A0F480911A028E7F2BE0C0
:102FA000E2162CE5F20619F180911A028C603CE0E1
:102FB000E3163CE5F306D8F080911A028D7F17C026
:102FC0008FE0E8168CE5F80609F4CCC008F4BEC022
:102FD000E0E1EE16ECE5FE0609F4C8C080911A02A5
:102FE0008F7BF1E1EF16FCE5FF0609F070CF8093CF
:102FF0001A026DCF2FEFE2162CE5F20609F4C4C0D9
:10300000D8F58AEFE8168CE5F80609F485C0D0F407
:10301000E4E1EE16ECE5FE0609F4C4C008F4B0C025
:1030200025E1E2162CE5F20609F051CF80911A0253
:1030300082FB992790F921E0922790FB82F990FB7F
:1030400083F9D5CF3CEFE3163CE5F30609F482C0E3
:1030500008F466C09DEFE9169CE5F90609F47EC008
:1030600080911B028360EEEFEE16ECE5FE0609F0A0
:103070002ECF80931B022BCFF1E6EF16FDE5FF0666
:1030800009F49BC0A0F431E0E3163DE5F30609F432
:1030900092C008F47DC060E092E0E9169DE5F90673
:1030A00009F015CF8EE090E00E94372710CFEDEAAF
:1030B000EE16EDE5FE0601F168F490911A02892FF3
:1030C0008E7F90FF816025EAE2162DE5F20609F475
:1030D0008ECFFDCE3EEAE3163DE5F30679F18FEAA9
:1030E000E8168DE5F80609F0F2CE90911B02892FC3
:1030F000877F93FF8860BDCF80911B028860B9CF26
:1031000080911A02826073CF80911A0284606FCF1F
:1031100080911A0288606BCF80911B028160A9CFD9
:1031200080911B028260A5CF80911A0280625FCFDE
:103130000E94FF1280911A02806859CF80911B0271
:10314000877F97CF80911A028B7F51CF80911A028F
:10315000877F4DCF80911B028E7F8BCF80911B028A
:103160008D7F87CF80911A028F7E41CF80911A0286
:103170008F7D3DCF0E94FF1280911A028F7737CF4B
:1031800080911A02837F33CF80911B028C7F71CF95
:1031900080911B02982F909591708E7F892B90FBC8
:1031A00081F967CF0E94FF1290911A02892F97FB35
:1031B00087F980581CCF61E075CF90911A02892F52
:1031C0008F7E94FF806113CF85E3C2CE8091AC01E6
:1031D000811104C089E20E947809BCCE85E3FBCF4F
:1031E00081608093A70261E086950E94AE0E45CD76
:1031F00040EF5EE06AEF7EE00E94AA053ECD4AEF16
:103200005EE060EF7EE0F8CF40E85EE066E77EE0FB
:10321000F3CF4CE55EE069E67EE0EECF42E45EE0AF
:103220006FE47EE0E9CF4FE45EE062E47EE0E4CF6D
:103230004CE95EE06AE87EE0DFCF61E081E0D5CF77
:1032400065E082E00E94050F18CD68E086E0FACFC5
:1032500064E18FE0F7CF6EE185E1F4CF0E94FF12C9
:103260003FEF84E39CE0315080409040E1F700C0A4
:1032700000000E94390580911B0282FB882780F99B
:1032800091E089270E94B90FF8018281E080F180E6
:10329000882309F445C0C7010E94830CD82E682FEB
:1032A000C7010E94DC09B7018D2D0E94750C0E9498
:1032B000DE077C01882EF801D280B580B2943FE011
:1032C000B322809100028770C1F0AD2CDD20B1F0F7
:1032D0008F2D807F803421F080E28E0D883068F061
:1032E00080911B0282FF09C082E00E949D0F8091A5
:1032F00000028770AA24A3948111A12C9F2C929480
:103300002FE09222FBE0F91508F479C0E92DF0E0F6
:10331000E652F84D0C94692681E0B4CF80E0B2CF3C
:10332000C7010E94A809D82EBECF2F2D2F70C22E04
:103330008F2D807F19F0C29490EFC922DD20B9F063
:10334000CC2069F080E28E0D883010F0811009C029
:1033500080910A02C82AC0920A020E94260F8E2D6E
:103360004CC080910902C82AC0920902F6CF8E2D66
:103370000E94F70FCC2009F442C080E28E0D883005
:1033800010F0811004C08C2D0E94710906C0C094F9
:1033900080910902C822C09209020E94260F2FC004
:1033A0003F2D3F70C32E8F2D807F803219F0C29445
:1033B00080EFC822882089F081E0881609F468C06F
:1033C000DD2009F472C0BB2009F468C0F8018581D2
:1033D00080FFC5CF8F70858361C020911B0222FDC5
:1033E00035C0DD2069F1CC2039F080910A02C82A6D
:1033F000C0920A020E94260F80E00E945010292DE0
:103400002850330B2430310510F40E949D05AA206A
:1034100009F4E7CB8091000280FDE3CBF801128232
:103420008595859585950E94D50FC8010E94DF1569
:10343000809100028595859585950E94900FD1CB4E
:1034400080E00E94F70FCC20D1F29DCFDD2099F0D3
:1034500090910B028C2D892BB11003C00E94ED0FAF
:10346000CECFE1E0BE12FACF22FFC9CF981739F2D2
:1034700080930B02C4CFB11006C00E946B098C2D43
:103480000E94E60FBCCFF1E0BF1609F4B8CFF5CF2C
:10349000DD2031F025E02B1508F4B1CF8C2DDECFE7
:1034A00034E03B1508F4ABCFEACFBB2041F3F9E39E
:1034B0008F1209C02FEF37EE83E02150304080405B
:1034C000E1F700C000008E2D0E94F70F98CF8F2DDE
:1034D00086958695837061F0813009F090CFC701A1
:1034E0009370D11002C090E080E00E94710587CFF8
:1034F000C7019370D11002C090E080E00E94870560
:103500007ECF8E2DDD2029F00E943F070E945D06B0
:1035100076CF0E948406FACF8F2D837091F5D1105B
:103520006ECF4E2D429546954770440F440F8E2D19
:103530008F70042E01C0880F0A94EAF72E2D207197
:10354000E4FE07C02FE030E001C0220F4A95EAF701
:1035500020953F2D369536953370323069F050F412
:1035600040910C02313029F0822B84230E94E10F1C
:1035700046CF842B822BFACF282B80910C028227F6
:10358000F5CF8695DD2011F08F2D8170882309F409
:1035900036CF4E2D429546954770440F440F8E2DE1
:1035A0008F70042E01C0880F0A94EAF72E2D207127
:1035B000E4FE07C02FE030E001C0220F4A95EAF791
:1035C00020953F2D369536953370323069F050F4A2
:1035D0004091D402313029F0822B84230E947F0F46
:1035E0000ECF842B822BFACF282B8091D4028227F6
:1035F000F5CF9F2D9F70F92EDD2029F0892F0E9495
:10360000D50F8E2D2BCF8E2D0E94E60F8F2D0E9471
:10361000900FF5CE8E2DE2EF8E16B1F1E81570F019
:10362000F0EF8F16D1F021EF821691F0DD2009F432
:103630005EC0B11094CE8F2D8F712AC033EF8316E8
:1036400051F194EF8912F2CF80911B0282FD2FC0BD
:103650008F2D8F71DD20D9F21BC0DD2081F0E4E0D9
:10366000EB1508F4CCCE2F2D2F7181E090E001C036
:10367000880F2A95EAF79091D4028927AFCFF5E019
:10368000FB1508F4BCCEEFCF8F2D8F71D110BFCFBB
:103690000E94D50FB4CE80E0DD2009F49FCF9F2D8E
:1036A0009F7181E001C0880F9A95EAF797CFDD20DE
:1036B00099F02F2D2F71F22E822F0E94D50F80911D
:1036C0001B0282FF07C038E0F39EC0011124836013
:1036D000809300028F2DDCCF81E00E949D0F81E05E
:1036E0008B1508F08CCE82E00E949D0F88CEBB2007
:1036F00059F0893309F0E7CE9FEFE7EEF3E0915000
:10370000E040F040E1F7DDCE8F2D8F7180CFF0E10A
:10371000EF16FFE5FF0609F478CB21E1E2162FE56D
:10372000F20609F47CCB93EFE9169CE5F90609F45F
:10373000E2CB08F076CBF8EDEF16FCE5FF0609F4D6
:10374000D6CB29EDE2162CE5F20609F4E0CB37EDF5
:10375000E3163CE5F30609F075CB26E241EE61EE97
:10376000C8010E94041189CA30E1E3163FE5F3065F
:1037700009F451CB91E1E9169FE5F906A1F682E043
:103780004BCB85E0DE01119601900D928A95E1F711
:10379000F801228189819A81211127CA0E94A809F2
:1037A000F82E2BCAF6E1EF16FCE5FF0609F40ECD64
:1037B00080910A0282722CECE2162CE5F20609F4E2
:1037C00037CD08F06DC096ECE9169CE5F90609F4D2
:1037D0001BCDE8F5F3ECEF16FCE5FF0609F408CD88
:1037E00028F532ECE3163CE5F30609F04DCD809167
:1037F000A70280FFF5CC8E7F8093A7026091A7027D
:103800007091A8028091A9029091AA020E94AD0D28
:1038100010924D02EFEFF0E722E0E150F04020403F
:10382000E1F700C000000E94950A27CA94ECE9164F
:103830009CE5F90609F4E3CC46E75EE060E87EE04B
:10384000E5ECEE16ECE5FE0609F4D6CC1DCDF9EC60
:10385000EF16FCE5FF0609F4E1CC88F437ECE3163B
:103860003CE5F30609F4D5CC49E65EE06CE57EE084
:1038700098ECE9169CE5F90609F4BECC05CDEAEC16
:10388000EE16ECE5FE0609F4CECC4AE85EE06CE903
:103890007EE0FBECEF16FCE5FF0609F4ADCCF4CCC2
:1038A00021EDE2162CE5F20609F4D2CCB8F48EEC48
:1038B000E8168CE5F80609F4C3CC08F4BECCEFECAE
:1038C000EE16ECE5FE0609F4C0CC6EE089E0F0ED02
:1038D000EF16FCE5FF0609F4B5CCD6CC24EDE216D4
:1038E0002CE5F20609F4B7CC08F4C7C985EDE81653
:1038F0008CE5F80609F4C1C964E28FE19DE5E9169B
:10390000F90609F49FCCC0CCEAE5EE16EDE5FE061B
:1039100009F402CD78F4E1142CE5F20609F49ECC0A
:103920003EEDE3163CE5F30609F0AECC0E946111D2
:103930000E94C9158CE5E8168DE5F80609F49BCCC4
:1039400008F4ECCCE7EAEE16EDE5FE0689F39CCC34
:103950001F93CF93DF938091CD01807F09F049C001
:103960008091CA01882309F444C08091FF01D0915D
:10397000CE016091C8017091C901A091CB01B091B5
:10398000CC01C62FC72316E0D81799F190E0109705
:1039900011F0CF3F19F401968770F6CF189F900170
:1039A000199F300D1124F901E153FE4F4181471356
:1039B000F2CF40814613EFCF42814111ECCF4381DA
:1039C00054814A1B5B0B483C510528F78091CD017F
:1039D0008F7080618093CD01F901EC52FE4F8081A0
:1039E0008F708061808388EC91E00E94DF150E94D7
:1039F0009E09DF91CF911F910895A1E1B0E0E3E02E
:103A0000FDE10C947E268C0185E0F801DE011D9617
:103A100001900D928A95E1F7F801E28088ECA82EDA
:103A200081E0B82E6091CB017091CC0161157105D8
:103A300009F426C19091C8014091C901892F8423BE
:103A40008F3F09F41DC120813181C380D480F09063
:103A5000CA01F601E61BF70BFF2009F4DCC08091D8
:103A6000CD01582F507FE83CF10508F09FC051115F
:103A70006BC0FE2C431314C0921312C0E11010C08F
:103A80008F7080618093CD01C5010E94DF15809108
:103A9000CD01F80185838F2D6196EAE00C949A267A
:103AA000C114D10429F0822F83238F3F09F003C171
:103AB00080E0F82FF170DF2E80FF3CC08091FF0185
:103AC0004091CE0156E0841315C02D873E878D8529
:103AD0009E850E94B20C292F22952F702230F0F083
:103AE000243018F59F70F1F0F8019581907FD1F4A2
:103AF000D12C1EC090E0589FF001599FF00D112469
:103B0000E153FE4F6181361306C06081261303C066
:103B10006281E6120FC001968770D5CF9F7011F0B9
:103B2000882331F3805E883018F3C8010E94DF15C6
:103B3000FD2CB1CFEE2009F4AECF8091CD01816094
:103B40008093CD01F12CA7CF431306C0921304C07C
:103B5000F801EE2009F479C0C8010E94BF0C882347
:103B600009F1EE20F9F08091CD01803270F02091C2
:103B7000C8013091C90138872F831986DB86CA8630
:103B80008C87CE0107960E94DF1586E0F801A8EC2D
:103B9000B1E001900D928A95E1F70E94A81CFF24E4
:103BA000F39479CFC8010E94DF15F9CF51110AC0F3
:103BB00088EC91E00E94DF1586E0F50111928A956C
:103BC000E9F7C0CF43130FC092130DC0E1100BC033
:103BD000F8018583C8010E94DF1586E0F501119286
:103BE0008A95E9F758CFC8010E94BF0C8823D1F20B
:103BF000EE20C1F28091CD01803238F22091C801CF
:103C00003091C9013A8329831B82DD82CC828E8365
:103C1000CE010196B8CFE83CF105F8F6FE2CEE2077
:103C200009F243131FC092131DC08091CD0180FD86
:103C300010C0982F907F69F0F8018583903F31F094
:103C4000982F907F905F8F70892B8583C8010E9489
:103C5000DF1586E0F801A8ECB1E001900D928A959D
:103C6000E1F719CFC8010E94BF0C81118ECF80915E
:103C7000CD0181608093CD01C8010E94DF150BCF7B
:103C8000EE2009F48FCFC8010E94BF0CF82E8823C4
:103C900009F488CF86E0F801A8ECB1E001900D921C
:103CA0008A95E1F78091C8019091C9010E94B20CF8
:103CB0000E94A81CF0CE81E08E25FBCEA7E1B0E0EB
:103CC000E4E6FEE10C9485264B8B5C8B6D8B7E8B42
:103CD0008F8B6111109209021A8A198A85E0FE0100
:103CE0007396DE011D9601900D928A95E1F786E0AC
:103CF000FE013D96DE01179601900D928A95E1F73F
:103D0000CE0107960E94FD1C882359F016E0809191
:103D1000FF019091CE01891343C06796E3E00C94B4
:103D2000A12686E0FE013796DE01119601900D92E4
:103D30008A95E1F78A859B85892B41F38F81988548
:103D400089238F3F19F32091CE0130E0C9010196FC
:103D5000877099274091FF014817190671F40E9456
:103D6000FF121092CE011092FF0186E0E8ECF1E024
:103D7000DF011D928A95E9F7C9CF96E0929FD001A5
:103D8000939FB00D1124A153BE4FFE0131960190B7
:103D90000D929A95E1F78093CE010E949E09B6CFCD
:103DA000819FC001112481539E4F0E94FD1C8823D6
:103DB00009F4B3CF8091FF0190E0019687709927B5
:103DC0008093FF01A4CF1F920F920FB60F92112480
:103DD0002F933F934F935F936F937F938F939F9313
:103DE000AF93BF93CF93DF93EF93FF93D091E9000D
:103DF000DF708091EC00C82FC17080FDC0E8109288
:103E0000E9008091F000877F8093F00078940E9411
:103E10000B131092E9008091F00088608093F0000D
:103E2000CD2BCF70C093E900FF91EF91DF91CF913F
:103E3000BF91AF919F918F917F916F915F914F91C2
:103E40003F912F910F900FBE0F901F9018951F92CA
:103E50000F920FB60F9211242F933F934F935F93BE
:103E60006F937F938F939F93AF93BF93EF93FF9342
:103E70008091E10082FF09C08091E20082FF05C0CD
:103E80008091E1008B7F8093E1008091DA0080FFD8
:103E900024C08091D80080FF20C08091DA008E7FFE
:103EA0008093DA008091D90080FF9DC080E189BDB8
:103EB00082E189BD09B400FEFDCF81E08093C70295
:103EC0008091BA02811109C00E94B1030E947C0452
:103ED0008091E20084608093E2008091E10080FFA5
:103EE00017C08091E20080FF13C08091E2008E7FB6
:103EF0008093E2008091E20080618093E2008091F3
:103F0000D80080628093D80019BC85E08093C702F6
:103F10008091E10084FF2BC08091E20084FF27C0E4
:103F200080E189BD82E189BD89B5982F917080FFBC
:103F3000FBCF8091D8008F7D8093D8008091E100E5
:103F40008F7E8093E1008091E2008F7E8093E2007B
:103F50008091E20081608093E2008091C802882312
:103F600009F447C084E08093C7028091C702809122
:103F7000E10083FF27C08091E20083FF23C080918E
:103F8000E100877F8093E10082E08093C702109276
:103F9000C8028091E1008E7F8093E1008091E20071
:103FA0008E7F8093E2008091E20080618093E20046
:103FB00042E060E080E00E944A048091F000886066
:103FC0008093F000FF91EF91BF91AF919F918F91FE
:103FD0007F916F915F914F913F912F910F900FBE05
:103FE0000F901F90189519BC1092C7021092BA0238
:103FF00074CF8091E30087FD93E09093C702B5CF23
:1040000078941F921FB61F9211248F939F93AF93A2
:10401000BF938091B3029091B402A091B502B09188
:10402000B6020196A11DB11D8093B3029093B40214
:10403000A093B502B093B602BF91AF919F918F91BB
:104040001F901FBE1F9018951F921FB61F9211241C
:104050008F939F93AF93BF938091B202811113C04E
:104060008091B3029091B402A091B502B091B602D2
:104070004196A11DB11D8093B3029093B402A09309
:10408000B502B093B602BF91AF919F918F911F90EF
:104090001FBE1F901895CDB7DEB7AA970FB6F8943C
:1040A000DEBF0FBECDBF85B7806885BF85B780688E
:1040B00085BF84B7877F84BF0FB6F894A895809199
:1040C0006000886180936000109260000FBE80E8FD
:1040D00090E00FB6F89480936100909361000FBE5A
:1040E00089E997E09093A3018093A2010E94B10314
:1040F0000E947C048091E20084608093E2007894C6
:104100008091C7028823A1F01091E9001F7090915F
:10411000EC00892F817090FD80E8182B1092E90047
:104120008091E80083FD0E940B131F701093E9003B
:1041300082E084BD93E095BD9AEF97BD80936E00B9
:104140000E94E90C811102C00E94360CADE4B1E07E
:104150009D0161E070E0F90181919F01E82FE295F6
:10416000EF70F0E011A18F70AB0101C0440F8A9590
:10417000EAF7942F9095912391A382A1842B82A397
:10418000F1E027353F0739F727E531E04EE551E00B
:10419000B90101E010E0FB018191BF01E82FE29538
:1041A000EF70F0E0D1A08F70780101C0EE0C8A951D
:1041B000EAF79E2D90959D2191A382A18E2982A33D
:1041C0004617570741F761E070E0F90181919F01BF
:1041D000E82FE295EF70F0E0F1A08F708B0101C045
:1041E000000F8A95EAF7902F90959F2191A382A1C5
:1041F000802B82A34217530741F761E070E08D9155
:10420000E82FE295EF70F0E041A18F709B0101C0B3
:10421000220F8A95EAF7922F9095942391A382A179
:10422000822B82A3F1E0A735BF0749F7E0E1F2E076
:10423000AFE2B2E011921D9222E0EA31F207D1F72B
:104240000E94F312811102C00E94611182E090E08D
:104250000E94232780931F020E94020D90931B024D
:1042600080931A020E94CC118FE39CE90197F1F729
:1042700000C000000E94CC1180912F0280FF08C076
:104280006FEF7FEF90E080E00E9455270E94390594
:1042900083E090E00E9423270E94E10F80911C029E
:1042A000811133C00E94F312811104C00E94611178
:1042B0000E94150F88E090E00E942B276093A702D0
:1042C0007093A8028093A9029093AA026E7F71F462
:1042D0000E94150F88E090E00E942B276093A702B0
:1042E0007093A8028093A9029093AA020E94B1053C
:1042F00010924D028091A70280FF04C060E0869575
:104300000E94AE0E81E080931C0281E080932C021B
:1043100024982C9A25982D9AEFE8F1E03197F1F73F
:1043200000C0000020912C024DE252E0FA018E2FD5
:10433000841B821708F461C084E091E09093AF027F
:104340008093AE02E8E16E2E712CF0E45F2EA9E3BB
:10435000EA2EA2E0FA2EB3E0CB2ED12C8091C70238
:1043600000E112E1853009F486C00E94CC1100E220
:1043700012E02AE232E0AFE2B2E0F80191918D91D1
:104380002E173F0709F481C09817C1F37FE2A72ECB
:1043900072E0B72E912CF50181905F01F801219018
:1043A0008F01281419F12824412C33243394822DB1
:1043B0008321A1F04EA29FA291E0882D832109F4D0
:1043C00090E098A70E9465058160782F9AA789A739
:1043D0004EA15FA168A58AA50E945E1E4394330C7E
:1043E000F7E04F12E4CFF8013197808293942AE0EE
:1043F0009212D1CF0E94590568C083B18295817015
:104400001D9904C090E0892B819391CF92E0FBCF5E
:104410008091C702843009F11092B2020FB6F8946D
:10442000A895609260000FBE5092600083B7817FB4
:10443000846083BF83B7816083BF7894889583B796
:104440008E7F83BF0FB6F894A89580916000886135
:1044500080936000109260000FBE8091C602882396
:1044600051F00E94CC11EFE2F2E081918111C6C3BC
:10447000EE16FF06D1F78091C702853009F4C8CF48
:104480000E94FF120E949D0570CF98137FCF0E945B
:1044900065058C0180911D0290911E020817190775
:1044A000A1F08FEF89A38AA31BA20E9465058160FA
:1044B000782F9DA38CA349A15AA16BA18DA10E9425
:1044C0005E1E10931E0200931D0280914D028823F0
:1044D000D1F180914C02E091A702E695E81BE093B0
:1044E0004802823009F03BC1F0E0EB5BFD4FE49104
:1044F0000E2F10E06BE9A62E6BE0B62E80914902DC
:10450000882361F0109249020E946505909347024A
:104510008093460210924B0210924A020E94650557
:10452000E0914602F09147028E1B9F0B8F3F9F4701
:1045300050F4E00FF11FF0934702E093460286E447
:1045400092E0F5010995912C812C80912C0298160E
:1045500008F447C181100E94590586E0E0E4F2E0CA
:10456000DE01119601900D928A95E1F710924202B8
:104570001092430210924402109245021B810C815A
:10458000812F802B09F448C080913E0290913F0218
:104590000E944A059C0190913A02992309F452C362
:1045A00025313105C8F19F3F19F09F5F90933A0282
:1045B000112359F00E941F079FEF11160CF491E090
:1045C000899F802D112480934202002359F00E947C
:1045D0001F079FEF10160CF491E0899F802D112486
:1045E00080934302309142023323B1F02091430281
:1045F000222391F045EB3403C0011124992309F4DF
:1046000049C19093420245EB2403900111243323C6
:1046100009F444C1309343021D810E81812F802B08
:1046200009F448C080913C0290913D020E944A05E5
:104630009C0190913902992309F4FFC2213531057B
:10464000C8F19F3F19F09F5F90933902112359F0F1
:104650000E94FD069FEF11160CF491E0899F802DBA
:10466000112480934402002359F00E94FD069FEF1D
:1046700010160CF491E0899F802D1124809345023F
:10468000309144023323B1F020914502222391F06E
:1046900045EB3403C0011124992309F403C190931D
:1046A000440245EB240390011124332309F4FEC096
:1046B0003093450246E050E0BE016F5F7F4F80E4DB
:1046C00092E00E941627892B61F48091420290911A
:1046D0004302892B90914402892B90914502892BAA
:1046E00011F00E945D0686E0FE013196A0E4B2E082
:1046F00001900D928A95E1F70E949D0590912E02FE
:10470000891721F080932E020E9459058091C702DB
:10471000843009F023CE83E08093E9008091E800A3
:1047200082FF1CCE8091E80090E085FF06C00E94C9
:10473000D003882309F4BEC091E08091E8008B7714
:104740008093E800992309F409CEE981E150E3312F
:1047500008F023C1F0E0EA51F84D0C946926863048
:1047600059F4F0E0EE5BFD4FE4910E2F10E05BE8B2
:10477000A52E5BE0B52EC2CE893061F4E695F0E05F
:10478000E15CFD4FE4910E2F10E042E3A42E4BE0DC
:10479000B42EB4CE8F3061F4E695F0E0E45CFD4FCA
:1047A000E4910E2F10E03AECA32E3AE0B32EA6CE01
:1047B00000ED17E090EBA92E95E0B92E8F3109F0AE
:1047C0009DCE8E2F63E00E942726E92FF0E0E75C64
:1047D000FD4FE4910E2F10E020E1A22E2DE0B22E2D
:1047E0008DCEA92CB12CE3B1E295E1701D9950C09A
:1047F00080E08E2BD501A35DBD4FEC919E2F937071
:10480000891709F443C0EE0FEE0FE82BEC93EF701D
:10481000F0E0E25AFE4F8501055D1D4F8081F801F1
:104820009081890F808320E083308CF0F501E65D74
:10483000FD4F80818F5F808385E094E00E94830C30
:1048400065E074E00E94750C0E94E61021E0F8011A
:1048500080818E3F8CF4F501E65DFD4F80818150B3
:10486000808384E094E00E94830C64E074E00E9402
:10487000750C0E94E61021E0F8018081082E000CE2
:10488000990BB6010E9455268083822A93945DCEAF
:1048900082E0AFCF81E080934202B5CE81E0809389
:1048A0004302BACE81E080934402FBCE81E0809344
:1048B000450200CF80E2A82EB12C8E010F5F1F4F62
:1048C0008091E80085FD0AC08091E8008B77809395
:1048D000E8000E94D003882399F32ECF8091F10045
:1048E000F80181938F01F1E0AF1AB10849F724CFA5
:1048F0001A828AE08B8311C08A81823009F494C1C4
:10490000833091F1813009F048C00E9459050E941E
:104910006F266B837C838D839E838091C702843056
:1049200009F01CCD1091E9001F709091EC00892FC7
:10493000817090FD80E8182B82E08093E9008091DF
:10494000E80080FF0DC050E040E060E270E0CE0182
:1049500001960E9401048091E8008E778093E80020
:104960001F701093E900FACCDE011396EFE2F2E03B
:1049700081918D9322E0E933F207D1F7CECF8A817E
:10498000823059F46B817C818D819E810E946F26DB
:1049900086E290E00E943727C0CF8FEF8983BDCF9A
:1049A0004C816B818A810E94460C98278927982721
:1049B0009E838D83B2CF2D813E81322723273227DC
:1049C0004C816B818A810E94BF0BA7CF0E94E50BAF
:1049D000A4CF8A81813809F1A8F4803809F09DCFED
:1049E0008B8148E7849FC00111246FEF70E00E9423
:1049F0004126462F20E06091A9028091A8020E94E2
:104A0000C00D8BCF823859F1833809F086CF20E072
:104A10004091AA026C818B81F2CF60E08B810E9471
:104A2000AE0E9B818091A702911111C08E7F809361
:104A3000A70210924D028FEF90E7E2E08150904084
:104A4000E040E1F700C000000E94950A66CF816057
:104A50008093A70260E086950E94AE0E5ECF8B81A8
:104A60008093AB025ACF8A818138E1F078F48038A4
:104A700009F053CF8091AA02FFEF8F9FC00111244C
:104A800068E770E00E9441266B8347CF823891F03F
:104A9000833809F042CF8091A8028B838091A902CC
:104AA0008C833BCF8091A70280FF02C0869522CFE6
:104AB00080E020CF8091AB021DCF6091A702709162
:104AC000A8028091A9029091AA020E94AD0D25CF63
:104AD00080E18A8322CF81E08A8389EA0BCF0A8131
:104AE0001B81102701271027CE0101965C018C80C5
:104AF000FC01E80DF11D4F01C801895A9D4FA81412
:104B0000B90409F40ACF093AF1E01F0750F40E94F2
:104B10002327F50184830F5F1F4FFFEFAF1ABF0AF2
:104B2000EBCFF5011482F7CF0A811B8110270127F3
:104B30001027CE0101964C01AC80A00EB12EB11C05
:104B4000C801895A9D4FA016B10609F4E6CE093A6C
:104B5000E1E01E0720F4F40164810E943727FFEF93
:104B60008F1A9F0A0F5F1F4FEBCF0E94AF0BD5CE5E
:104B700084E0AFCF0A811B81102701271027CE01C7
:104B800001965C018C80FC01E80DF11D4F01C8010C
:104B900087968A149B0409F4C0CE0033F2E01F0705
:104BA00050F40E942327F50184830F5F1F4FFFEF0E
:104BB000AF1ABF0AECCFF5011482F7CF0A811B812F
:104BC000102701271027CE0101964C01AC80A00EC2
:104BD000B12EB11CC8018796A016B10609F49DCE6E
:104BE0000033E2E01E0720F4F40164810E943727BD
:104BF000FFEF8F1A9F0A0F5F1F4FECCF09BD19BD42
:104C000009B400FEFDCF8091D8008F7D8093D8003D
:104C10008091E00082608093E0008091E00081FD5F
:104C2000FCCF0E94FF1227CC86E290E00E9423274F
:104C30001B821C821D828E8370CE2B30310508F0C2
:104C400002CD38CD2B30310508F0AFCCE5CC991B27
:104C500079E004C0991F961708F0961B881F7A9573
:104C6000C9F78095089587FB082E062687FD819554
:104C700067FD61950E9427260EF4919507FC8195AA
:104C80000895AA1BBB1B51E107C0AA1FBB1FA61793
:104C9000B70710F0A61BB70B881F991F5A95A9F7E5
:104CA00080959095BC01CD01089597FB072E16F4D1
:104CB000009407D077FD09D00E94412607FC05D05B
:104CC0003EF4909581959F4F0895709561957F4F23
:104CD0000895EE0FFF1F0590F491E02D09946927C8
:104CE0009627692778278727782708952F923F925C
:104CF0004F925F926F927F928F929F92AF92BF92EC
:104D0000CF92DF92EF92FF920F931F93CF93DF9397
:104D1000CDB7DEB7CA1BDB0B0FB6F894DEBF0FBEF4
:104D2000CDBF09942A88398848885F846E847D8441
:104D30008C849B84AA84B984C884DF80EE80FD8043
:104D40000C811B81AA81B981CE0FD11D0FB6F894B9
:104D5000DEBF0FBECDBFED0108958F929F92AF923F
:104D6000BF92CF92DF92EF92FF92CF93DF93EC014D
:104D7000688179818A819B81611571058105910521
:104D800021F464E279ED8BE597E02DE133EF41E02A
:104D900050E00E946B2749015A019B01AC01A7EA30
:104DA000B1E40E948A276B017C01ACEEB4EFA5014F
:104DB00094010E949827DC01CB018C0D9D1DAE1D36
:104DC000BF1DB7FF03C00197A109B048888399832D
:104DD000AA83BB839F77DF91CF91FF90EF90DF9005
:104DE000CF90BF90AF909F908F9008950E94AD2676
:104DF000089580E091E00E94AD260895B0E0A0E023
:104E00008093000190930101A0930201B0930301EC
:104E10000895FC014150504030F001900616D1F742
:104E20003197CF010895882799270895FB01DC0168
:104E300004C08D910190801921F441505040C8F771
:104E4000881B990B0895F999FECF92BD81BDF89A00
:104E5000992780B50895A6E1B0E044E050E00C94B5
:104E60005D27A8E1B0E042E050E00C945D27262FDA
:104E7000F999FECF92BD81BDF89A019700B4021650
:104E800039F01FBA20BD0FB6F894FA9AF99A0FBEFE
:104E900008950396272F0E9438270E943727252F31
:104EA0000E943827242F0C9438270196272F0E9420
:104EB00038270C943727DC01CB01FC01F999FECF90
:104EC00006C0F2BDE1BDF89A319600B40D92415092
:104ED0005040B8F70895052E97FB1EF400940E94E9
:104EE000822757FD07D00E949D2707FC03D04EF470
:104EF0000C94822750954095309521953F4F4F4F08
:104F00005F4F089590958095709561957F4F8F4F75
:104F10009F4F08950E94BF27A59F900DB49F900DAD
:104F2000A49F800D911D11240895B7FF0C948A272A
:104F30000E948A27821B930B0895A1E21A2EAA1BB6
:104F4000BB1BFD010DC0AA1FBB1FEE1FFF1FA21739
:104F5000B307E407F50720F0A21BB30BE40BF50B36
:104F6000661F771F881F991F1A9469F760957095BF
:104F7000809590959B01AC01BD01CF010895A29F42
:104F8000B001B39FC001A39F700D811D1124911D1D
:104F9000B29F700D811D1124911D0895F894FFCFCB
:104FA000EC131414B7151414B71547146814B71577
:104FB0006615731595199519D019D019671A811AA4
:104FC000FF19FF198C1AF91A0A1B0A1B78247C2472
:104FD000BF24D024DB24E624E92433255D25CD2419
:104FE000CD2468256B256F259425B525B825BA25D0
:024FF000DE25BC
:104FF200010000003605680A470A420A3D0A3505E3
:105002000115161718191A1B1C1D1E01818283E235
:1050120000E900EA00B500B600B700CD008301CC7C
:10502200008A019201940121022302240225022610
:105032000227022A02B300B4006F00700092946645
:1050420097C60000000000F4F5F6F731333200FF96
:105052000100010000FFFF0000010001FF0000014C
:10506200020202020606060909090909090F0F0FC1
:105072000F0F0F151515151515151515151F1F1FD2
:105082001F1F1F40227B49012701AC009006A90681
:02509200C9064D
:00000001FF
