:100000000C94AE020C94CB020C94CB020C94CB0259
:100010000C94CB020C94CB020C94CB020C94CB022C
:100020000C94CB020C94CB020C9415210C94E92176
:100030000C945B1B0C94CB020C94CB020C94CB0263
:100040000C94CB020C94CB020C94CB020C94CB02FC
:100050000C94CB020C94E21B0C94CB020C94CB02BC
:100060000C94CB020C94CB020C94CB020C94CB02DC
:100070000C94CB020C94CB020C94CB020C94CB02CC
:100080000C94CB020C94CB020C94CB020C94CB02BC
:100090000C94CB020C94CB020C94CB020C94CB02AC
:1000A0000C94CB020C94CB020C94CB0229421E0080
:1000B0001F00200021002200230024002B00140038
:1000C0001A000800150017001C0018003900040071
:1000D0001600070009000A000B000D00E1001D00DA
:1000E0001B0006001900050011001000E000E200EE
:1000F000E3002C41000000002C41000025002600F8
:1001000027002D002E002A004B0000000C001200DA
:1001100013002F00300031004E0000000E000F00D1
:1001200033003400280000004A0000003600370089
:100130003800E500520000004D000000E700E60036
:10014000E4005000510000004F00000001003A00A0
:100150003B003C003D003E003F004000010001002C
:100160000100010001000100010001000100010087
:100170000100010001000100010001000100010077
:100180000100010001000100010001000100010067
:1001900001000100000000000100000041004200D9
:1001A000430044004500010001000000010001007F
:1001B0000100010001000100010000000100010038
:1001C0000100010001000000010000000100010029
:1001D000010001004B0000000100000001000100CF
:1001E00001004A004E0000004D0000000100010027
:1001F00001000100010001000100010001000100F7
:1002000001000100A75D01000100010001000100E3
:1002100001000100010001000100010001000100D6
:10022000010001000100005C01000100010001006B
:1002300001000100000000000100000001000100B9
:1002400001000100010001000100000001000100A7
:100250000100010001000100010000000100010097
:100260000100010001000000010000000100010088
:100270000100010001000000010000000100010078
:10028000010001000100000001000000000000006A
:10029000000000000000000000000000000000005E
:1002A000000000000000000000000000000000004E
:1002B000000000000000000000000000000000003E
:1002C000000000000000000000000000000000002E
:1002D000000000000000000000000000000000001E
:1002E000000000000000000000000000000000000E
:1002F00000000000000000000000000000000000FE
:1003000000000000000000000000000000000000ED
:1003100000000000000000000000000000000000DD
:1003200000000000000000000000000000000000CD
:10033000000000002A2B2800000000000000000040
:100340000000000000000029000000002C1E3420E6
:10035000212224342627252E362D3738271E1F200C
:100360002122232425263333362E37381F04050651
:100370000708090A0B0C0D0E0F1011121314151695
:100380001718191A1B1C1D2F3130232D3504050693
:100390000708090A0B0C0D0E0F1011121314151675
:1003A0001718191A1B1C1D2F3130354C0000000086
:1003B000000000000000000000000000000000003D
:1003C000000000000000000000000000000000002D
:1003D0007E0F00D4FFFFFFC700000078100353001A
:1003E00069006400720069006E00610000001E0375
:1003F0004E0069006E007400680053006B007900C5
:10040000530074007500640069006F00000004036D
:10041000090409025B00030100A0FA0904000001BD
:10042000030101000921110100012240000705819B
:100430000308000109040100020300000009211162
:1004400001000122220007058203200001070503A5
:10045000032000010904020001030000000921112A
:10046000010001227B000705840320000112010026
:100470000200000008BA7C90A601000102000106FB
:1004800060FF0961A1010962150026FF0095207532
:100490000881020963150026FF0095207508910266
:1004A000C005010902A10185020901A10005091980
:1004B000012908150025019508750181020501092A
:1004C0003009311581257F95027508810609381597
:1004D00081257F950175088106050C0A3802158172
:1004E000257F950175088106C0C005010980A1011D
:1004F000850319012AB700150126B700950175106B
:100500008100C0050C0901A101850419012AA0027E
:10051000150126A002950175108100C0050109068C
:10052000A101050719E029E71500250195087501C6
:1005300081029501750881010507190029FF150041
:1005400026FF009506750881000508190129059503
:100550000575019102950175039101C011241FBE1B
:10056000CFEFDAE0DEBFCDBF11E0A0E0B1E0ECEE0E
:10057000F8E402C005900D92AA39B107D9F722E03C
:10058000AAE9B1E001C01D92AD36B207E1F70E94C1
:10059000D1120C944B240C940000B0E0A0E0E3EDE9
:1005A000F2E00C94BC23AFE1B1E029E231E0ED01CF
:1005B00061E070E08991E82FE295EF70F0E011A121
:1005C0008F70AB0101C0440F8A95EAF7942F909584
:1005D000912391A382A1842B82A32C173D0751F76D
:1005E000C7E1D1E04FE151E0BE0101E010E0FB01C5
:1005F0008191BF01E82FE295EF70F0E0D1A08F70FC
:10060000780101C0EE0C8A95EAF79E2D90959D2108
:1006100091A382A18E2982A34617570741F761E073
:1006200070E08991E82FE295EF70F0E0F1A08F7013
:100630008B0102C0000F111F8A95E2F7902F909551
:100640009F2191A382A1802B82A34C175D0749F7BC
:10065000C1E0D0E08D91E82FE295EF70F0E061A16C
:100660008F70AE0101C0440F8A95EAF7942F9095E0
:10067000962391A382A1842B82A32A173B0751F7CB
:10068000CDB7DEB7E7E00C94D823A4E0B0E0EBE40C
:10069000F3E00C94B2238C010B5F1F4FFFE1EF2EB0
:1006A000F1E0FF2E9A838983712C88248394912C06
:1006B000A981BA813D90BA83A9831E92BC83AB8382
:1006C000F70121917F01E22FE295EF70F0E031A177
:1006D0002F70540101C0AA0C2A95EAF7232F2A296A
:1006E00021A322A16A2C6094262122A320EA2A9524
:1006F000F1F747E151E06A0130E020E0D6015D907A
:100700006D01652D62956F7070E0DB0190966C91C4
:10071000AB81BC814C9070E0B52DBF7002C0759567
:100720006795BA95E2F760FD96C0682D022E01C06C
:10073000660F0A94EAF7462AAB81BC814C922F5F80
:100740003F4F28303105D1F621A1622261A222A1BA
:10075000A22AA2A221E03C91331101C020E0722A1A
:10076000E981FA810E171F0709F0A2CF70E060E05F
:1007700044244394512C0A96DA012D91AD01E22FC5
:10078000E295EF70F0E0A1A12F70720102C0EE0CB3
:10079000FF1C2A95E2F797013A2F322B31A332A1A1
:1007A0002095232322A320EA2A95F1F76201062E41
:1007B00001C0CC0C0A94EAF78C2CC094F8013FE1FC
:1007C000E32E31E0F32ED12C9190D7016D907D0175
:1007D000A62CA2942FE0A222B12CD50190962C91A8
:1007E00030E0B62DBF7002C035952795BA95E2F777
:1007F000DF0111975D0120FD30C0282D29292C93A0
:10080000D5012C91921611F0DD24D3948E179F07F9
:10081000D9F6FA0131972081E22FE295EF70F0E0EE
:10082000F1A02F70520102C0AA0CBB1C2A95E2F75E
:100830003A2D30953F2131A322A12A2922A37D28D8
:100840006F5F7F4F6830710509F096CF872D249632
:10085000E1E10C94CE2360E06ECF2C2D2921CFCF87
:1008600081E0089581E008950E943204089508957A
:100870000E9437040895A5E0B0E0E1E4F4E00C94B0
:10088000C02349835A8330919D0189819A81311116
:1008900019C0662399F0222389F00E94D70A182FE5
:1008A000682F89819A810E94B40A69817A81812F97
:1008B0000E94C4182596E3E00C94DC230E94C50A2C
:1008C000182FF3CF0E94D70A69817A81F1CFFC01FA
:1008D000262F408151816281738184810E943B0473
:1008E000089581E00895CF93DF93EC0160E00E94CA
:1008F0006704BE010E943804DF91CF910895E1E0C2
:10090000F0E0DF0102C0AA0FBB1F6A95E2F7BD014C
:10091000DF0102C0AA0FBB1F4A95E2F76A2B01C094
:10092000EE0F2A95EAF7962F9823961302C08E2B86
:100930000895E0958E230895242F462F682F8091E7
:10094000BC010E947F040E94140A08950E945A125A
:1009500008950E945E12089508950E94B1090E94B0
:10096000AC042FEF84E39CE0215080409040E1F7FD
:1009700000C0000008950E94AD040E94061C089566
:100980000E94AD040E94171C08950F931F93CF93EC
:10099000DF938C0161E00E946704EC01B8010E94C2
:1009A000C715811106C080E0DF91CF911F910F9193
:1009B0000895B801CE010E9434048823A1F3B80140
:1009C000CE010E94091A882371F3B801CE010E945A
:1009D000B616882341F3B801CE010E947B19882303
:1009E00011F3F8018281882361F0CA35FDE5DF0744
:1009F00001F158F4C115ECE5DE0791F0CE3DDC4580
:100A000091F0C8010E943004CFCFCC358DE5D807D6
:100A100069F090F0C73ADD45A1F70E94C004C3CF4A
:100A20000E94BB04C0CF0E94900FF7CF0E94CA0E55
:100A3000E8CF0E94D40EE5CF0E94D80EE2CF0E94EC
:100A4000381B0E94030608950E9407060E943D1B62
:100A50000895B0E0A0E0EFE2F5E00C94BC23E82FAD
:100A6000F0E0E45DFC4FD490282F2695269526953E
:100A700030E0F901E453FC4F0491877010E0082E38
:100A800002C0159507950A94E2F701701127F90144
:100A9000E454FC4FE490F12C082E02C0F594E79446
:100AA0000A94E2F791E0E922FF24F901E455FC4FB2
:100AB000C491D0E002C0D595C7958A95E2F7C17080
:100AC000DD270115110519F081EE0E945206E1148F
:100AD000F10419F086EE0E9452068D2D0E945407F3
:100AE000E114F10419F086EE0E94E30601151105E8
:100AF00019F081EE0E94E306CD2B19F08CE20E94E2
:100B00005407CDB7DEB7E7E00C94D823EF92FF92FD
:100B10000F931F93CF93DF93EC01162F0AE0888188
:100B2000882309F454C0813009F04EC08981813096
:100B300099F47E0122E0E20EF11C8A810E945407A2
:100B4000E7012196812F815050F3EFE9FFE03197C3
:100B5000F1F700C00000F7CF823041F47E0182E05F
:100B6000E80EF11C8A810E945206EACF833041F4DC
:100B70007E01E2E0EE0EF11C8A810E94E306E0CFE6
:100B8000843011F02196DDCF2A81229690E080E01A
:100B9000AE014F5F5F4F2053330B2A30310548F0D1
:100BA000019778F2EFE9FFE03197F1F700C000001C
:100BB000F7CF089FB001099F700D1124C901860F5E
:100BC000971F2981EA01E4CF0E942905BACFCDB74A
:100BD000DEB7E6E00C94D92360E00E948605089514
:100BE00008950E94F005089581E008950E94F4059B
:100BF00008950895CF93C82F0E94F1058C2F0E946D
:100C0000F605CF91089580E00E94FA0508950E94AC
:100C1000651A0E94FA0508950E94651A90919C0138
:100C2000981721F080939C010E94FA050895ABE08B
:100C3000B0E0EDE1F6E00C94C1234F83588769875B
:100C40007A878B8761110E94150E1E821D8285E0B6
:100C5000FE013796DE01119601900D928A95E1F71B
:100C60008C819D81892B61F449815A816B817C81C2
:100C70008D819E810E943E0D2B96E2E00C94DD2337
:100C800089819A8189238F3F79F3CE0101960E9451
:100C900071048111E9CFF0CFFC01808191810E9424
:100CA000040B0895CF93C82F8823C9F08238C9F464
:100CB0000E94651A81FD13C089E30E94CD0D0E9438
:100CC000360E2FEF81EE94E0215080409040E1F706
:100CD00000C0000089E30E94D50D0E94360ECF911E
:100CE00008958338A1F40E94651A80FDF8CF83E54A
:100CF0000E94CD0D0E94360E2FEF81EE94E0215020
:100D000080409040E1F700C0000083E5E4CF8438E4
:100D1000A1F40E94651A82FDE2CF87E40E94CD0D06
:100D20000E94360E2FEF81EE94E0215080409040DB
:100D3000E1F700C0000087E4CECF8CEF8C0F813A42
:100D400090F46C2F80910001909101010E94C91ACA
:100D5000882329F08C2F0E94D50D0E94360E8C2FEF
:100D60000E94CD0DBACF80E28C0F883048F4C77056
:100D700081E001C0880FCA95EAF70E94F80DADCF57
:100D8000EBE5EC0FE33040F4F0E0E95AFE4F8081F0
:100D900090E00E948B1AA3CFE8E5EC0FE73150F406
:100DA000F0E0EE0FFF1FE75DFE4F808191810E9412
:100DB000A11A95CFC03F08F492CF8C2F0E945513F3
:100DC0000E9428148CCF882309F455C0823879F406
:100DD0000E94651A81FF4FC089E30E94CD0D0E94D9
:100DE000360E89E30E94D50D0E94360E0895833891
:100DF00059F40E94651A80FF3EC083E50E94CD0D24
:100E00000E94360E83E5EECF843859F40E94651AAD
:100E100082FF31C087E40E94CD0D0E94360E87E428
:100E2000E1CF9CEF980F913AE8F290E2980F98305A
:100E300050F4877091E001C0990F8A95EAF7892FE5
:100E40000E94FE0DD1CF9BE5980F933028F490E0DF
:100E500080E00E948B1A089598E5980F973128F446
:100E600090E080E00E94A11A0895803F20F00E9447
:100E7000AF130E94281408951F93CF93DF93182F68
:100E8000EB010E945206209739F4812F0E94E3065D
:100E9000DF91CF911F9108958FE99FE00197F1F7BE
:100EA00000C000002197EFCF70E060E0893311F4BB
:100EB00060E570E00E943C070895882321F00E94BD
:100EC000F80D0E94360E0895882321F00E94FE0D31
:100ED0000E94360E0895B0E0A0E0E1E7F7E00C9440
:100EE000BA236C01D62FC72FFC011281F580F29432
:100EF0009FE0F9220E94EE0DE82E8823B9F0E12E42
:100F00001123A1F08C2F807F803421F080E28D0F9F
:100F10008830D0F08091470282FF16C082E00E94A4
:100F2000990E0E94EE0D91E0E82EE926BC2EB294B7
:100F30008FE0B822FBE0FB1508F468C0EB2DF0E071
:100F4000E35BFB4D0C94A423E12CF0CF0C2F0F702E
:100F5000C07F11F00295007F112399F0002359F012
:100F600080E28D0F883010F0D11107C0802F0E94D1
:100F7000F80D0E94360E8D2F41C0802F0E94080E62
:100F8000F8CF8D2F0E94E306002309F43FC080E2D2
:100F90008D0F883010F0D11104C0802F0E94FE0DFB
:100FA00003C0802F0E940E0E0E94360E2FC00C2F01
:100FB0000F70C07FC03211F00295007FDD2381F0F9
:100FC000D13009F463C0112309F46DC0FF2009F486
:100FD00063C0F601858180FFCECF8F7085835CC0B2
:100FE0008091470282FD33C0112359F0002329F07C
:100FF000802F0E94F80D0E94360E80E00E9452065B
:1010000005C080E00E94E3060111C7CFEB2DE85038
:10101000FF0B349720F40E94651A0E94FA05EE2017
:1010200089F00E94EA0D80FD0DC0F60112820E9437
:10103000E40D0E94280AC6010E9471090E94E40D75
:101040000E94340ACDB7DEB7E9E00C94D623112311
:1010500089F0F11006C00E94180E802B0E945D07D7
:10106000D5CF21E0F212F7CF0E94180E802B0E94FC
:101070001F0ECCCFF11006C00E942C0E802F0E94B4
:101080006407C4CF31E0F31609F2F6CF112331F033
:1010900085E08F1508F4BACF802FE0CF94E09F153C
:1010A00008F4B4CFEBCFFF2049F3D93349F4FFEF75
:1010B00027EE33E0F15020403040E1F700C000005F
:1010C0008D2F0E94E306A2CF8C2F86958695837084
:1010D00069F0813009F09ACF8D2F9C2F93701111F8
:1010E00002C090E080E00E94A11A90CF8D2F9C2F2B
:1010F0009370111102C090E080E00E948B1A86CF9D
:101100008D2F112329F00E9455130E9428147ECFA1
:101110000E94AF13FACF8C2F837079F5111176CF1F
:101120004D2F429546954770440F440F8D2F8F7079
:10113000042E01C0880F0A94EAF72D2F2071D4FFE6
:1011400007C02FE030E001C0220F4A95EAF7209552
:10115000C695C695C370822BC23049F058F4C13091
:1011600019F00E94020A52CF0E94FC094FCF0E9440
:10117000080A4CCF0E94F90949CF8695112311F036
:101180008C2F8170882309F441CF4D2F42954695CD
:101190004770440F440F8D2F8F70042E01C0880FAD
:1011A0000A94EAF72D2F2071D4FF07C02FE030E01A
:1011B00001C0220F4A95EAF72095C695C695C370DF
:1011C000822BC23049F058F4C13019F00E94530A02
:1011D0001DCF0E944D0A1ACF0E94590A17CF0E94B4
:1011E000140A14CFCF70112329F08C2F0E94280AE3
:1011F0008D2F34CF8D2F0E9464078C2F0E94340ACC
:1012000005CFD23F51F160F4D03FB9F0D13F81F02A
:10121000112309F449C0F110AECE8C2F8F7121C07B
:10122000D33F11F1D43FA1F78091470282FD26C040
:101230008C2F8F71112311F314C0112349F084E016
:101240008F1508F4E3CE8C2F8F710E94410ADECEF9
:1012500095E09F1508F4DACEF6CF8C2F8F7111111F
:10126000CDCF0E94280AD2CE112329F08C2F8F7166
:101270000E941F0ACBCE0E941B0AC8CE112349F040
:10128000CF718C2F0E94280A63E08C2F0E947B0E66
:10129000BDCE81E00E94990EE1E0EF1508F0B6CED8
:1012A00082E00E94990EB2CEF110FFCE8C2F8F718A
:1012B000A5CF0F931F93CF93DF93EC0168817981C2
:1012C0008A810E940F0B8C010E945F0A0E94F8091C
:1012D000B801CE010E946B07DF91CF911F910F9152
:1012E0000895CF93DF93EC018B819C81892B29F0AA
:1012F0008881998189238F3F51F4DF91CF9108959F
:10130000CE010E945909CE010E947304F6CFCE018E
:101310000E94C5048111F4CF0E94EE0D882369F369
:101320008A81882351F38091470282FFE6CF82E0D1
:101330000E94990EE2CF90E080E00E948B1A90E02C
:1013400080E00E94A11A0E94150E0E94360E0E9493
:1013500044140E94281408950E94DD0D0E949B09E8
:1013600008950E94050E0E94AC09089592959F7001
:10137000963091F058F4925F9F70923058F4803F0D
:1013800019F030F4883E30F481E008959A5FF4CF8C
:10139000843FD1F380E00895883EB0F3813FD1F7D8
:1013A000F3CFFC01808191810E94040B0E94B60959
:1013B0000895A5E0B0E0EFEDF9E00C94C123259687
:1013C000E2E00C94DD23A6E0B0E0E9EEF9E00C9455
:1013D000C1232696E2E00C94DD2308950E94ED09D6
:1013E00008950E94EE098093BD010E949B09089513
:1013F00008950E94F10908959091BD01892B0E94E2
:10140000F10908959091BD0189230E94F109089581
:101410009091BD0189270E94F10908950E94ED096C
:1014200008950E940E0A08950E94110A8093BC013B
:101430000E949B09089580E00E94140A089591E09B
:1014400001C0990F8A95EAF7892F0E94140A08951E
:1014500021E030E001C0220F8A95EAF78091BC01BB
:10146000822B0E94140A089521E030E001C0220F6F
:101470008A95EAF720958091BC0182230E94140A84
:10148000089521E030E001C0220F8A95EAF78091AB
:10149000BC0182270E94140A08959091BC01892BF7
:1014A0000E94140A08959091BC0189230E94140A95
:1014B00008959091BC0189270E94140A0895089507
:1014C000262F277091E001C0990F2A95EAF723E0B3
:1014D000769567952A95E1F7FB01EE0FFF1FE60F62
:1014E000F71FE40FF51F50E040E0682F70E0819196
:1014F000DF0111979B01042E02C0369527950A94AF
:10150000E2F7217021952827292328272C934F5F64
:101510005F4F4330510559F70895A82FA77023E076
:10152000969587952A95E1F7FC01EE0FFF1FE80FCE
:10153000F91FE60FF71F50E040E080E0219130E016
:101540000A2E02C0369527950A94E2F721703327B8
:10155000042E01C0220F0A94EAF7822B4F5F5F4FDF
:101560004330510559F70895262F9A3068F4883092
:1015700058F438E0939FB0011124680F711D4EE9B3
:1015800051E0822F0E94600A08959A3070F48830EA
:1015900060F448E0949F900111246EE971E0820F9D
:1015A000932F911D0E948D0A089580E00895CF9297
:1015B000DF92FF920F931F93CF93DF936C01009103
:1015C000BC018091BD01082BC7E0D0E010E0FC2EEB
:1015D000C8010C2E02C0959587950A94E2F780FD0C
:1015E0000CC02197A0F7F12C8F2DDF91CF911F9187
:1015F0000F91FF90DF90CF900895B6018C2F0E943D
:101600004311019771F3F0CFCF93DF93EC010E9468
:10161000D70ABE010E944311DF91CF9108951F9315
:10162000CF93DF93EB0190919D01992339F0CB018A
:101630000E94040BDF91CF911F910895882369F0D8
:10164000CB010E94D70A182F682FCE010E94B40A3E
:10165000BE01812F0E944311EDCFCB010E94C50A2C
:10166000182FF6CF1F93CF93DF93C091BE0116E0E2
:101670008091BF018C1304C0DF91CF911F91089519
:10168000D0E01C9FF0011D9FF00D1124E054FE4F8F
:101690004081518162817381848195810E94E30937
:1016A0002196C770E5CF4091F0015091F101609112
:1016B000F2017091F3018091F4019091F5010E9483
:1016C000E30908951F93CF93DF938091F501807F05
:1016D00009F049C08091F201882309F444C0809147
:1016E000BE01C091BF016091F0017091F101A09124
:1016F000F301B091F401D62FD72316E0C81799F162
:1017000090E0109711F0DF3F19F401968770F6CF43
:10171000189F9001199F300D1124F901E054FE4FDC
:1017200041814713F2CF40814613EFCF42814111EF
:10173000ECCF438154814A1B5B0B483C510528F791
:101740008091F5018F7080618093F501F901EB5371
:10175000FE4F80818F708061808380EF91E00E94D6
:1017600071090E94320BDF91CF911F910895A1E181
:10177000B0E0EDEBFBE00C94B9238C0185E0F801BF
:10178000DE011D9601900D928A95E1F7F801E28045
:1017900080EFC82E81E0D82E6091F3017091F401A2
:1017A0006115710509F44EC19091F0012091F1018C
:1017B000892F82238F3F09F445C140815181A38045
:1017C000B480F090F201F501E61BF70BFF2009F45D
:1017D000EAC08091F501382F307FE83CF10508F030
:1017E000A3C031116DC0FE2C251316C0941314C074
:1017F000E11012C08F7080618093F5010E94530B3D
:10180000C6010E9471098091F501F80185838F2D31
:101810006196EAE00C94D523A114B10429F0842F39
:1018200085238F3F09F027C180E0F82FF170DF2E6C
:1018300080FF3CC08091BE012091BF0136E0821341
:1018400015C04D875E878D859E850E94040B292FCC
:1018500022952F702230F0F0243018F59F70F1F0AF
:10186000F8019581907FD1F4D12C1EC090E0389F73
:10187000F001399FF00D1124E054FE4F6181651392
:1018800006C06081641303C06281E6120FC0019636
:101890008770D5CF9F7011F0882331F3805E883038
:1018A00018F3C8010E947109FD2CB1CFEE2009F494
:1018B000AECF8091F50181608093F501F12CA7CF27
:1018C000251306C0941304C0F801EE2009F487C064
:1018D000C8010E94D109882319F1EE2009F18091F5
:1018E000F501803270F02091F0013091F1013887DC
:1018F0002F831986BB86AA868C87CE0107960E9405
:10190000710986E0F801A0EFB1E001900D928A958F
:10191000E1F70E94620B0E94530BFF24F39477CFF0
:10192000C8010E947109F9CF311113C07A2DB98A0B
:10193000A88A6E2D89890E94D90980EF91E00E94C2
:10194000710986E0F60111928A95E9F70E94530B1E
:10195000B5CF25130FC094130DC0E1100BC0F801D3
:101960008583C8010E94710986E0F60111928A956B
:10197000E9F74DCFC8010E94D109882389F2EE20F2
:1019800079F28091F501803208F4BBCF2091F0010B
:101990003091F1013A8329831B82BD82AC828E8310
:1019A000CE010196ACCFE83CF10508F03EC0FE2C1C
:1019B000EE2009F4B5CF25132AC0941328C08091D6
:1019C000F50180FD1BC0982F907FC1F0F801858341
:1019D000903F31F0982F907F905F8F70892B858397
:1019E000C8010E94710986E0F801A0EFB1E0019002
:1019F0000D928A95E1F70E94530B09CF86E0F8011A
:101A0000A0EFB1E001900D928A95E1F700CFC801F7
:101A10000E94D109811175CF8091F5018160809379
:101A2000F501C8010E947109F2CE7A2DB98AA88AFF
:101A30006E2D89890E94D90986E0F60111928A9556
:101A4000E9F7D9CFEE2009F46BCFC8010E94D10984
:101A5000F82E882309F464CF86E0F801A0EFB1E006
:101A600001900D928A95E1F780EF91E00E944C067B
:101A70000E94620BC0CF81E08E25D7CEACE0B0E0F3
:101A8000E4E4FDE00C94C0234F83588769877A878C
:101A90008B879C87CE0107960E94B70B882369F03D
:101AA0008A859B85892B39F04F815885842F852322
:101AB0008F3F09F06BC016E05FC086E0FE013796ED
:101AC000DE01119601900D928A95E1F78A859B853A
:101AD000892B89F38F81988589238F3F61F320912A
:101AE000BF0130E0C9010196877099274091BE017E
:101AF0004817190671F40E94B1091092BF011092A3
:101B0000BE0186E0E0EFF1E0DF011D928A95E9F782
:101B1000D2CF96E0929FD001939FB00D1124A05494
:101B2000BE4FFE01319601900D929A95E1F7809398
:101B3000BF010E94320BBFCF819FC001112480548E
:101B40009E4F0E94B70B8823E9F0E091BE011E9FD3
:101B5000F0011124E054FE4F408151816281738174
:101B6000848195810E94E3098091BE0190E00196F5
:101B7000877099278093BE018091BE019091BF012B
:101B80008913DACF2C96E3E00C94DC2369857A85FF
:101B90008B859C850E94E3098ECF682F8091000180
:101BA000909101010E94FF1A0895682F8091000111
:101BB000909101010E94021B089580910001909173
:101BC00001010E94051B08958091FE018595859570
:101BD000859508958091FE01877008959091FE018A
:101BE000977081E009F480E00895809109020895DA
:101BF00090910902892B8093090208958095909114
:101C000009029823909309020895109209020895F9
:101C100090910802892B80930802089580959091F5
:101C200008029823909308020895109208020895DC
:101C30008091FF01089508950E941B0E08959091D0
:101C4000470292FF08C09091FF01981721F08093FE
:101C5000FF010E941C0E08958091FF01882329F046
:101C60001092FF0180E00E941C0E0895CF93DF9335
:101C7000E0910001F0910101809109028083E091DF
:101C80000001F0910101808190910802892B8083ED
:101C90009091FF01992381F0E0910001F091010101
:101CA0008081892B808380910001909101010E94A5
:101CB000B71A81110E942C0EC0910001D091010130
:101CC00048E050E066EF71E0CE010E94FC23892BD2
:101CD00059F088E0FE01A6EFB1E001900D928A95DF
:101CE000E1F7CE010E94721ADF91CF910895089515
:101CF0000E94770E08959091470292FF11C098E0DC
:101D0000899F90011124622B6093FE010E94280A92
:101D10008091FE018595859585950E94780E0895A0
:101D20000E94280A08951092FE0180E00E94780E19
:101D300008959091FE01809589238093FE01282FBC
:101D4000277091F4282F082E000C330B92171306DE
:101D500059F09091470292FF07C08595859585952A
:101D60000E94340A0E94930E08959091470292FBBC
:101D7000222720F9281769F080FB92F990934702F7
:101D800080914602909147020E94070F82E00E94D4
:101D9000990E08958091470282FB882780F991E08F
:101DA00089270E94B50E089581E00E94B50E08951E
:101DB00080E00E94B50E08956FEF7FEF90E080E025
:101DC0000E943524089590E080E00E941124883E0E
:101DD0009E4F19F40E946215089580E0089582E0F4
:101DE00090E00E940924089583E090E00E94092475
:101DF0000895CF9384E090E00E940924C82F82E2E6
:101E000090E00E940924982F8C2FCF910895CF93B2
:101E1000C92F682F84E090E00E9417246C2F82E283
:101E200090E00E941724CF910895AB01BC018FE090
:101E300090E00E9429240895AB01BC0183E190E069
:101E40000E942924089560E070E0CB010E941C0FDD
:101E5000089560E070E0CB010E94150F0E94230FEF
:101E6000089568EE7EEF90E080E00E94352460E007
:101E700082E090E00E94172460E083E090E00E94FE
:101E800017241092BD0160E084E090E00E941724C6
:101E900064E082E290E00E94172460E085E090E038
:101EA0000E94172460E086E090E00E9417246FEF04
:101EB00087E090E00E94172440E050E0BA0188E0FB
:101EC00090E00E94292460E08DE090E00E941724B9
:101ED00040E050E0BA0188E190E00E94292460E0EF
:101EE00087E190E00E94172440E050E0BA018CE1C5
:101EF00090E00E94292470E060E080E290E00E947F
:101F0000352440E050E0BA0188E190E00E942924A5
:101F100080E00E947B150E94AA150E94290F089557
:101F20000E94310F0895682F8EE090E00E941724E0
:101F300008950E94C71B6093180270931902809342
:101F40001A0290931B0260931402709315028093FF
:101F50001602909317020895089508950E94AD0FF8
:101F6000089508950E94B10F089582E292E10E94BF
:101F70005B1A0E94AC0F0E94AE0F089581E0089595
:101F80000E94BE0F0895089508950E94C30F0E94F5
:101F9000C40F08950E943E120E94F90508950E9400
:101FA000B21B0E94BA150E9468120E94CA0F0E94BA
:101FB000B20F0895AAE0B0E0E0EEFFE00C94B82381
:101FC0000E947A12C82E81110E94990F8AE0A82ED1
:101FD00082E0B82E10E000E0902E802F0E94611267
:101FE000E82EF501F1905F01F816B9F180911C021D
:101FF00081FD0E9467128F2D8E25D12CFF24F39432
:10200000982F9F2129F10E94C00F882399F0DE822A
:102010009F82EF2081E009F480E088870E94BB1B4B
:102020008160782F9A8789874E815F8168858A854C
:102030000E941706F801E65FFD4F8081F826F082C6
:1020400081E0C11001C080E02A96EBE00C94D4231B
:10205000D394FF0CF8E0DF12D3CF0F5F1F4F0A308D
:10206000110509F0B9CF8FEF89838A831B820E9403
:10207000BB1B8160782F9D838C8349815A816B8142
:102080008D810E941706DCCF0E94DA0F0E94661431
:102090000E940C060895CF93DF930E944811EC0133
:1020A000811521E5920708F042C0811530E59307BC
:1020B00008F09DC0883E910530F5803E910508F0FE
:1020C00092C0883A910588F4853A910508F084C059
:1020D0008130910509F487C0009709F484C0049702
:1020E00008F081C0D0E0C0E07EC08F3B9105D0F702
:1020F000C85AD0E0CC0FDD1FC65ADE4F0990D881F8
:10210000C02DD46470C08115904250F4C11581E097
:10211000D80708F068C0C03FD10520F3D06563C080
:10212000C11590E4D907F0F2DF70D06A5CC0811568
:1021300025E5920700F5811534E5930708F08BC07B
:10214000811543E5940708F073C0C11582E5D807EF
:1021500008F469C0CE018370992721E030E002C005
:10216000220F331F8A95E2F7C695C69580E2C89F75
:10217000E001112454C0C11599E5D907A8F4C1158F
:1021800028E5D20708F06CC0C11536E5D30708F082
:10219000A9CF8C2F0E94DF11C82FD0E0DC2FCC27D5
:1021A000CC27DF71D0621FC0C1154AE5D40708F4FF
:1021B0005CC0CE0190568115904208F093CF8D2FD0
:1021C0008F710E94DF1190E0982F882788279F71D8
:1021D0009C012C2BE901E6CFC55AD0E0C857DE4F51
:1021E000C881D0E0D064CE01DF91CF910895E4E0C2
:1021F00096958795EA95E1F783702C2F269526957D
:10220000237040E2249F90011124382B8C2F83707F
:10221000C1E0D0E002C0CC0FDD1F8A95E2F7C22BEF
:10222000D32BDC68E0CFDC2FCC27C16FD06ADBCFAB
:102230008370992721E030E002C0220F331F8A9576
:10224000E2F7C695C69590E2C99FE0011124C22B22
:10225000D32BDA68C8CFD82FCC27C46FD06AC3CFAE
:10226000DC2FCC27C06FD06ABECF8C2F8F700E941E
:10227000DF1134E0D695C7953A95E1F7CF709C2FE2
:10228000EC01D069B0CF0E94C4180E944B10089591
:1022900082389105B1F1B0F48133910509F475C02C
:1022A00048F48932910509F469C08A32910509F42C
:1022B00073C008958533910509F459C08933910598
:1022C00001F10895833E9105A9F138F4803E91050E
:1022D000F9F0823E910549F10895863E9105A9F1F4
:1022E000873E9105C9F1843E910519F52091470279
:1022F00021FF1FC08091460284FD14C087EE90E04C
:102300000895209146022370A1F080EE90E0089598
:102310002091460220FD47C03091470230FF09C09E
:1023200024FF44C090E080E004C02091460222FDDA
:10233000F7CF08952091460222FD3BC0309147021D
:1023400030FDE3CF24FFF5CFEDCF2091460223FFF0
:10235000F0CF24FDE7CFD2CF2091460223FD2CC041
:102360003091470231FFEECF84EE90E00895209146
:10237000460225FFDECF89E290E0089520914602D3
:1023800025FFD7CF85E390E008952091460226FFF0
:10239000D0CF8AE290E008952091460226FFC9CF6F
:1023A00081E390E0089589E390E0089583EE90E062
:1023B000089582EE90E0089586EE90E00895909161
:1023C000460292FF06C0282F28712830F9F4877F33
:1023D000846093FF06C0282F28712831F1F4877E8E
:1023E00084612091470220FF06C0382F38713830B1
:1023F000D9F4877F816021FF06C0282F28712831FA
:10240000D1F4877E816194FD877E0895282F247101
:102410002430F9F68B7F8860DCCF282F247124319B
:1024200001F78B7E8861DDCF382F3171313019F79C
:102430008E7F8860E0CF282F2171213121F78E7E99
:102440008861E1CF80E008950E94DC0E08950E942B
:102450007A128FE39CE90197F1F700C000000E9417
:102460007A1280E00E94611280FF04C00E94241250
:102470000E94061C08950E94271208950E94E30EF0
:10248000811102C00E94900F0E94EF0E80931C02E7
:102490000E94F90E90934702809346020E943B12DD
:1024A0000E94F40E0E94F9098091BC010E94110A59
:1024B000089508950E945912089508950E945D128A
:1024C0000895E82FF0E0EE5AFD4F808108950895B9
:1024D0000E94CD02E8E4F2E0A2E5B2E011921D9282
:1024E00082E0E235F807D1F78AE00E948D120E945F
:1024F000A6040895CF9388E492E00E944503C82F74
:10250000282F4AE062E572E088E492E00E948E1291
:102510000E94A9048C2FCF9108950895FF920F93E4
:102520001F93CF93DF93F82E092F162FD72FC42F89
:10253000222349F081E080931F020E94BB1B9093ED
:102540001E0280931D0280911F028823A1F08091BA
:102550001D0290911E020E94D31B059760F0EF2D83
:10256000F02FA12FBD2FCE0FDF2FD11DEC17FD07B0
:1025700039F410921F02CDB7DEB7E5E00C94DA23F0
:1025800081918D93F3CF0E94EF1D0E94CF0F0E9487
:10259000FC1D08950E94011E0E9444100E941B1EF3
:1025A00008950E94541B0E94D51D0E94B50F0E94E1
:1025B000C3120E94CA120E94C50FFBCF809126024F
:1025C00080FF0DC06091070170E0660F771F6038D3
:1025D000710570F56115710569F1862F089581FF08
:1025E00007C06091070184E0689FB0011124EFCF1C
:1025F0006091070182FD0AC0809125028823A9F01D
:102600002091060160910701821710F088E0ECCF5D
:10261000869FC001112433E0880F991F3A95E1F796
:10262000622F70E00E949023D2CF68E070E0D5CF97
:102630008FE7089581E008958091260280FF0CC005
:102640006091030170E075956795759567956115C3
:10265000710549F1862F089581FF06C0609103013D
:1026600070E075956795F3CF6091030182FD0BC013
:10267000909124029923A1F06091020180910301BD
:10268000961738F0682F70E06038710500F38FE717
:102690000895899FC001112470E00E949023F4CF17
:1026A00061E070E0D7CF81E00895803F31F40E946F
:1026B000DE12819580932A020895813F19F40E94C9
:1026C000DE12F8CF823F31F40E94DE1281958093B2
:1026D00029020895833F19F40E94DE12F8CF893F42
:1026E00029F40E941C1380932B0208958A3F21F441
:1026F0000E941C138195F7CF8B3F31F40E941C136D
:10270000819580932C0208958C3F19F40E941C132C
:10271000F8CF9CE0980F953070F4845F990B21E01E
:1027200030E001C0220F8A95EAF780912802822BBF
:102730008093280208958D3F31F4809126028160B4
:102740008093260208958E3F21F4809126028260B4
:10275000F7CF8F3FB9F7809126028460F1CF409187
:102760002902803F59F480912A0287FF0DC0109200
:102770002A0241110BC01092250208C0813F81F44A
:1027800080912A0218169CF3442381F080912B0239
:1027900090912C02892B09F05AC0109224020895BE
:1027A000823F49F447FFF0CF1092290280912A021C
:1027B0008111ECCFE0CF833F19F41416ACF3E4CFD2
:1027C00090912B02893F29F41916F4F610922B02EE
:1027D000DBCF8A3F19F497FFD7CFF8CF90912C0227
:1027E0008B3F29F497FFD0CF10922C02CDCF8C3F96
:1027F00019F41916CCF3C8CF9CE0980F953090F4DB
:10280000845F990B21E030E0B90102C0660F771FA9
:102810008A95E2F7CB0180959091280289238093D5
:102820002802B2CF8D3F31F4809126028E7F8093B3
:102830002602AACF8E3F21F4809126028D7FF7CF0A
:102840008F3F09F0A1CF809126028B7FF0CF0895B2
:102850000E94BB1B9C019091290280912A02982B17
:1028600021F0309323022093220290912B02809139
:102870002C02982B21F0309321022093200287E232
:1028800092E00E947D1A089586E0E7E2F2E0DF011F
:102890001D928A95E9F71092250210922402109257
:1028A00026020895FC01828181110EC0838181116D
:1028B0000BC08481811108C091E08581811101C024
:1028C00090E0892F8170089581E0FCCFA6E0B0E010
:1028D000ECE6F4E10C94C02386E0E7E2F2E0DE01EE
:1028E000119601900D928A95E1F7109229021092AB
:1028F0002A0210922B0210922C028B819C81892B30
:1029000089F080912202909123020E94D31BAC0196
:10291000909125029923C9F1809108018417150629
:1029200008F440C08D819E81892B91F08091200216
:10293000909121020E94D31BAC0190912402992313
:1029400009F471C0809104018417150608F479C058
:10295000BE016F5F7F4F87E292E00E940C1B8111E6
:1029600005C087E292E00E94521481110E9428144F
:1029700086E0FE013196A7E2B2E001900D928A95C1
:10298000E1F72696E3E00C94DC23209109018AE02C
:10299000289F900111242417350720F69F5F9093FC
:1029A000250202C09F3FD1F71B81112359F00E94DD
:1029B000DE129FEF11160CF491E0899F802D1124F7
:1029C000809329021C81112359F00E94DE129FEF8F
:1029D00011160CF491E0899F802D112480932A0216
:1029E00030912902332309F49DCF20912A0222231A
:1029F00009F498CF45EB3403C0011124992359F011
:102A00009093290245EB240390011124332339F0DC
:102A100030932A0287CF81E080932902F3CF81E0AF
:102A200080932A027FCF209105018AE0289F9001A0
:102A300011242417350708F08BCF9F5F9093240251
:102A400002C09F3FD1F71D81112359F00E941C1332
:102A50009FEF11160CF491E0899F802D1124809333
:102A60002B021E81112359F00E941C139FEF111697
:102A70000CF491E0899F802D112480932C023091D9
:102A80002B02332309F464CF20912C02222309F472
:102A90005FCF45EB3403C0011124992359F0909383
:102AA0002B0245EB240390011124332339F030939A
:102AB0002C024ECF81E080932B02F3CF81E08093F4
:102AC0002C0246CF83E290E00E940924813289F4EF
:102AD00084E290E00E940924813159F485E290E07B
:102AE0000E94092491E0833009F090E0892F8170E1
:102AF000089580E0FCCFCF93C82F6FEF811161E282
:102B000083E290E00E9417246FEFC11161E184E23B
:102B100090E00E9417246FEFC11163E085E290E01E
:102B20000E941724CF910895089586E290E00E94B4
:102B30000924682F70E090E080E008950895CF9315
:102B4000C62F0E949E156C2F86E290E00E941724EB
:102B5000CF91089580E00E947B1560E070E0CB018A
:102B60000E949F150E9444180E94211981E00E9432
:102B70007B1508950E9494150E9495150E949E153C
:102B80000E946215811102C00E94AA150895CF9378
:102B9000FB01C281CC2309F19C0122513F45203128
:102BA000310520F582510E943119C0E08C2FCF9160
:102BB000089581E00E94280A43E062E081E00E94DB
:102BC0009C04F3CF81E00E94340A43E062E081E09C
:102BD0000E949C04EBCF82E0F6CF8031FFE59F0797
:102BE00089F381319F45B9F3C1E0E0CF8031EFE552
:102BF0009E07F9F281319F45C9F682E0DBCF2FEFC6
:102C0000FC0120830895EF92FF920F931F93CF93BF
:102C1000DF93EC01062FE881E150E33108F05DC05D
:102C2000F0E0E75AFB4D0C94A423198289E08A83D3
:102C3000602FCE010E94A81CCDB7DEB7E6E00C9451
:102C4000D9238981823069F0833071F08130D9F4E1
:102C50000E94C71B0E94AA236A837B838C839D8367
:102C6000E7CF0E949515F6CF7E0182E0E80EF11CB9
:102C700010E0812F0E946112F70181937F011F5F95
:102C80001A30B9F7D5CF602FCE010E94FF15D0CFF3
:102C900089818230C1F76A817B818C819D810E940C
:102CA000AA230E949F15C4CF4B816A8189810E940B
:102CB00006189827892798279D838C83B9CF2C8164
:102CC0003D813227232732274B816A8189810E94E7
:102CD0002818AECF0E944418ABCF8FEF8883A8CFBF
:102CE0000E94D2188983A4CF0E94D41898278927DC
:102CF00098279A8389839CCF6B8170E089819A8120
:102D0000AE014C5F5F4F9827892798270E94D718FC
:102D10008FCF6B8170E089819A81AE014C5F5F4FEC
:102D20009827892798270E94FC1882CF0E94211992
:102D30007FCF0E94F317D6CF6B8170E089819A8193
:102D4000AE014C5F5F4F9827892798270E947C1817
:102D50006FCF6B8170E089819A81AE014C5F5F4FCC
:102D60009827892798270E94A01862CFCF93DF93D6
:102D7000EC01FB018281882309F433C1C330FDE5F6
:102D8000DF07C0F5CA3F9CE5D90730F49E01225009
:102D90003C4524313105B0F50E94F90E909347026D
:102DA00080934602C1318CE5D80709F4EEC008F0E3
:102DB00069C0C930ECE5DE0709F4D5C0C8F5C530F7
:102DC0008CE5D80709F4C7C000F5C330ECE5DE0791
:102DD00009F4B9C008F0BBC0C230DC4509F4ADC08D
:102DE00080914602909147020E94070F0E94B1090C
:102DF00080E008C0C136EDE5DE0771F2C53AFDE5B9
:102E0000DF0751F2DF91CF910895809146028062F1
:102E1000C7309CE5D90709F493C0809146028061D0
:102E2000C830DC4508F48CC080914602806488C0BC
:102E3000809146028B7FCD30FCE5DF0709F480C02E
:102E400098F4809146028E7FCB309CE5D90709F437
:102E500077C0809146028C60CC30DC4508F470C0AD
:102E6000809146028D7F6CC0809146028F7ECF306C
:102E7000FCE5DF0709F464C008F47BC080914602DA
:102E80008F7D5EC0CD3F9CE5D90709F47AC050F52F
:102E9000C531FCE5DF0709F486C098F4809146024D
:102EA000837FC3319CE5D90709F44AC008F471C097
:102EB0000E94B10990914602892F97FB87F98058AB
:102EC0003FC0CB3FFCE5DF0709F449C008F055C01F
:102ED000809147028160CA3FDC4509F081CF809331
:102EE00047027ECFC130EDE5DE0709F468C0A8F4E3
:102EF000CF3F8CE5D80709F452C080914702836028
:102F0000C115DD4560F380914702982F909591702F
:102F10008E7F892B90FB81F9E2CFC136EDE5DE078C
:102F200009F451C0C53AFDE5DF0709F453C0C230CA
:102F3000DD4509F055CF80E043C0809146028160B5
:102F4000809346024DCF809146028260F9CF8091F6
:102F500046028460F5CF809146028860F1CF80916F
:102F600047028260BCCF0E94B1098091460280680E
:102F7000E7CF80914602877FE3CF809147028E7F23
:102F8000AECF809147028D7FAACF809146028F7B82
:102F9000D7CF0E94B109809146028F77D1CF80911F
:102FA00047028C7F9CCF8091460282FB992790F943
:102FB00021E0922790FB82F990FB83F9C1CF81E059
:102FC0000E94930F0DCF90914602892F8F7E94FF20
:102FD0008061B6CF90914602892F8E7F90FF8160ED
:102FE000AFCF81E00FCF84E0089590E1699FB001F9
:102FF000112450E0440F551F640F751F90EA899FFC
:10300000600D711D1124CB01879608950F931F93B6
:10301000CF93DF938430C8F46A30B8F44830A8F412
:103020000E94F5178C010E940924C82FD0E0DC2FE4
:10303000CC27C80101960E9409249E01282BC901B2
:10304000DF91CF911F910F91089590E080E0F8CF2C
:103050000F931F93CF93DF93122F032F843078F4B5
:103060006A3068F4483058F40E94F517EC01602F7C
:103070000E941724612FCE0101960E941724DF9130
:10308000CF911F910F910895AF92BF92CF92DF928F
:10309000EF92FF921F93CF93DF938CEAC82E80E0CC
:1030A000D82ED0E07601C0E014C0F501259134910E
:1030B000412F6C2F8D2F0E94281882E0A80EB11C82
:1030C0001F5F183091F780E1E80EF11CCF5FCA3026
:1030D00019F0570110E0E9CFDF5F80EAC80ED11C7C
:1030E000D43001F7DF91CF911F91FF90EF90DF90E7
:1030F000CF90BF90AF900895EF92FF920F931F93E0
:10310000CF93DF93EC018A017C01E60EF71ECE011E
:103110008796CE15DF0529F4CDB7DEB7E6E00C942F
:10312000D923C03822E0D20740F40E940924F801D4
:1031300080830F5F1F4F2196EACFF8011082F9CFED
:10314000B0E0A0E0E6EAF8E10C94BB237C016A0160
:103150008C01060F171FEC01CE018796C017D1070F
:1031600029F4CDB7DEB7E8E00C94D723C03822E0CD
:10317000D20740F4FE01EE19FF09EC0DFD1D608140
:103180000E9417242196E8CF462F843040F47A30ED
:1031900030F4683020F4672F0E940618089590E0FC
:1031A00080E0089580E1089589E591E00895EF9227
:1031B000FF920F931F93CF93DF93EC018A017C0161
:1031C000E60EF71ECE0189559D4FCE15DF0529F479
:1031D000CDB7DEB7E6E00C94D923C93521E0D2079C
:1031E00040F40E940924F80180830F5F1F4F21964D
:1031F000E9CFF8011082F9CFB0E0A0E0E2E0F9E118
:103200000C94BB237C016A018C01060F171FEC0193
:10321000CE0189559D4FC017D10729F4CDB7DEB730
:10322000E8E00C94D723C93521E0D20740F4FE0131
:10323000EE19FF09EC0DFD1D60810E9417242196F7
:10324000E7CFCF93DF93C7EAD2E060E0CE010E94E0
:1032500017242196C11584E0D807B9F7DF91CF91E3
:103260000895A4E0B0E0E7E3F9E10C94BC23F82E64
:103270008FE08F1548F18FEF93E00E9409248111B0
:1032800023C007EA12E0F11023C019821A821B82C0
:103290001C82DD24D39478018FEFE81AF80AC80164
:1032A0000E94092489831A82882371F09FEF980F66
:1032B0009330D8F48A83D9820E5F1F4FC7010E94D2
:1032C00009248B83811112C02496E7E00C94D82343
:1032D000011584E01807C1F3C8010E940924811177
:1032E00001C0FA940F5F1F4FCECF8701CE01019628
:1032F0000E94EC05D0CFCF93DF93EB0186319C4544
:1033000011F50E94F50D9A81992399F08A7A91E03E
:1033100009F490E090932D02811109C089E20E9486
:10332000CD0D0E94360E80E0DF91CF91089585E3A8
:10333000F6CF80912D02811104C089E20E94D50D43
:10334000F0CF85E3FBCF81E0EFCF0F931F93CF93B7
:10335000DF93C42FD22FFC0182818823C9F04093D0
:1033600030020E94BB1B90932F0280932E0280E2BA
:103370008C0F883040F4C77081E001C0880FCA9577
:10338000EAF70E945D07DF91CF911F910F91089599
:1033900010913002141332C080912E0290912F02AE
:1033A0000E94D31B883C910548F5C0E2CD0F1D1744
:1033B000B9F080E2810F883040F4177081E001C0DD
:1033C000880F1A95EAF70E946407C83048F481E034
:1033D0009D2F977001C0880F9A95EAF70E945D07AC
:1033E000802F0E945407C83070F6D77081E001C06A
:1033F000880FDA95EAF70E946407C5CF80E28C0F48
:10340000883008F6C77081E001C0880FCA95EAF7D6
:10341000F2CF0F939C01CB01233F4CE5340759F1C8
:10342000A8F4283DFCE53F0701F1293D4CE53407B0
:10343000D1F1273D3C4591F406E221EE41EE67EDE6
:103440007CE50E94A51980E00F910895253FFCE5D9
:103450003F07E9F0B0F0263F3C45F9F0FC018281DE
:10346000882339F110923002EFCF07E225EE45EEC6
:1034700068ED7CE5E6CF06E221EE40EE63EF7CE509
:10348000E0CF07E225EE44EE64EF7CE5DACF06E21A
:1034900021EE42EE65EF7CE5D4CF07E225EE46EE65
:1034A00066EF7CE5CECF08E221E045EE69ED7CE5F4
:1034B000C8CF81E0C9CF90939B0180939A01089572
:1034C00090933602809335020895E0913502F09191
:1034D0003602309729F00190F081E02D099508958A
:1034E00080E00895E0913502F0913602309721F0A6
:1034F0000280F381E02D09950895E0913502F09165
:103500003602309739F022E0DC012C930480F581FB
:10351000E02D099508952091330230913402281747
:10352000390771F09093340280933302E0913502B1
:10353000F0913602309721F00680F781E02D099551
:10354000089520913102309132022817390771F025
:103550009093320280933102E0913502F09136026D
:10356000309721F00084F185E02D099508959C01A4
:103570002E5F3F4FAC01485F5F4F80E02417350757
:1035800009F40895F90191919F019923B9F38F5F8F
:10359000F5CF662349F0FC01329608962191261753
:1035A00029F0E817F907D1F780E0089581E0089540
:1035B0009C01FC0132969FEF80E04191461751F04B
:1035C0009F3F19F4411101C0982F8F5F8630A9F7F2
:1035D0009F3F09F40895290F311D97FD3A95F90190
:1035E00062830895FC01329608962191261303C048
:1035F000DF0111971C92E817F907B9F708950E94A7
:10360000D81A08950E94F21A0895029626E0FC0145
:1036100011922A95E9F7089546E050E00E94FC23B4
:1036200021E0892B09F420E0822F089508950E945B
:10363000161B0895811106C081E0809337020E9415
:10364000171B089582E0F9CF83E0809337020E9430
:10365000171B08950E941A1B089581E0809337027A
:103660000E94171B08950E942D1B08950895089528
:103670000E94371B0895089508950E94361B0895EF
:10368000CF930E943B1B0E947A120E943C1BC0E019
:103690008C2F0E946112811105C0CF5FCA30C1F723
:1036A000CF91089581E0FCCF85B7806885BF85B74D
:1036B000806885BF08951F921FB61F9211248F93B3
:1036C0009F93AF93BF9380913802811113C0809173
:1036D0005C0290915D02A0915E02B0915F02419602
:1036E000A11DB11D80935C0290935D02A0935E02C8
:1036F000B0935F02BF91AF919F918F911F901FBEBA
:103700001F90189580916402843031F10E941F054A
:103710001092380288E190E020E40FB6F894A89562
:10372000809360000FBE2093600083B7817F846028
:1037300083BF83B7816083BF7894889583B78E7F7A
:1037400083BF0FB6F894A89580916000886180933C
:103750006000109260000FBE08950E94B1090E949F
:103760002405089582E084BD93E095BD9AEF97BD4E
:1037700080936E0008952FB7F89480915C02909129
:103780005D02A0915E02B0915F022FBF08952FB736
:10379000F89460915C0270915D0280915E0290915C
:1037A0005F022FBF08959C014FB7F89480915C028F
:1037B00090915D02A0915E02B0915F024FBF821BAB
:1037C000930B089578941F921FB61F9211248F9324
:1037D0009F93AF93BF9380915C0290915D02A09103
:1037E0005E02B0915F020196A11DB11D80935C0243
:1037F00090935D02A0935E02B0935F02BF91AF9180
:103800009F918F911F901FBE1F90189587E797E794
:10381000909301088093000888E19AE00FB6F8942D
:10382000A895809360000FBE90936000FFCF88E161
:103830009AE00FB6F894A895809360000FBE90931D
:103840006000FFCF80914402089508959C0184E0B8
:103850008093E9009FEF8091E800915085FD06C0BC
:1038600085ED8A95F1F700009111F5CF8091E80080
:1038700085FF0CC050E040E066E070E0C9010E94A6
:10388000BA1E8091E8008E778093E8000895CF9368
:10389000DF93EC0181E08093E9008FEF9091E800E5
:1038A000815095FD06C095ED9A95F1F700008111C4
:1038B000F5CF8091E80085FF14C050E040E068E05B
:1038C00070E0CE010E94BA1E8091E8008E7780934E
:1038D000E80088E0FE01ACE3B2E001900D928A9529
:1038E000E1F7DF91CF9108958093390270933B0205
:1038F00060933A02809164028430F9F48093E90085
:103900008FEF9091E800815095FD06C095ED9A9556
:10391000F1F700008111F5CF8091E80085FF0DC01F
:1039200050E040E063E070E089E392E00E94BA1E5C
:103930008091E8008E778093E8000895BC0184E0D0
:103940000E94741C0895BC0183E00E94741C0895B9
:10395000CF93FC01603221F580916402843001F53F
:10396000C091E900CF702091EC00922F917020FD62
:1039700090E8C92B82E08093E9008091E80080FF05
:103980000CC050E040E060E270E0CF010E94BA1E3F
:103990008091E8008E778093E800CF70C093E900B3
:1039A000CF91089580916302811109C00E949920EE
:1039B0000E94F6208091E20084608093E2000895E6
:1039C0001092630208950E942D1B08956091600279
:1039D00081E0611101C080E00E94241B0895909154
:1039E000640281E0943009F080E0609160020E94FE
:1039F0002A1B089542E061EC81E00E94152042E21A
:103A000061EC84E00E94152042E261EC82E00E94B9
:103A1000152042E260EC83E00E9415209091640240
:103A200081E0943009F080E0609160020E941A1BEE
:103A3000089580916602833009F463C030F48130C8
:103A4000E1F1823009F4A0C008958A3009F48CC0F5
:103A50008B3009F471C0893009F052C08091650241
:103A6000813209F04DC08091690290916A020097FD
:103A700019F0029709F044C08091E800877F809395
:103A8000E8008091E80082FF37C09091F3008091B8
:103A9000F200029731F48091F100813011F086300C
:103AA00021F48091F100809344028091E8008B77AB
:103AB0008093E8000E94492023C080916502813AEA
:103AC000F9F48091E800877F8093E8008091690293
:103AD00090916A02892B61F468E08CE392E070E0D7
:103AE0000E94581F8091E8008B778093E80008952A
:103AF00060E090E080E0F3CF809164028111C1CF5B
:103B0000089580916502813AD9F780916902909178
:103B10006A02892BA9F78091E800877F8093E800EB
:103B20008091E80080FFFCCF809116018093F10026
:103B30008091E8008E77BCCF80916502813201F7D9
:103B40008091690290916A02892BD1F68091E800F8
:103B5000877F8093E8000E944920809167028093CC
:103B600016010E94B109089580916502813241F6E3
:103B70008091E800877F8093E8000E94492080912F
:103B8000680280934502089580916502813A09F0A8
:103B9000B7CF8091E800877F8093E8008091E800AC
:103BA00080FFFCCF80914502C1CF84B7877F84BF5F
:103BB0000FB6F894A89580916000886180936000AA
:103BC000109260000FBE80E890E00FB6F8948093EA
:103BD0006100909361000FBE0E94331B08950E9404
:103BE00099200E94F620E2EEF0E0808184608083DC
:103BF00078940E94752308958AE091E00E94601AEB
:103C0000089580916402853031F48091640285309A
:103C100019F00E94AD1B08950E94821B80916202E0
:103C2000882399F30E94401B882379F30E94A41EE5
:103C30000E94B109EACFA0E2B0E0E1E2FEE10C941B
:103C4000C12380916402843009F583E08093E90008
:103C50008091E80082FF1AC08091E80090E085FF23
:103C600009C050E040E060E270E0CE0101960E94A1
:103C7000091F91E08091E8008B778093E8009923F9
:103C800029F060E2CE0101960E940316A096E2E0C0
:103C90000C94DD230E944D1E0895292F33272330D5
:103CA000310521F168F42130310509F443C0223097
:103CB000310509F444C090E080E030E020E026C007
:103CC0002132310551F122323105A9F763307105F6
:103CD00090F7FB01EE0FFF1FE257FE4F208131816D
:103CE00065577E4FFB01808190E010C0992781309D
:103CF000910581F0009729F00297E9F6ECEDF3E0E9
:103D000002C0EEE0F4E0849190E09F01FA0131837B
:103D100020830895EEEEF3E0F6CF6330710558F698
:103D2000660F771FFB01EC56FE4F2081318189E041
:103D300090E0ECCF82E190E02DE634E0E7CF8BE538
:103D400090E022E134E0E2CF80E189BD82E189BDEB
:103D500009B400FEFDCF8091D8008F7D8093D800FC
:103D60008091E00082608093E0008091E00081FD1E
:103D7000FCCF0895AF92BF92CF92DF92FF920F9344
:103D80001F93CF93DF936C01EB018A010E9468209F
:103D9000F82E811123C00115110539F0F801808139
:103DA0009181C81BD90BC80ED91EB12CA12C20970C
:103DB000A9F08091E80085FD22C08091E8008E770F
:103DC0008093E80001151105A1F0F801808191812F
:103DD000A80EB91EB182A08285E0F82E8F2DDF914A
:103DE000CF911F910F91FF90DF90CF90BF90AF9038
:103DF00008950E9468208823D1F2F82EEFCFF601B3
:103E000081916F018093F1002197FFEFAF1ABF0AF4
:103E1000CECFAF92BF92CF92DF92FF920F931F93BC
:103E2000CF93DF936C01EB018A010E946820F82E8A
:103E3000811123C00115110539F0F80180819181AC
:103E4000C81BD90BC80ED91EB12CA12C2097A9F0E4
:103E50008091E80085FD22C08091E8008B778093F7
:103E6000E80001151105A1F0F80180819181A80EEB
:103E7000B91EB182A08285E0F82E8F2DDF91CF91FF
:103E80001F910F91FF90DF90CF90BF90AF9008955A
:103E90000E9468208823D1F2F82EEFCF8091F100A4
:103EA000F60181936F012197FFEFAF1ABF0ACECFC2
:103EB000FC0180916B0290916C0286179707A0F02D
:103EC0006115710529F49091E8009E779093E800C0
:103ED00090E06115710551F4911108C08091E800DE
:103EE00082FF34C080E00895BC01F2CF809164026B
:103EF0008823C1F18530C1F18091E80083FD30C095
:103F00008091E80082FDEACF8091E80080FFE1CF58
:103F10008091F3002091F200382F6115710519F09E
:103F20002830310558F091E02830310509F090E053
:103F30002091E8002E772093E800CBCF81918093E9
:103F4000F100615071092F5F3F4FE7CF809164020C
:103F5000882341F0853041F08091E80083FFBECF97
:103F600081E0089582E0089583E00895FC01809146
:103F70006B0290916C0286179707A0F0611571058E
:103F800029F48091E8008E778093E80090E0611535
:103F9000710551F4911108C08091E80082FF35C08D
:103FA00080E00895BC01F2CF809164028823C9F1BA
:103FB0008530C9F18091E80083FD31C08091E8002F
:103FC00082FDEACF8091E80080FFE1CF8091F3008D
:103FD0002091F200382F6115710519F02830310554
:103FE00058F091E02830310509F090E08091E80028
:103FF0008E778093E800CBCF84918093F100319647
:10400000615071092F5F3F4FE6CF80916402882392
:1040100041F0853041F08091E80083FFBDCF81E021
:10402000089582E0089583E00895982F973028F04E
:104030008F708093E90081E008959093E900242F28
:10404000762F50E0981731F07091EC002091ED0040
:104050005091F00021FD02C09F5FE8CF3091EB004E
:104060003E7F3093EB003091ED003D7F3093ED00CB
:104070003091EB0031603093EB007093EC002093B3
:10408000ED005093F0002091EE0027FDE5CF80E099
:1040900008958091650287FF13C08091E80082FF38
:1040A00006C08091E8008B778093E80004C080917F
:1040B00064028111F2CF0895809164028823D9F3BC
:1040C0008091E80080FFF8CF8091E8008E77ECCFF8
:1040D0002091E4003091E50095E6A9012091EC00E3
:1040E000822F817020FF06C08091E80080FF06C00B
:1040F00080E008952091E80022FD1AC080916402BA
:10410000882389F0853089F08091EB0085FD0FC010
:104110002091E4003091E50042175307F9F29150E5
:10412000E1F684E0089582E0089583E0089581E057
:1041300008950E9408210E941021E0EEF0E08081A5
:1041400081608083E8EDF0E080818F77808319BC07
:10415000A7EDB0E08C918E7F8C9380818F7E8083E1
:104160001092630208950F931F93CF93DF930E94E1
:1041700008210E941021C8EDD0E088818F778883C4
:1041800088818068888388818F7D888319BC10929C
:10419000640210926002109262021092610200EEBC
:1041A00010E0F80180818B7F808388818160888323
:1041B00042E060E080E00E941520E1EEF0E08081C6
:1041C0008E7F8083E2EEF0E0808181608083808159
:1041D00088608083F80180818E7F80838881806100
:1041E0008883DF91CF911F910F910895E8EDF0E062
:1041F00080818F7E8083E7EDF0E080818160808325
:1042000084E082BF81E0809363020E94B32008951E
:10421000E8EDF0E080818E7F80831092E2000895C7
:104220001092DA001092E10008951F920F920FB6DB
:104230000F9211242F933F934F935F936F937F932C
:104240008F939F93AF93BF93EF93FF938091E10080
:1042500082FF0BC08091E20082FF07C08091E100E5
:104260008B7F8093E1000E9474238091DA0080FFAD
:1042700019C08091D80080FF15C08091DA008E7F30
:104280008093DA008091D90080FF96C080E189BDDB
:1042900082E189BD09B400FEFDCF81E08093640214
:1042A0000E94D21C8091E10080FF19C08091E20041
:1042B00080FF15C08091E2008E7F8093E2008091A4
:1042C000E20080618093E2008091D8008062809358
:1042D000D80019BC85E0809364020E94E61C80919E
:1042E000E10084FF2BC08091E20084FF27C080E1C1
:1042F00089BD82E189BD89B5982F917080FFFBCF80
:104300008091D8008F7D8093D8008091E1008F7ECE
:104310008093E1008091E2008F7E8093E2008091A3
:10432000E20081608093E20080916002882309F4BA
:1043300049C084E0809364020E94EF1C8091E100F8
:1043400083FF29C08091E20083FF25C08091E100B6
:10435000877F8093E10082E0809364021092600284
:104360008091E1008E7F8093E1008091E2008E7F5A
:104370008093E2008091E20080618093E20042E05D
:1043800060E080E00E9415208091F00088608093BA
:10439000F0000E94E31CFF91EF91BF91AF919F91BC
:1043A0008F917F916F915F914F913F912F910F90DE
:1043B0000FBE0F901F90189519BC109264020E94B6
:1043C000E01C70CF8091E30087FD93E0909364023E
:1043D000B3CF1F920F920FB60F9211242F933F93DA
:1043E0004F935F936F937F938F939F93AF93BF93FD
:1043F000CF93DF93EF93FF93D091E900DF7080912B
:10440000EC00C82FC17080FDC0E81092E9008091D7
:10441000F000877F8093F00078940E942D22109204
:10442000E9008091F00088608093F000CD2BCF7080
:10443000C093E900FF91EF91DF91CF91BF91AF91D0
:104440009F918F917F916F915F914F913F912F91AC
:104450000F900FBE0F901F901895AAE2B0E0E3E313
:10446000F2E20C94C02385E692E02091F100FC0179
:104470002193CF01F2E08D369F07B9F70E94191DF5
:104480008091E80083FF1EC18091650290916602D1
:104490009A3008F017C1E92FF0E0E459FB4D0C9475
:1044A000A423803899F0823809F00CC18091690208
:1044B0008F70873008F006C18093E9008091EB008F
:1044C00085FB882780F91092E90006C0809161027F
:1044D00090916202911182609091E800977F909391
:1044E000E8008093F1001092F1008091E8008E774F
:1044F000E5C0882309F4D3C0823009F0E3C080917D
:1045000067028111D6C0809169028F702FEF280F4A
:10451000263008F0D7C08093E9002091EB0020FFFF
:10452000C8C0933031F48091EB0080628093EB003F
:10453000C0C09091EB0090619093EB0021E030E0DF
:1045400001C0220F8A95EAF72093EA001092EA0050
:104550008091EB008860EACF8111B4C010916702AE
:104560001F778091E3008078812B8093E300809116
:10457000E800877F8093E8000E9449208091E8004E
:1045800080FFFCCF8091E30080688093E30082E0AD
:10459000111183E08093640295C08058823008F046
:1045A00091C080916702909168028C3D23E0920750
:1045B000A1F583E08A838AE289834FB7F894DE010C
:1045C000139620E03EE051E2E32FF0E050935700D5
:1045D000E49120FF03C0E295EF703F5FEF708E2FF4
:1045E00090E0EA30C0F0C7968D939D932F5F243101
:1045F00059F74FBF8091E800877F8093E8006AE217
:1046000070E0CE0101960E94581F8091E8008B77E0
:104610008093E80057C0C096E7CF6091690270911F
:104620006A02AE014F5F5F4F0E944A1EBC01892B98
:1046300009F448C09091E800977F9093E800898141
:104640009A810E94B61FE1CF8038E1F58091E800A1
:10465000877F8093E800809160028093F10045CFCE
:10466000811130C090916702923060F58091E8002E
:10467000877F8093E800909360020E944920809198
:104680006002882311F084E005C08091E30087FD7B
:10469000FACF81E0809364020E94FA1C13C08091DB
:1046A0006702813079F481E0933009F080E08093F3
:1046B00062021092E9008091E800877F8093E80011
:1046C0000E9449208091E80083FF0AC08091E800A1
:1046D000877F8093E8008091EB0080628093EB00FD
:1046E000AA96E3E00C94DC230895CF9380916402B2
:1046F0008823A1F0C091E900CF709091EC00892F40
:10470000817090FD80E8C82B1092E9008091E8004C
:1047100083FD0E942D22CF70C093E900CF910895B0
:1047200097FB072E16F4009407D077FD09D00E945E
:10473000E82307FC05D03EF4909581959F4F08959E
:10474000709561957F4F0895EE0FFF1F0590F491CE
:10475000E02D0994692796276927782787277827E6
:1047600008952F923F924F925F926F927F928F9215
:104770009F92AF92BF92CF92DF92EF92FF920F93F0
:104780001F93CF93DF93CDB7DEB7CA1BDB0B0FB6FA
:10479000F894DEBF0FBECDBF09942A8839884888B7
:1047A0005F846E847D848C849B84AA84B984C8844D
:1047B000DF80EE80FD800C811B81AA81B981CE0F44
:1047C000D11D0FB6F894DEBF0FBECDBFED01089529
:1047D000AA1BBB1B51E107C0AA1FBB1FA617B70727
:1047E00010F0A61BB70B881F991F5A95A9F7809543
:1047F0009095BC01CD010895FB01DC0104C08D91B1
:104800000190801921F441505040C8F7881B990B42
:104810000895F999FECF92BD81BDF89A992780B588
:104820000895A8E1B0E042E050E00C943D24262F2A
:10483000F999FECF92BD81BDF89A019700B4021696
:1048400039F01FBA20BD0FB6F894FA9AF99A0FBE44
:1048500008950396272F0E9418240E941724252FBD
:104860000E941824242F0C9418240196272F0E94AC
:1048700018240C941724DC01CB01FC01F999FECF1C
:1048800006C0F2BDE1BDF89A319600B40D924150D8
:104890005040B8F70895F894FFCFA607A607D707AA
:1048A000D70764088008060806088B08F208010983
:1048B000010915162116481654165F166A166D164C
:1048C0006D166D166D166D16701674167C1689169B
:1048D000961699169C16A9165122792262237922DE
:0C48E0006223AC22CD226223242330236B
:1048EC000002280850011E0A1401221C471C261C19
:1048FC00A31C9E1C251C01F4F5F6F7313332C6912E
:10490C00909466970000000000E200E900EA00B510
:10491C0000B600B700CD008301CC008A019201944F
:10492C00012102230224022502260227022A02B3B5
:10493C0000B4006F007000818283E200E900EA009D
:10494C00B500B600B700CD008301CC008A019201FE
:10495C0094012102230224022502260227022A02A4
:10496C00B300B4006F00700081828340227B1C0571
:0A497C007F04A10424043D045D043F
:00000001FF
